{
  "address": "0x79C94d3ee9746944C5B958fD84b8EB46665aDc0B",
  "abi": [
    {
      "inputs": [
        {
          "internalType": "address",
          "name": "_magic",
          "type": "address"
        },
        {
          "internalType": "address",
          "name": "_lpToken",
          "type": "address"
        }
      ],
      "stateMutability": "nonpayable",
      "type": "constructor"
    },
    {
      "anonymous": false,
      "inputs": [
        {
          "indexed": true,
          "internalType": "address",
          "name": "user",
          "type": "address"
        },
        {
          "indexed": false,
          "internalType": "uint256",
          "name": "lpAmount",
          "type": "uint256"
        },
        {
          "indexed": false,
          "internalType": "uint256",
          "name": "tokenId",
          "type": "uint256"
        },
        {
          "indexed": false,
          "internalType": "uint256",
          "name": "depositAmount",
          "type": "uint256"
        }
      ],
      "name": "Deposit",
      "type": "event"
    },
    {
      "anonymous": false,
      "inputs": [
        {
          "indexed": true,
          "internalType": "address",
          "name": "user",
          "type": "address"
        },
        {
          "indexed": true,
          "internalType": "uint256",
          "name": "index",
          "type": "uint256"
        },
        {
          "indexed": false,
          "internalType": "uint256",
          "name": "amount",
          "type": "uint256"
        }
      ],
      "name": "Harvest",
      "type": "event"
    },
    {
      "anonymous": false,
      "inputs": [
        {
          "indexed": false,
          "internalType": "uint256",
          "name": "lpSupply",
          "type": "uint256"
        },
        {
          "indexed": false,
          "internalType": "uint256",
          "name": "accMagicPerShare",
          "type": "uint256"
        }
      ],
      "name": "LogUpdateRewards",
      "type": "event"
    },
    {
      "anonymous": false,
      "inputs": [
        {
          "indexed": true,
          "internalType": "address",
          "name": "user",
          "type": "address"
        },
        {
          "indexed": false,
          "internalType": "uint256",
          "name": "tokenId",
          "type": "uint256"
        },
        {
          "indexed": false,
          "internalType": "uint256",
          "name": "withdrawAmount",
          "type": "uint256"
        }
      ],
      "name": "Withdraw",
      "type": "event"
    },
    {
      "inputs": [],
      "name": "DAY",
      "outputs": [
        {
          "internalType": "uint256",
          "name": "",
          "type": "uint256"
        }
      ],
      "stateMutability": "view",
      "type": "function"
    },
    {
      "inputs": [],
      "name": "LIFECYCLE",
      "outputs": [
        {
          "internalType": "uint256",
          "name": "",
          "type": "uint256"
        }
      ],
      "stateMutability": "view",
      "type": "function"
    },
    {
      "inputs": [],
      "name": "ONE",
      "outputs": [
        {
          "internalType": "uint256",
          "name": "",
          "type": "uint256"
        }
      ],
      "stateMutability": "view",
      "type": "function"
    },
    {
      "inputs": [],
      "name": "ONE_MONTH",
      "outputs": [
        {
          "internalType": "uint256",
          "name": "",
          "type": "uint256"
        }
      ],
      "stateMutability": "view",
      "type": "function"
    },
    {
      "inputs": [],
      "name": "ONE_WEEK",
      "outputs": [
        {
          "internalType": "uint256",
          "name": "",
          "type": "uint256"
        }
      ],
      "stateMutability": "view",
      "type": "function"
    },
    {
      "inputs": [],
      "name": "THREE_MONTHS",
      "outputs": [
        {
          "internalType": "uint256",
          "name": "",
          "type": "uint256"
        }
      ],
      "stateMutability": "view",
      "type": "function"
    },
    {
      "inputs": [],
      "name": "TWO_WEEKS",
      "outputs": [
        {
          "internalType": "uint256",
          "name": "",
          "type": "uint256"
        }
      ],
      "stateMutability": "view",
      "type": "function"
    },
    {
      "inputs": [],
      "name": "accMagicPerShare",
      "outputs": [
        {
          "internalType": "uint256",
          "name": "",
          "type": "uint256"
        }
      ],
      "stateMutability": "view",
      "type": "function"
    },
    {
      "inputs": [
        {
          "internalType": "uint256",
          "name": "_amount",
          "type": "uint256"
        }
      ],
      "name": "addDecimals",
      "outputs": [
        {
          "internalType": "uint256",
          "name": "",
          "type": "uint256"
        }
      ],
      "stateMutability": "pure",
      "type": "function"
    },
    {
      "inputs": [
        {
          "internalType": "address",
          "name": "",
          "type": "address"
        },
        {
          "internalType": "uint256",
          "name": "",
          "type": "uint256"
        }
      ],
      "name": "allUserTokenIds",
      "outputs": [
        {
          "internalType": "uint256",
          "name": "",
          "type": "uint256"
        }
      ],
      "stateMutability": "view",
      "type": "function"
    },
    {
      "inputs": [
        {
          "internalType": "uint256",
          "name": "_tokenId",
          "type": "uint256"
        },
        {
          "internalType": "uint256",
          "name": "_amount",
          "type": "uint256"
        }
      ],
      "name": "deposit",
      "outputs": [],
      "stateMutability": "nonpayable",
      "type": "function"
    },
    {
      "inputs": [
        {
          "internalType": "address",
          "name": "_user",
          "type": "address"
        }
      ],
      "name": "getAllUserTokenIds",
      "outputs": [
        {
          "internalType": "uint256[]",
          "name": "",
          "type": "uint256[]"
        }
      ],
      "stateMutability": "view",
      "type": "function"
    },
    {
      "inputs": [
        {
          "internalType": "uint256",
          "name": "_tokenId",
          "type": "uint256"
        },
        {
          "internalType": "uint256",
          "name": "_amount",
          "type": "uint256"
        }
      ],
      "name": "getLpAmount",
      "outputs": [
        {
          "internalType": "uint256",
          "name": "",
          "type": "uint256"
        }
      ],
      "stateMutability": "pure",
      "type": "function"
    },
    {
      "inputs": [],
      "name": "harvestAll",
      "outputs": [],
      "stateMutability": "nonpayable",
      "type": "function"
    },
    {
      "inputs": [
        {
          "internalType": "uint256",
          "name": "_tokenId",
          "type": "uint256"
        }
      ],
      "name": "harvestPosition",
      "outputs": [],
      "stateMutability": "nonpayable",
      "type": "function"
    },
    {
      "inputs": [],
      "name": "lpToken",
      "outputs": [
        {
          "internalType": "contract IERC1155",
          "name": "",
          "type": "address"
        }
      ],
      "stateMutability": "view",
      "type": "function"
    },
    {
      "inputs": [],
      "name": "magic",
      "outputs": [
        {
          "internalType": "contract ERC20",
          "name": "",
          "type": "address"
        }
      ],
      "stateMutability": "view",
      "type": "function"
    },
    {
      "inputs": [
        {
          "internalType": "uint256",
          "name": "_amount",
          "type": "uint256"
        }
      ],
      "name": "notifyRewards",
      "outputs": [],
      "stateMutability": "nonpayable",
      "type": "function"
    },
    {
      "inputs": [
        {
          "internalType": "address",
          "name": "",
          "type": "address"
        },
        {
          "internalType": "address",
          "name": "",
          "type": "address"
        },
        {
          "internalType": "uint256[]",
          "name": "",
          "type": "uint256[]"
        },
        {
          "internalType": "uint256[]",
          "name": "",
          "type": "uint256[]"
        },
        {
          "internalType": "bytes",
          "name": "",
          "type": "bytes"
        }
      ],
      "name": "onERC1155BatchReceived",
      "outputs": [
        {
          "internalType": "bytes4",
          "name": "",
          "type": "bytes4"
        }
      ],
      "stateMutability": "nonpayable",
      "type": "function"
    },
    {
      "inputs": [
        {
          "internalType": "address",
          "name": "",
          "type": "address"
        },
        {
          "internalType": "address",
          "name": "",
          "type": "address"
        },
        {
          "internalType": "uint256",
          "name": "",
          "type": "uint256"
        },
        {
          "internalType": "uint256",
          "name": "",
          "type": "uint256"
        },
        {
          "internalType": "bytes",
          "name": "",
          "type": "bytes"
        }
      ],
      "name": "onERC1155Received",
      "outputs": [
        {
          "internalType": "bytes4",
          "name": "",
          "type": "bytes4"
        }
      ],
      "stateMutability": "nonpayable",
      "type": "function"
    },
    {
      "inputs": [
        {
          "internalType": "address",
          "name": "_user",
          "type": "address"
        }
      ],
      "name": "pendingRewardsAll",
      "outputs": [
        {
          "internalType": "uint256",
          "name": "pending",
          "type": "uint256"
        }
      ],
      "stateMutability": "view",
      "type": "function"
    },
    {
      "inputs": [
        {
          "internalType": "address",
          "name": "_user",
          "type": "address"
        },
        {
          "internalType": "uint256",
          "name": "_tokenId",
          "type": "uint256"
        }
      ],
      "name": "pendingRewardsPosition",
      "outputs": [
        {
          "internalType": "uint256",
          "name": "pending",
          "type": "uint256"
        }
      ],
      "stateMutability": "view",
      "type": "function"
    },
    {
      "inputs": [
        {
          "internalType": "bytes4",
          "name": "interfaceId",
          "type": "bytes4"
        }
      ],
      "name": "supportsInterface",
      "outputs": [
        {
          "internalType": "bool",
          "name": "",
          "type": "bool"
        }
      ],
      "stateMutability": "view",
      "type": "function"
    },
    {
      "inputs": [
        {
          "internalType": "address",
          "name": "",
          "type": "address"
        },
        {
          "internalType": "uint256",
          "name": "",
          "type": "uint256"
        }
      ],
      "name": "tokenIdIndex",
      "outputs": [
        {
          "internalType": "uint256",
          "name": "",
          "type": "uint256"
        }
      ],
      "stateMutability": "view",
      "type": "function"
    },
    {
      "inputs": [],
      "name": "totalLpToken",
      "outputs": [
        {
          "internalType": "uint256",
          "name": "",
          "type": "uint256"
        }
      ],
      "stateMutability": "view",
      "type": "function"
    },
    {
      "inputs": [],
      "name": "totalRewardsEarned",
      "outputs": [
        {
          "internalType": "uint256",
          "name": "",
          "type": "uint256"
        }
      ],
      "stateMutability": "view",
      "type": "function"
    },
    {
      "inputs": [],
      "name": "undistributedRewards",
      "outputs": [
        {
          "internalType": "uint256",
          "name": "",
          "type": "uint256"
        }
      ],
      "stateMutability": "view",
      "type": "function"
    },
    {
      "inputs": [
        {
          "internalType": "address",
          "name": "",
          "type": "address"
        },
        {
          "internalType": "uint256",
          "name": "",
          "type": "uint256"
        }
      ],
      "name": "userInfo",
      "outputs": [
        {
          "internalType": "uint256",
          "name": "depositAmount",
          "type": "uint256"
        },
        {
          "internalType": "uint256",
          "name": "tokenId",
          "type": "uint256"
        },
        {
          "internalType": "uint256",
          "name": "lpAmount",
          "type": "uint256"
        },
        {
          "internalType": "int256",
          "name": "rewardDebt",
          "type": "int256"
        }
      ],
      "stateMutability": "view",
      "type": "function"
    },
    {
      "inputs": [],
      "name": "withdrawAll",
      "outputs": [],
      "stateMutability": "nonpayable",
      "type": "function"
    },
    {
      "inputs": [],
      "name": "withdrawAndHarvestAll",
      "outputs": [],
      "stateMutability": "nonpayable",
      "type": "function"
    },
    {
      "inputs": [
        {
          "internalType": "uint256",
          "name": "_tokenId",
          "type": "uint256"
        },
        {
          "internalType": "uint256",
          "name": "_amount",
          "type": "uint256"
        }
      ],
      "name": "withdrawAndHarvestPosition",
      "outputs": [],
      "stateMutability": "nonpayable",
      "type": "function"
    },
    {
      "inputs": [
        {
          "internalType": "uint256",
          "name": "_tokenId",
          "type": "uint256"
        },
        {
          "internalType": "uint256",
          "name": "_amount",
          "type": "uint256"
        }
      ],
      "name": "withdrawPosition",
      "outputs": [],
      "stateMutability": "nonpayable",
      "type": "function"
    }
  ],
  "transactionHash": "0x4de0bd1fda2bc687dfa1adbf5bfcb5eb9b7ef19100c32655193b495e32476430",
  "args": [
    "0xfab95915359bdCa523c0EFe55e73B30b77897e1f",
    "0xFb5799C12C58b4494497b3e7eA3a58def1311517"
  ],
  "solcInputHash": "b3935d23b502b19e524270344128b062",
  "bytecode": "0x60c06040523480156200001157600080fd5b5060405162001f0638038062001f06833981016040819052620000349162000070565b6001600160601b0319606092831b8116608052911b1660a052620000a8565b80516001600160a01b03811681146200006b57600080fd5b919050565b600080604083850312156200008457600080fd5b6200008f8362000053565b91506200009f6020840162000053565b90509250929050565b60805160601c60a05160601c611e16620000f06000396000818161033801528181610ec00152611036015260008181610222015281816109560152610d2b0152611e166000f3fe608060405234801561001057600080fd5b50600436106101f05760003560e01c80638ed955b91161010f578063d3512cef116100a2578063ecbefab711610071578063ecbefab714610485578063f15576a61461048d578063f23a6e6114610496578063fd90904c146104b557600080fd5b8063d3512cef1461044c578063d82b99d71461045f578063e2bbb15814610472578063e8622e671461048557600080fd5b8063b32ea1d3116100de578063b32ea1d3146103d1578063bc168ecb146103fc578063bc197c8114610405578063c2ee3a081461043d57600080fd5b80638ed955b91461039b578063934d1fa4146103a35780639786608f146103ab578063a7e69fb4146103be57600080fd5b8063319ce2bb1161018757806373503857116101565780637350385714610363578063772920261461036b578063853828b61461038b5780638e6f6b771461039357600080fd5b8063319ce2bb1461031757806359fe213b146103205780635fcbd28514610333578063620572071461035a57600080fd5b806320988cef116101c357806320988cef1461029057806320f8e94e1461029857806321ce919d146102ad57806327cfe8561461030d57600080fd5b806301ffc9a7146101f55780630d8546461461021d5780631951b6981461025c578063207f10541461027d575b600080fd5b610208610203366004611ae2565b6104c8565b60405190151581526020015b60405180910390f35b6102447f000000000000000000000000000000000000000000000000000000000000000081565b6040516001600160a01b039091168152602001610214565b61026f61026a366004611b0c565b6104ff565b604051908152602001610214565b61026f61028b366004611b25565b610513565b61026f6108ad565b6102ab6102a6366004611b0c565b6108be565b005b6102ed6102bb366004611a96565b600460209081526000928352604080842090915290825290208054600182015460028301546003909301549192909184565b604080519485526020850193909352918301526060820152608001610214565b61026f6201518081565b61026f60035481565b61026f61032e36600461196c565b6109ba565b6102447f000000000000000000000000000000000000000000000000000000000000000081565b61026f60015481565b6102ab610a43565b61037e61037936600461196c565b610af0565b6040516102149190611bc9565b6102ab610b5c565b61026f610c04565b6102ab610c12565b61026f610cb7565b61026f6103b9366004611a96565b610cd0565b6102ab6103cc366004611b25565b610d01565b61026f6103df366004611a96565b600660209081526000928352604080842090915290825290205481565b61026f60025481565b610424610413366004611987565b63bc197c8160e01b95945050505050565b6040516001600160e01b03199091168152602001610214565b61026f670de0b6b3a764000081565b6102ab61045a366004611b0c565b610d18565b6102ab61046d366004611b25565b610d5f565b6102ab610480366004611b25565b610f71565b61026f6110ed565b61026f60005481565b6104246104a4366004611a31565b63f23a6e6160e01b95945050505050565b61026f6104c3366004611a96565b611106565b60006001600160e01b03198216630271189760e51b14806104f957506301ffc9a760e01b6001600160e01b03198316145b92915050565b60006104f9670de0b6b3a764000083611ccc565b6000806064602785141561052b576103eb915061087a565b84602e141561053e57610335915061087a565b84602f1415610551576103cd915061087a565b8460301415610563576064915061087a565b84603114156105755760cc915061087a565b8460331415610588576103f7915061087a565b846034141561059b576103f7915061087a565b84603514156105ae57610329915061087a565b84603614156105c1576103d1915061087a565b84604414156105d4576102f0915061087a565b84604514156105e7576101c2915061087a565b84604714156105fa5761011f915061087a565b846048141561060d57610306915061087a565b846049141561061f576068915061087a565b84604a14156106325761034e915061087a565b84604b1415610645576102fa915061087a565b84604c14156106575760a2915061087a565b84604d1415610669576067915061087a565b84604f141561067b576065915061087a565b846052141561068e576102e3915061087a565b84605b14156106a15761030b915061087a565b84605c14156106b3576067915061087a565b84605d14156106c6576101ad915061087a565b84605e14156106d9576101b4915061087a565b84605f14156106ec57610417915061087a565b84606014156106fe576069915061087a565b84606114156107115761041c915061087a565b8460621415610724576103c5915061087a565b846063141561073757610351915061087a565b846064141561074a576102c6915061087a565b846067141561075d57610192915061087a565b84606814156107705761033e915061087a565b846069141561078357610380915061087a565b84607214156107955760d4915061087a565b84607314156107a7576067915061087a565b84607414156107ba57610304915061087a565b84607514156107cc576064915061087a565b84608414156107df57610353915061087a565b84608514156107f1576067915061087a565b84608d14156108045761031a915061087a565b8460971415610816576069915061087a565b84609814156108295761031e915061087a565b846099141561083c57610356915061087a565b8460a1141561084f576103d1915061087a565b8460a2141561086257610317915061087a565b8460a41415610875576102a4915061087a565b600091505b610883846104ff565b9350806108908386611ccc565b61089a9190611caa565b6108a49085611c92565b95945050505050565b6108bb62015180601e611ccc565b81565b3360009081526004602090815260408083208484529091528120600154600282015491929161090a91670de0b6b3a7640000916108fb9190611ccc565b6109059190611caa565b611164565b905060006109268360030154836109219190611ceb565b6111d2565b600384018390556002840154909150610943576109433385611224565b801561097d5761097d6001600160a01b037f00000000000000000000000000000000000000000000000000000000000000001633836113e5565b604051818152849033907f71bab65ced2e5750775a0613be067df48ef06cf92a496ebf7663ae06609249549060200160405180910390a350505050565b6001600160a01b038116600090815260056020526040812054815b81811015610a3c576001600160a01b0384166000908152600560205260408120805483908110610a0757610a07611db4565b90600052602060002001549050610a1e8582611106565b610a289085611c92565b93505080610a3590611d6d565b90506109d5565b5050919050565b33600090815260056020908152604080832080548251818502810185019093528083529192909190830182828015610a9a57602002820191906000526020600020905b815481526020019060010190808311610a86575b505083519394506000925050505b81811015610aeb576000838281518110610ac457610ac4611db4565b60200260200101519050610ada81600019610d01565b50610ae481611d6d565b9050610aa8565b505050565b6001600160a01b038116600090815260056020908152604091829020805483518184028101840190945280845260609392830182828015610b5057602002820191906000526020600020905b815481526020019060010190808311610b3c575b50505050509050919050565b33600090815260056020908152604080832080548251818502810185019093528083529192909190830182828015610bb357602002820191906000526020600020905b815481526020019060010190808311610b9f575b505083519394506000925050505b81811015610aeb576000838281518110610bdd57610bdd611db4565b60200260200101519050610bf381600019610d5f565b50610bfd81611d6d565b9050610bc1565b6108bb620151806007611ccc565b33600090815260056020908152604080832080548251818502810185019093528083529192909190830182828015610c6957602002820191906000526020600020905b815481526020019060010190808311610c55575b505083519394506000925050505b81811015610aeb576000838281518110610c9357610c93611db4565b60200260200101519050610ca6816108be565b50610cb081611d6d565b9050610c77565b610cc5620151806007611ccc565b6108bb906002611ccc565b60056020528160005260406000208181548110610cec57600080fd5b90600052602060002001600091509150505481565b610d0b8282610d5f565b610d14826108be565b5050565b8015610d5357610d536001600160a01b037f000000000000000000000000000000000000000000000000000000000000000016333084611448565b610d5c81611486565b50565b33600090815260046020908152604080832085845290915290206002810154815480610dd25760405162461bcd60e51b815260206004820152601860248201527f506f736974696f6e20646f6573206e6f7420657869737473000000000000000060448201526064015b60405180910390fd5b80841115610dde578093505b600081610df3670de0b6b3a764000087611ccc565b610dfd9190611caa565b9050670de0b6b3a7640000610e128285611ccc565b610e1c9190611caa565b92508260026000828254610e309190611d2a565b9091555050835485908590600090610e49908490611d2a565b9250508190555082846002016000828254610e649190611d2a565b9091555050600154610e8490670de0b6b3a7640000906108fb9086611ccc565b846003016000828254610e979190611ceb565b909155505060408051602081018252600081529051637921219560e11b81526001600160a01b037f0000000000000000000000000000000000000000000000000000000000000000169163f242432a91610efc91309133918c918c9190600401611b8f565b600060405180830381600087803b158015610f1657600080fd5b505af1158015610f2a573d6000803e3d6000fd5b505060408051898152602081018990523393507ff279e6a1f5e320cca91135676d9cb6e44ca8a08c0b88342bcdb1144f6511b56892500160405180910390a2505050505050565b6000610f7d3384611538565b90506000610f8b8484610513565b90508060026000828254610f9f9190611c92565b909155505060018201849055815483908390600090610fbf908490611c92565b9250508190555080826002016000828254610fda9190611c92565b9091555050600154610ffa90670de0b6b3a7640000906108fb9084611ccc565b82600301600082825461100d9190611c51565b909155505060408051602081018252600081529051637921219560e11b81526001600160a01b037f0000000000000000000000000000000000000000000000000000000000000000169163f242432a9161107291339130918a918a9190600401611b8f565b600060405180830381600087803b15801561108c57600080fd5b505af11580156110a0573d6000803e3d6000fd5b505060408051848152602081018890529081018690523392507f36af321ec8d3c75236829c5317affd40ddb308863a1236d2d277a4025cccee1e915060600160405180910390a250505050565b6110fb62015180601e611ccc565b6108bb906003611ccc565b6001600160a01b038216600090815260046020908152604080832084845290915281206003810154600154600283015461115c929161115291670de0b6b3a7640000916108fb91611ccc565b6109219190611ceb565b949350505050565b60006001600160ff1b038211156111ce5760405162461bcd60e51b815260206004820152602860248201527f53616665436173743a2076616c756520646f65736e27742066697420696e2061604482015267371034b73a191a9b60c11b6064820152608401610dc9565b5090565b6000808212156111ce5760405162461bcd60e51b815260206004820181905260248201527f53616665436173743a2076616c7565206d75737420626520706f7369746976656044820152606401610dc9565b6001600160a01b03821660008181526006602090815260408083208584528252808320549383526005909152902080548391908390811061126757611267611db4565b9060005260206000200154146112b15760405162461bcd60e51b815260206004820152600f60248201526e746f6b656e4964202165786973747360881b6044820152606401610dc9565b6001600160a01b0383166000908152600560205260408120546112d690600190611d2a565b905080821461137f576001600160a01b038416600090815260056020526040812080548390811061130957611309611db4565b906000526020600020015490508060056000876001600160a01b03166001600160a01b03168152602001908152602001600020848154811061134d5761134d611db4565b60009182526020808320909101929092556001600160a01b038716815260068252604080822093825292909152208290555b6001600160a01b03841660009081526005602052604090208054806113a6576113a6611d9e565b6000828152602080822083016000199081018390559092019092556001600160a01b039095168152600685526040808220948252939094525050812055565b6040516001600160a01b038316602482015260448101829052610aeb90849063a9059cbb60e01b906064015b60408051601f198184030181529190526020810180516001600160e01b03166001600160e01b03199093169290921790915261160e565b6040516001600160a01b03808516602483015283166044820152606481018290526114809085906323b872dd60e01b90608401611411565b50505050565b60025480156114df5760006003548361149f9190611c92565b9050816114b4670de0b6b3a764000083611ccc565b6114be9190611caa565b600160008282546114cf9190611c92565b90915550506000600355506114f7565b81600360008282546114f19190611c92565b90915550505b6001546040805183815260208101929092527fa28c80ccb32d654cc1348628c4d98f22ace56533089b2e0f72d46b6f9fb41de8910160405180910390a15050565b6001600160a01b038216600081815260046020908152604080832085845282528083208484526006835281842086855283528184205494845260059092529091205490919015806115bf57506001600160a01b03841660009081526005602052604090208054849190839081106115b1576115b1611db4565b906000526020600020015414155b15611607576001600160a01b03841660009081526005602081815260408084208054600684528286208987528452918520829055928252600181018355918352909120018390555b5092915050565b6000611663826040518060400160405280602081526020017f5361666545524332303a206c6f772d6c6576656c2063616c6c206661696c6564815250856001600160a01b03166116e09092919063ffffffff16565b805190915015610aeb57808060200190518101906116819190611ac0565b610aeb5760405162461bcd60e51b815260206004820152602a60248201527f5361666545524332303a204552433230206f7065726174696f6e20646964206e6044820152691bdd081cdd58d8d9595960b21b6064820152608401610dc9565b60606116ef84846000856116f9565b90505b9392505050565b60608247101561175a5760405162461bcd60e51b815260206004820152602660248201527f416464726573733a20696e73756666696369656e742062616c616e636520666f6044820152651c8818d85b1b60d21b6064820152608401610dc9565b843b6117a85760405162461bcd60e51b815260206004820152601d60248201527f416464726573733a2063616c6c20746f206e6f6e2d636f6e74726163740000006044820152606401610dc9565b600080866001600160a01b031685876040516117c49190611b73565b60006040518083038185875af1925050503d8060008114611801576040519150601f19603f3d011682016040523d82523d6000602084013e611806565b606091505b5091509150611816828286611821565b979650505050505050565b606083156118305750816116f2565b8251156118405782518084602001fd5b8160405162461bcd60e51b8152600401610dc99190611c0d565b80356001600160a01b038116811461187157600080fd5b919050565b600082601f83011261188757600080fd5b8135602067ffffffffffffffff8211156118a3576118a3611dca565b8160051b6118b2828201611c20565b8381528281019086840183880185018910156118cd57600080fd5b600093505b858410156118f05780358352600193909301929184019184016118d2565b50979650505050505050565b600082601f83011261190d57600080fd5b813567ffffffffffffffff81111561192757611927611dca565b61193a601f8201601f1916602001611c20565b81815284602083860101111561194f57600080fd5b816020850160208301376000918101602001919091529392505050565b60006020828403121561197e57600080fd5b6116f28261185a565b600080600080600060a0868803121561199f57600080fd5b6119a88661185a565b94506119b66020870161185a565b9350604086013567ffffffffffffffff808211156119d357600080fd5b6119df89838a01611876565b945060608801359150808211156119f557600080fd5b611a0189838a01611876565b93506080880135915080821115611a1757600080fd5b50611a24888289016118fc565b9150509295509295909350565b600080600080600060a08688031215611a4957600080fd5b611a528661185a565b9450611a606020870161185a565b93506040860135925060608601359150608086013567ffffffffffffffff811115611a8a57600080fd5b611a24888289016118fc565b60008060408385031215611aa957600080fd5b611ab28361185a565b946020939093013593505050565b600060208284031215611ad257600080fd5b815180151581146116f257600080fd5b600060208284031215611af457600080fd5b81356001600160e01b0319811681146116f257600080fd5b600060208284031215611b1e57600080fd5b5035919050565b60008060408385031215611b3857600080fd5b50508035926020909101359150565b60008151808452611b5f816020860160208601611d41565b601f01601f19169290920160200192915050565b60008251611b85818460208701611d41565b9190910192915050565b6001600160a01b03868116825285166020820152604081018490526060810183905260a06080820181905260009061181690830184611b47565b6020808252825182820181905260009190848201906040850190845b81811015611c0157835183529284019291840191600101611be5565b50909695505050505050565b6020815260006116f26020830184611b47565b604051601f8201601f1916810167ffffffffffffffff81118282101715611c4957611c49611dca565b604052919050565b600080821280156001600160ff1b0384900385131615611c7357611c73611d88565b600160ff1b8390038412811615611c8c57611c8c611d88565b50500190565b60008219821115611ca557611ca5611d88565b500190565b600082611cc757634e487b7160e01b600052601260045260246000fd5b500490565b6000816000190483118215151615611ce657611ce6611d88565b500290565b60008083128015600160ff1b850184121615611d0957611d09611d88565b6001600160ff1b0384018313811615611d2457611d24611d88565b50500390565b600082821015611d3c57611d3c611d88565b500390565b60005b83811015611d5c578181015183820152602001611d44565b838111156114805750506000910152565b6000600019821415611d8157611d81611d88565b5060010190565b634e487b7160e01b600052601160045260246000fd5b634e487b7160e01b600052603160045260246000fd5b634e487b7160e01b600052603260045260246000fd5b634e487b7160e01b600052604160045260246000fdfea2646970667358221220cec7b62a61cea2e4ff760713a9ee849f0fa055cbcb40d58efecab666d94a346c64736f6c63430008070033",
  "devdoc": {
    "kind": "dev",
    "methods": {
      "supportsInterface(bytes4)": {
        "details": "See {IERC165-supportsInterface}."
      }
    },
    "version": 1
  },
  "userdoc": {
    "kind": "user",
    "methods": {
      "allUserTokenIds(address,uint256)": {
        "notice": "user => tokenId[]"
      },
      "userInfo(address,uint256)": {
        "notice": "user => tokenId => UserInfo"
      }
    },
    "version": 1
  },
  "storageLayout": {
    "storage": [
      {
        "astId": 8236,
        "contract": "contracts/TreasuryStake.sol:TreasuryStake",
        "label": "totalRewardsEarned",
        "offset": 0,
        "slot": "0",
        "type": "t_uint256"
      },
      {
        "astId": 8238,
        "contract": "contracts/TreasuryStake.sol:TreasuryStake",
        "label": "accMagicPerShare",
        "offset": 0,
        "slot": "1",
        "type": "t_uint256"
      },
      {
        "astId": 8240,
        "contract": "contracts/TreasuryStake.sol:TreasuryStake",
        "label": "totalLpToken",
        "offset": 0,
        "slot": "2",
        "type": "t_uint256"
      },
      {
        "astId": 8242,
        "contract": "contracts/TreasuryStake.sol:TreasuryStake",
        "label": "undistributedRewards",
        "offset": 0,
        "slot": "3",
        "type": "t_uint256"
      },
      {
        "astId": 8259,
        "contract": "contracts/TreasuryStake.sol:TreasuryStake",
        "label": "userInfo",
        "offset": 0,
        "slot": "4",
        "type": "t_mapping(t_address,t_mapping(t_uint256,t_struct(UserInfo)8251_storage))"
      },
      {
        "astId": 8265,
        "contract": "contracts/TreasuryStake.sol:TreasuryStake",
        "label": "allUserTokenIds",
        "offset": 0,
        "slot": "5",
        "type": "t_mapping(t_address,t_array(t_uint256)dyn_storage)"
      },
      {
        "astId": 8271,
        "contract": "contracts/TreasuryStake.sol:TreasuryStake",
        "label": "tokenIdIndex",
        "offset": 0,
        "slot": "6",
        "type": "t_mapping(t_address,t_mapping(t_uint256,t_uint256))"
      }
    ],
    "types": {
      "t_address": {
        "encoding": "inplace",
        "label": "address",
        "numberOfBytes": "20"
      },
      "t_array(t_uint256)dyn_storage": {
        "base": "t_uint256",
        "encoding": "dynamic_array",
        "label": "uint256[]",
        "numberOfBytes": "32"
      },
      "t_int256": {
        "encoding": "inplace",
        "label": "int256",
        "numberOfBytes": "32"
      },
      "t_mapping(t_address,t_array(t_uint256)dyn_storage)": {
        "encoding": "mapping",
        "key": "t_address",
        "label": "mapping(address => uint256[])",
        "numberOfBytes": "32",
        "value": "t_array(t_uint256)dyn_storage"
      },
      "t_mapping(t_address,t_mapping(t_uint256,t_struct(UserInfo)8251_storage))": {
        "encoding": "mapping",
        "key": "t_address",
        "label": "mapping(address => mapping(uint256 => struct TreasuryStake.UserInfo))",
        "numberOfBytes": "32",
        "value": "t_mapping(t_uint256,t_struct(UserInfo)8251_storage)"
      },
      "t_mapping(t_address,t_mapping(t_uint256,t_uint256))": {
        "encoding": "mapping",
        "key": "t_address",
        "label": "mapping(address => mapping(uint256 => uint256))",
        "numberOfBytes": "32",
        "value": "t_mapping(t_uint256,t_uint256)"
      },
      "t_mapping(t_uint256,t_struct(UserInfo)8251_storage)": {
        "encoding": "mapping",
        "key": "t_uint256",
        "label": "mapping(uint256 => struct TreasuryStake.UserInfo)",
        "numberOfBytes": "32",
        "value": "t_struct(UserInfo)8251_storage"
      },
      "t_mapping(t_uint256,t_uint256)": {
        "encoding": "mapping",
        "key": "t_uint256",
        "label": "mapping(uint256 => uint256)",
        "numberOfBytes": "32",
        "value": "t_uint256"
      },
      "t_struct(UserInfo)8251_storage": {
        "encoding": "inplace",
        "label": "struct TreasuryStake.UserInfo",
        "members": [
          {
            "astId": 8244,
            "contract": "contracts/TreasuryStake.sol:TreasuryStake",
            "label": "depositAmount",
            "offset": 0,
            "slot": "0",
            "type": "t_uint256"
          },
          {
            "astId": 8246,
            "contract": "contracts/TreasuryStake.sol:TreasuryStake",
            "label": "tokenId",
            "offset": 0,
            "slot": "1",
            "type": "t_uint256"
          },
          {
            "astId": 8248,
            "contract": "contracts/TreasuryStake.sol:TreasuryStake",
            "label": "lpAmount",
            "offset": 0,
            "slot": "2",
            "type": "t_uint256"
          },
          {
            "astId": 8250,
            "contract": "contracts/TreasuryStake.sol:TreasuryStake",
            "label": "rewardDebt",
            "offset": 0,
            "slot": "3",
            "type": "t_int256"
          }
        ],
        "numberOfBytes": "128"
      },
      "t_uint256": {
        "encoding": "inplace",
        "label": "uint256",
        "numberOfBytes": "32"
      }
    }
  }
}