{
  "address": "0x6F717Fdf9cf759BE0d6D395e9517473798beBf1b",
  "abi": [
    {
      "inputs": [
        {
          "internalType": "address",
          "name": "_magic",
          "type": "address"
        },
        {
          "internalType": "address",
          "name": "_treasuryStake",
          "type": "address"
        },
        {
          "internalType": "address",
          "name": "_owner",
          "type": "address"
        }
      ],
      "stateMutability": "nonpayable",
      "type": "constructor"
    },
    {
      "anonymous": false,
      "inputs": [
        {
          "indexed": true,
          "internalType": "address",
          "name": "user",
          "type": "address"
        },
        {
          "indexed": true,
          "internalType": "uint256",
          "name": "index",
          "type": "uint256"
        },
        {
          "indexed": false,
          "internalType": "uint256",
          "name": "amount",
          "type": "uint256"
        }
      ],
      "name": "Deposit",
      "type": "event"
    },
    {
      "anonymous": false,
      "inputs": [
        {
          "indexed": true,
          "internalType": "address",
          "name": "to",
          "type": "address"
        },
        {
          "indexed": false,
          "internalType": "uint256",
          "name": "amount",
          "type": "uint256"
        }
      ],
      "name": "EmergencyWithdraw",
      "type": "event"
    },
    {
      "anonymous": false,
      "inputs": [
        {
          "indexed": true,
          "internalType": "address",
          "name": "user",
          "type": "address"
        },
        {
          "indexed": true,
          "internalType": "uint256",
          "name": "index",
          "type": "uint256"
        },
        {
          "indexed": false,
          "internalType": "uint256",
          "name": "amount",
          "type": "uint256"
        }
      ],
      "name": "Harvest",
      "type": "event"
    },
    {
      "anonymous": false,
      "inputs": [
        {
          "indexed": true,
          "internalType": "uint256",
          "name": "lastRewardTimestamp",
          "type": "uint256"
        },
        {
          "indexed": false,
          "internalType": "uint256",
          "name": "lpSupply",
          "type": "uint256"
        },
        {
          "indexed": false,
          "internalType": "uint256",
          "name": "accMagicPerShare",
          "type": "uint256"
        }
      ],
      "name": "LogUpdateRewards",
      "type": "event"
    },
    {
      "anonymous": false,
      "inputs": [
        {
          "indexed": true,
          "internalType": "address",
          "name": "previousOwner",
          "type": "address"
        },
        {
          "indexed": true,
          "internalType": "address",
          "name": "newOwner",
          "type": "address"
        }
      ],
      "name": "OwnershipTransferred",
      "type": "event"
    },
    {
      "anonymous": false,
      "inputs": [
        {
          "indexed": true,
          "internalType": "address",
          "name": "user",
          "type": "address"
        },
        {
          "indexed": true,
          "internalType": "uint256",
          "name": "index",
          "type": "uint256"
        },
        {
          "indexed": false,
          "internalType": "uint256",
          "name": "amount",
          "type": "uint256"
        }
      ],
      "name": "Withdraw",
      "type": "event"
    },
    {
      "inputs": [],
      "name": "DAY",
      "outputs": [
        {
          "internalType": "uint256",
          "name": "",
          "type": "uint256"
        }
      ],
      "stateMutability": "view",
      "type": "function"
    },
    {
      "inputs": [],
      "name": "LIFECYCLE",
      "outputs": [
        {
          "internalType": "uint256",
          "name": "",
          "type": "uint256"
        }
      ],
      "stateMutability": "view",
      "type": "function"
    },
    {
      "inputs": [],
      "name": "ONE",
      "outputs": [
        {
          "internalType": "uint256",
          "name": "",
          "type": "uint256"
        }
      ],
      "stateMutability": "view",
      "type": "function"
    },
    {
      "inputs": [],
      "name": "ONE_MONTH",
      "outputs": [
        {
          "internalType": "uint256",
          "name": "",
          "type": "uint256"
        }
      ],
      "stateMutability": "view",
      "type": "function"
    },
    {
      "inputs": [],
      "name": "ONE_WEEK",
      "outputs": [
        {
          "internalType": "uint256",
          "name": "",
          "type": "uint256"
        }
      ],
      "stateMutability": "view",
      "type": "function"
    },
    {
      "inputs": [],
      "name": "THREE_MONTHS",
      "outputs": [
        {
          "internalType": "uint256",
          "name": "",
          "type": "uint256"
        }
      ],
      "stateMutability": "view",
      "type": "function"
    },
    {
      "inputs": [],
      "name": "TWO_WEEKS",
      "outputs": [
        {
          "internalType": "uint256",
          "name": "",
          "type": "uint256"
        }
      ],
      "stateMutability": "view",
      "type": "function"
    },
    {
      "inputs": [],
      "name": "accMagicPerShare",
      "outputs": [
        {
          "internalType": "uint256",
          "name": "",
          "type": "uint256"
        }
      ],
      "stateMutability": "view",
      "type": "function"
    },
    {
      "inputs": [
        {
          "internalType": "address",
          "name": "exclude",
          "type": "address"
        }
      ],
      "name": "addExcludedAddress",
      "outputs": [],
      "stateMutability": "nonpayable",
      "type": "function"
    },
    {
      "inputs": [
        {
          "internalType": "address",
          "name": "",
          "type": "address"
        },
        {
          "internalType": "uint256",
          "name": "",
          "type": "uint256"
        }
      ],
      "name": "allUserDepositIds",
      "outputs": [
        {
          "internalType": "uint256",
          "name": "",
          "type": "uint256"
        }
      ],
      "stateMutability": "view",
      "type": "function"
    },
    {
      "inputs": [],
      "name": "burnLeftovers",
      "outputs": [],
      "stateMutability": "nonpayable",
      "type": "function"
    },
    {
      "inputs": [
        {
          "internalType": "address",
          "name": "",
          "type": "address"
        }
      ],
      "name": "currentId",
      "outputs": [
        {
          "internalType": "uint256",
          "name": "",
          "type": "uint256"
        }
      ],
      "stateMutability": "view",
      "type": "function"
    },
    {
      "inputs": [
        {
          "internalType": "uint256",
          "name": "_amount",
          "type": "uint256"
        },
        {
          "internalType": "enum TreasuryMine.Lock",
          "name": "_lock",
          "type": "uint8"
        }
      ],
      "name": "deposit",
      "outputs": [],
      "stateMutability": "nonpayable",
      "type": "function"
    },
    {
      "inputs": [
        {
          "internalType": "address",
          "name": "",
          "type": "address"
        },
        {
          "internalType": "uint256",
          "name": "",
          "type": "uint256"
        }
      ],
      "name": "depositIdIndex",
      "outputs": [
        {
          "internalType": "uint256",
          "name": "",
          "type": "uint256"
        }
      ],
      "stateMutability": "view",
      "type": "function"
    },
    {
      "inputs": [],
      "name": "endTimestamp",
      "outputs": [
        {
          "internalType": "uint256",
          "name": "",
          "type": "uint256"
        }
      ],
      "stateMutability": "view",
      "type": "function"
    },
    {
      "inputs": [
        {
          "internalType": "uint256",
          "name": "",
          "type": "uint256"
        }
      ],
      "name": "excludedAddresses",
      "outputs": [
        {
          "internalType": "address",
          "name": "",
          "type": "address"
        }
      ],
      "stateMutability": "view",
      "type": "function"
    },
    {
      "inputs": [
        {
          "internalType": "address",
          "name": "_user",
          "type": "address"
        }
      ],
      "name": "getAllUserDepositIds",
      "outputs": [
        {
          "internalType": "uint256[]",
          "name": "",
          "type": "uint256[]"
        }
      ],
      "stateMutability": "view",
      "type": "function"
    },
    {
      "inputs": [
        {
          "internalType": "enum TreasuryMine.Lock",
          "name": "_lock",
          "type": "uint8"
        }
      ],
      "name": "getBoost",
      "outputs": [
        {
          "internalType": "uint256",
          "name": "boost",
          "type": "uint256"
        },
        {
          "internalType": "uint256",
          "name": "timelock",
          "type": "uint256"
        }
      ],
      "stateMutability": "pure",
      "type": "function"
    },
    {
      "inputs": [],
      "name": "getExcludedAddresses",
      "outputs": [
        {
          "internalType": "address[]",
          "name": "",
          "type": "address[]"
        }
      ],
      "stateMutability": "view",
      "type": "function"
    },
    {
      "inputs": [],
      "name": "harvestAll",
      "outputs": [],
      "stateMutability": "nonpayable",
      "type": "function"
    },
    {
      "inputs": [
        {
          "internalType": "uint256",
          "name": "_depositId",
          "type": "uint256"
        }
      ],
      "name": "harvestPosition",
      "outputs": [],
      "stateMutability": "nonpayable",
      "type": "function"
    },
    {
      "inputs": [],
      "name": "init",
      "outputs": [],
      "stateMutability": "nonpayable",
      "type": "function"
    },
    {
      "inputs": [],
      "name": "isInitialized",
      "outputs": [
        {
          "internalType": "bool",
          "name": "",
          "type": "bool"
        }
      ],
      "stateMutability": "view",
      "type": "function"
    },
    {
      "inputs": [],
      "name": "kill",
      "outputs": [],
      "stateMutability": "nonpayable",
      "type": "function"
    },
    {
      "inputs": [],
      "name": "lastRewardTimestamp",
      "outputs": [
        {
          "internalType": "uint256",
          "name": "",
          "type": "uint256"
        }
      ],
      "stateMutability": "view",
      "type": "function"
    },
    {
      "inputs": [],
      "name": "magic",
      "outputs": [
        {
          "internalType": "contract ERC20",
          "name": "",
          "type": "address"
        }
      ],
      "stateMutability": "view",
      "type": "function"
    },
    {
      "inputs": [],
      "name": "magicPerSecond",
      "outputs": [
        {
          "internalType": "uint256",
          "name": "",
          "type": "uint256"
        }
      ],
      "stateMutability": "view",
      "type": "function"
    },
    {
      "inputs": [],
      "name": "magicTotalDeposits",
      "outputs": [
        {
          "internalType": "uint256",
          "name": "",
          "type": "uint256"
        }
      ],
      "stateMutability": "view",
      "type": "function"
    },
    {
      "inputs": [],
      "name": "maxMagicPerSecond",
      "outputs": [
        {
          "internalType": "uint256",
          "name": "",
          "type": "uint256"
        }
      ],
      "stateMutability": "view",
      "type": "function"
    },
    {
      "inputs": [],
      "name": "owner",
      "outputs": [
        {
          "internalType": "address",
          "name": "",
          "type": "address"
        }
      ],
      "stateMutability": "view",
      "type": "function"
    },
    {
      "inputs": [
        {
          "internalType": "address",
          "name": "_user",
          "type": "address"
        }
      ],
      "name": "pendingRewardsAll",
      "outputs": [
        {
          "internalType": "uint256",
          "name": "pending",
          "type": "uint256"
        }
      ],
      "stateMutability": "view",
      "type": "function"
    },
    {
      "inputs": [
        {
          "internalType": "address",
          "name": "_user",
          "type": "address"
        },
        {
          "internalType": "uint256",
          "name": "_depositId",
          "type": "uint256"
        }
      ],
      "name": "pendingRewardsPosition",
      "outputs": [
        {
          "internalType": "uint256",
          "name": "pending",
          "type": "uint256"
        }
      ],
      "stateMutability": "view",
      "type": "function"
    },
    {
      "inputs": [
        {
          "internalType": "address",
          "name": "include",
          "type": "address"
        }
      ],
      "name": "removeExcludedAddress",
      "outputs": [],
      "stateMutability": "nonpayable",
      "type": "function"
    },
    {
      "inputs": [],
      "name": "renounceOwnership",
      "outputs": [],
      "stateMutability": "nonpayable",
      "type": "function"
    },
    {
      "inputs": [],
      "name": "totalLpToken",
      "outputs": [
        {
          "internalType": "uint256",
          "name": "",
          "type": "uint256"
        }
      ],
      "stateMutability": "view",
      "type": "function"
    },
    {
      "inputs": [],
      "name": "totalRewardsEarned",
      "outputs": [
        {
          "internalType": "uint256",
          "name": "",
          "type": "uint256"
        }
      ],
      "stateMutability": "view",
      "type": "function"
    },
    {
      "inputs": [
        {
          "internalType": "address",
          "name": "newOwner",
          "type": "address"
        }
      ],
      "name": "transferOwnership",
      "outputs": [],
      "stateMutability": "nonpayable",
      "type": "function"
    },
    {
      "inputs": [],
      "name": "treasuryStake",
      "outputs": [
        {
          "internalType": "address",
          "name": "",
          "type": "address"
        }
      ],
      "stateMutability": "view",
      "type": "function"
    },
    {
      "inputs": [],
      "name": "unlockAll",
      "outputs": [
        {
          "internalType": "bool",
          "name": "",
          "type": "bool"
        }
      ],
      "stateMutability": "view",
      "type": "function"
    },
    {
      "inputs": [
        {
          "internalType": "address",
          "name": "",
          "type": "address"
        },
        {
          "internalType": "uint256",
          "name": "",
          "type": "uint256"
        }
      ],
      "name": "userInfo",
      "outputs": [
        {
          "internalType": "uint256",
          "name": "depositAmount",
          "type": "uint256"
        },
        {
          "internalType": "uint256",
          "name": "lpAmount",
          "type": "uint256"
        },
        {
          "internalType": "uint256",
          "name": "lockedUntil",
          "type": "uint256"
        },
        {
          "internalType": "int256",
          "name": "rewardDebt",
          "type": "int256"
        },
        {
          "internalType": "enum TreasuryMine.Lock",
          "name": "lock",
          "type": "uint8"
        }
      ],
      "stateMutability": "view",
      "type": "function"
    },
    {
      "inputs": [],
      "name": "utilization",
      "outputs": [
        {
          "internalType": "uint256",
          "name": "util",
          "type": "uint256"
        }
      ],
      "stateMutability": "view",
      "type": "function"
    },
    {
      "inputs": [],
      "name": "withdrawAll",
      "outputs": [],
      "stateMutability": "nonpayable",
      "type": "function"
    },
    {
      "inputs": [],
      "name": "withdrawAndHarvestAll",
      "outputs": [],
      "stateMutability": "nonpayable",
      "type": "function"
    },
    {
      "inputs": [
        {
          "internalType": "uint256",
          "name": "_depositId",
          "type": "uint256"
        },
        {
          "internalType": "uint256",
          "name": "_amount",
          "type": "uint256"
        }
      ],
      "name": "withdrawAndHarvestPosition",
      "outputs": [],
      "stateMutability": "nonpayable",
      "type": "function"
    },
    {
      "inputs": [
        {
          "internalType": "uint256",
          "name": "_depositId",
          "type": "uint256"
        },
        {
          "internalType": "uint256",
          "name": "_amount",
          "type": "uint256"
        }
      ],
      "name": "withdrawPosition",
      "outputs": [],
      "stateMutability": "nonpayable",
      "type": "function"
    }
  ],
  "transactionHash": "0x61fb009674ff438fe601ed2afe0ed092ffdeb06297ce042bf231778719682f99",
  "args": [
    "0xfab95915359bdCa523c0EFe55e73B30b77897e1f",
    "0x79C94d3ee9746944C5B958fD84b8EB46665aDc0B",
    "0x393248aE29A7C2128E8E27d23330b1F87E0600fc"
  ],
  "solcInputHash": "b3935d23b502b19e524270344128b062",
  "bytecode": "0x60c06040523480156200001157600080fd5b50604051620035ae380380620035ae8339810160408190526200003491620001af565b6200003f336200006d565b6001600160601b0319606084811b821660805283901b1660a0526200006481620000bd565b505050620001f9565b600080546001600160a01b038381166001600160a01b0319831681178455604051919092169283917f8be0079c531659141344cd1fd0a4f28419497f9722a3daafe3b4186f6b6457e09190a35050565b6000546001600160a01b031633146200011d5760405162461bcd60e51b815260206004820181905260248201527f4f776e61626c653a2063616c6c6572206973206e6f7420746865206f776e657260448201526064015b60405180910390fd5b6001600160a01b038116620001845760405162461bcd60e51b815260206004820152602660248201527f4f776e61626c653a206e6577206f776e657220697320746865207a65726f206160448201526564647265737360d01b606482015260840162000114565b6200018f816200006d565b50565b80516001600160a01b0381168114620001aa57600080fd5b919050565b600080600060608486031215620001c557600080fd5b620001d08462000192565b9250620001e06020850162000192565b9150620001f06040850162000192565b90509250925092565b60805160601c60a05160601c61333562000279600039600081816104f2015281816127a401526128660152600081816102b60152818161090901528181610cc60152818161132001528181611f0a0152818161214f0152818161221401528181612355015281816123f7015281816124fd01526127d301526133356000f3fe608060405234801561001057600080fd5b506004361061027f5760003560e01c80638ed955b91161015c578063d82b99d7116100ce578063ecbefab711610087578063ecbefab714610575578063f091ba2a14610585578063f15576a614610598578063f2fde38b146105a1578063f8077fae146105b4578063fd90904c146105bd57600080fd5b8063d82b99d714610549578063dbb556291461055c578063e11398e814610565578063e1c7392a1461056d578063e8622e6714610575578063ea21cd921461057d57600080fd5b8063a9b54bcd11610120578063a9b54bcd146104da578063b958dd19146104ed578063bc168ecb14610514578063c2ee3a081461051d578063cd24b0a31461052c578063d0d1daf41461054057600080fd5b80638ed955b91461049b578063934d1fa4146104a3578063a646c35d146104ab578063a7e69fb4146104be578063a85adeab146104d157600080fd5b806341c0e1b5116101f5578063654cfdff116101b9578063654cfdff14610457578063715018a61461046a5780637350385714610472578063853828b61461047a5780638da5cb5b146104825780638e6f6b771461049357600080fd5b806341c0e1b5146103f35780634ebdd340146103fb57806359fe213b146104265780635fdf199a14610439578063620572071461044e57600080fd5b806321ce919d1161024757806321ce919d1461033b5780632299b8fa1461039757806327cfe856146103b75780632f4c4678146103c1578063344a15c5146103d4578063392e53cd146103dd57600080fd5b80630a4a3c9f146102845780630d854646146102b15780630dd4117a146102f057806320988cef1461031057806320f8e94e14610326575b600080fd5b610297610292366004612fa2565b6105d0565b604080519283526020830191909152015b60405180910390f35b6102d87f000000000000000000000000000000000000000000000000000000000000000081565b6040516001600160a01b0390911681526020016102a8565b6103036102fe366004612f3b565b6106c6565b6040516102a891906130a6565b610318610732565b6040519081526020016102a8565b610339610334366004612fbd565b610743565b005b610386610349366004612f56565b600a602090815260009283526040808420909152908252902080546001820154600283015460038401546004909401549293919290919060ff1685565b6040516102a8959493929190613146565b6103186103a5366004612f3b565b600d6020526000908152604090205481565b6103186201518081565b6102d86103cf366004612fbd565b610a2f565b61031860035481565b60015415155b60405190151581526020016102a8565b610339610a59565b610318610409366004612f56565b600c60209081526000928352604080842090915290825290205481565b610318610434366004612f3b565b610e1a565b610441610ea3565b6040516102a89190613059565b61031860055481565b610339610465366004612fef565b610f05565b61033961144c565b610339611482565b61033961152a565b6000546001600160a01b03166102d8565b6103186115d2565b6103396115e0565b610318611685565b6103396104b9366004612f3b565b61169e565b6103396104cc36600461301b565b6119d0565b61031860015481565b6103396104e8366004612f3b565b6119e3565b6102d87f000000000000000000000000000000000000000000000000000000000000000081565b61031860065481565b610318670de0b6b3a764000081565b6000546103e390600160a01b900460ff1681565b61031860075481565b61033961055736600461301b565b611c13565b61031860025481565b610339611f76565b610339612182565b610318612337565b610318612350565b610318610593366004612f56565b6125bf565b61031860045481565b6103396105af366004612f3b565b6125f0565b61031860085481565b6103186105cb366004612f56565b612688565b600080808360028111156105e6576105e661329d565b1415610617576702c68af0bb1400006106036201518060076131cb565b61060e9060026131cb565b91509150915091565b600183600281111561062b5761062b61329d565b1415610648576706f05b59d3b2000061060e62015180601e6131cb565b600283600281111561065c5761065c61329d565b141561068457671bc16d674ec8000061067962015180601e6131cb565b61060e9060036131cb565b60405162461bcd60e51b8152602060048201526012602482015271496e76616c6964206c6f636b2076616c756560701b60448201526064015b60405180910390fd5b6001600160a01b0381166000908152600b602090815260409182902080548351818402810184019094528084526060939283018282801561072657602002820191906000526020600020905b815481526020019060010190808311610712575b50505050509050919050565b61074062015180601e6131cb565b81565b600854421180156107575750600154600854105b8015610764575060015415155b1561086457600654801561083457600060015442111561079b5760085460015461078e9190613229565b60015460085590506107af565b6008546107a89042613229565b4260085590505b6000600354826107bf91906131cb565b905060006107ce600a836131a9565b90506107d98161278d565b6107e38183613229565b915081600460008282546107f79190613191565b90915550849050610810670de0b6b3a7640000846131cb565b61081a91906131a9565b6005600082825461082b9190613191565b90915550505050505b6008546005546040805184815260208101929092526000805160206132e0833981519152910160405180910390a2505b336000908152600a60209081526040808320848452909152812060055460018201549192916108b091670de0b6b3a7640000916108a191906131cb565b6108ab91906131a9565b6128cd565b905060006108cc8360030154836108c791906131ea565b61293b565b6003840183905583549091501580156108e757506001830154155b156108f6576108f6338561298d565b8015610930576109306001600160a01b037f0000000000000000000000000000000000000000000000000000000000000000163383612b50565b604051818152849033907f71bab65ced2e5750775a0613be067df48ef06cf92a496ebf7663ae06609249549060200160405180910390a35050506000610974612350565b90506702c68af0bb14000081101561098f5760006003555050565b670429d069189e00008110156109c157600a60025460056109b091906131cb565b6109ba91906131a9565b6003555050565b67058d15e1762800008110156109e257600a60025460066109b091906131cb565b6706f05b59d3b20000811015610a0357600a60025460086109b091906131cb565b670853a0d2313c0000811015610a2457600a60025460096109b091906131cb565b6002546003555b5050565b60098181548110610a3f57600080fd5b6000918252602090912001546001600160a01b0316905081565b6000546001600160a01b03163314610a835760405162461bcd60e51b81526004016106bd90613111565b60085442118015610a975750600154600854105b8015610aa4575060015415155b15610ba4576006548015610b74576000600154421115610adb57600854600154610ace9190613229565b6001546008559050610aef565b600854610ae89042613229565b4260085590505b600060035482610aff91906131cb565b90506000610b0e600a836131a9565b9050610b198161278d565b610b238183613229565b91508160046000828254610b379190613191565b90915550849050610b50670de0b6b3a7640000846131cb565b610b5a91906131a9565b60056000828254610b6b9190613191565b90915550505050505b6008546005546040805184815260208101929092526000805160206132e0833981519152910160405180910390a2505b600154421115610bf65760405162461bcd60e51b815260206004820152601760248201527f57696c6c206e6f74206b696c6c20616674657220656e6400000000000000000060448201526064016106bd565b600054600160a01b900460ff1615610c3f5760405162461bcd60e51b815260206004820152600c60248201526b105b1c9958591e481919585960a21b60448201526064016106bd565b6000610c5360096004546108ab91906131a9565b610c5e6004546128cd565b600254610c8890610c7362015180601e6131cb565b610c7e9060036131cb565b6108ab91906131cb565b610c9291906131ea565b610c9c91906131ea565b90506000811315610d3c57610ced610cbc6000546001600160a01b031690565b6001600160a01b037f0000000000000000000000000000000000000000000000000000000000000000169083612b50565b6000546001600160a01b03166001600160a01b03167f5fafa99d0643513820be26656b45130b01e1c03062e1266bf36f88cbd3bd969582604051610d3391815260200190565b60405180910390a25b50600060028190556003819055805460ff60a01b1916600160a01b178155610d62612350565b90506702c68af0bb140000811015610d7c57600060035550565b670429d069189e0000811015610dad57600a6002546005610d9d91906131cb565b610da791906131a9565b60035550565b67058d15e176280000811015610dce57600a6002546006610d9d91906131cb565b6706f05b59d3b20000811015610def57600a6002546008610d9d91906131cb565b670853a0d2313c0000811015610e1057600a6002546009610d9d91906131cb565b6002546003555b50565b6001600160a01b0381166000908152600b6020526040812054815b81811015610e9c576001600160a01b0384166000908152600b60205260408120805483908110610e6757610e676132c9565b90600052602060002001549050610e7e8582612688565b610e889085613191565b93505080610e959061326c565b9050610e35565b5050919050565b60606009805480602002602001604051908101604052809291908181526020018280548015610efb57602002820191906000526020600020905b81546001600160a01b03168152600190910190602001808311610edd575b5050505050905090565b60085442118015610f195750600154600854105b8015610f26575060015415155b15611026576006548015610ff6576000600154421115610f5d57600854600154610f509190613229565b6001546008559050610f71565b600854610f6a9042613229565b4260085590505b600060035482610f8191906131cb565b90506000610f90600a836131a9565b9050610f9b8161278d565b610fa58183613229565b91508160046000828254610fb99190613191565b90915550849050610fd2670de0b6b3a7640000846131cb565b610fdc91906131a9565b60056000828254610fed9190613191565b90915550505050505b6008546005546040805184815260208101929092526000805160206132e0833981519152910160405180910390a2505b6001546110675760405162461bcd60e51b815260206004820152600f60248201526e139bdd081a5b9a5d1a585b1a5e9959608a1b60448201526064016106bd565b600081600281111561107b5761107b61329d565b14156110fe57600154620151806110938160076131cb565b61109e9060026131cb565b6110a89042613191565b6110b29190613229565b11156110f95760405162461bcd60e51b815260206004820152601660248201527513195cdcc81d1a185b880c881dd9595adcc81b19599d60521b60448201526064016106bd565b611238565b60018160028111156111125761111261329d565b1415611192576001546111296201518060036131cb565b61113762015180601e6131cb565b6111419042613191565b61114b9190613229565b11156110f95760405162461bcd60e51b815260206004820152601660248201527513195cdcc81d1a185b880c481b5bdb9d1a081b19599d60521b60448201526064016106bd565b60028160028111156111a6576111a661329d565b1415610684576001546111bd6201518060076131cb565b6111cb62015180601e6131cb565b6111d69060036131cb565b6111e09042613191565b6111ea9190613229565b11156110f95760405162461bcd60e51b815260206004820152601760248201527f4c657373207468616e2033206d6f6e746873206c65667400000000000000000060448201526064016106bd565b60008061124433612bb3565b91509150600080611254856105d0565b90925090506000670de0b6b3a764000061126e84896131cb565b61127891906131a9565b6112829088613191565b905086600760008282546112969190613191565b9250508190555080600660008282546112af9190613191565b9091555050868555600185018190556112c88242613191565b60028601556005546112e890670de0b6b3a7640000906108a190846131cb565b600386015560048501805487919060ff1916600183600281111561130e5761130e61329d565b02179055506113486001600160a01b037f00000000000000000000000000000000000000000000000000000000000000001633308a612c36565b604051878152849033907f90890809c654f11d6e72a28fa60149770a0d11ec6c92319d6ceb2bb0a4ea1a159060200160405180910390a35050505050600061138e612350565b90506702c68af0bb1400008110156113aa576000600355505050565b670429d069189e00008110156113dd57600a60025460056113cb91906131cb565b6113d591906131a9565b600355505050565b67058d15e1762800008110156113fe57600a60025460066113cb91906131cb565b6706f05b59d3b2000081101561141f57600a60025460086113cb91906131cb565b670853a0d2313c000081101561144057600a60025460096113cb91906131cb565b6002546003555b505050565b6000546001600160a01b031633146114765760405162461bcd60e51b81526004016106bd90613111565b6114806000612c74565b565b336000908152600b60209081526040808320805482518185028101850190935280835291929091908301828280156114d957602002820191906000526020600020905b8154815260200190600101908083116114c5575b505083519394506000925050505b81811015611447576000838281518110611503576115036132c9565b60200260200101519050611519816000196119d0565b506115238161326c565b90506114e7565b336000908152600b602090815260408083208054825181850281018501909352808352919290919083018282801561158157602002820191906000526020600020905b81548152602001906001019080831161156d575b505083519394506000925050505b818110156114475760008382815181106115ab576115ab6132c9565b602002602001015190506115c181600019611c13565b506115cb8161326c565b905061158f565b6107406201518060076131cb565b336000908152600b602090815260408083208054825181850281018501909352808352919290919083018282801561163757602002820191906000526020600020905b815481526020019060010190808311611623575b505083519394506000925050505b81811015611447576000838281518110611661576116616132c9565b6020026020010151905061167481610743565b5061167e8161326c565b9050611645565b6116936201518060076131cb565b6107409060026131cb565b6000546001600160a01b031633146116c85760405162461bcd60e51b81526004016106bd90613111565b600854421180156116dc5750600154600854105b80156116e9575060015415155b156117e95760065480156117b9576000600154421115611720576008546001546117139190613229565b6001546008559050611734565b60085461172d9042613229565b4260085590505b60006003548261174491906131cb565b90506000611753600a836131a9565b905061175e8161278d565b6117688183613229565b9150816004600082825461177c9190613191565b90915550849050611795670de0b6b3a7640000846131cb565b61179f91906131a9565b600560008282546117b09190613191565b90915550505050505b6008546005546040805184815260208101929092526000805160206132e0833981519152910160405180910390a2505b600954600090806118345760405162461bcd60e51b81526020600482015260156024820152746e6f206578636c756465642061646472657373657360581b60448201526064016106bd565b60005b8181101561188f57836001600160a01b03166009828154811061185c5761185c6132c9565b6000918252602090912001546001600160a01b0316141561187f5780925061188f565b6118888161326c565b9050611837565b50826001600160a01b0316600983815481106118ad576118ad6132c9565b6000918252602090912001546001600160a01b0316146119065760405162461bcd60e51b81526020600482015260146024820152731859191c995cdcc81b9bdd08195e18db1d59195960621b60448201526064016106bd565b6000611913600183613229565b905080831461198a576009818154811061192f5761192f6132c9565b600091825260209091200154600980546001600160a01b03909216918590811061195b5761195b6132c9565b9060005260206000200160006101000a8154816001600160a01b0302191690836001600160a01b031602179055505b600980548061199b5761199b6132b3565b6001900381819060005260206000200160006101000a8154906001600160a01b03021916905590555050506000610974612350565b6119da8282611c13565b610a2b82610743565b6000546001600160a01b03163314611a0d5760405162461bcd60e51b81526004016106bd90613111565b60085442118015611a215750600154600854105b8015611a2e575060015415155b15611b2e576006548015611afe576000600154421115611a6557600854600154611a589190613229565b6001546008559050611a79565b600854611a729042613229565b4260085590505b600060035482611a8991906131cb565b90506000611a98600a836131a9565b9050611aa38161278d565b611aad8183613229565b91508160046000828254611ac19190613191565b90915550849050611ada670de0b6b3a7640000846131cb565b611ae491906131a9565b60056000828254611af59190613191565b90915550505050505b6008546005546040805184815260208101929092526000805160206132e0833981519152910160405180910390a2505b60095460005b81811015611bbf57826001600160a01b031660098281548110611b5957611b596132c9565b6000918252602090912001546001600160a01b03161415611baf5760405162461bcd60e51b815260206004820152601060248201526f105b1c9958591e48195e18db1d59195960821b60448201526064016106bd565b611bb88161326c565b9050611b34565b50506009805460018101825560009182527f6e1540171b6c0c960b71a7020d9f60077f6af931a8bbf590da0223dacf75c7af0180546001600160a01b0319166001600160a01b038416179055610974612350565b60085442118015611c275750600154600854105b8015611c34575060015415155b15611d34576006548015611d04576000600154421115611c6b57600854600154611c5e9190613229565b6001546008559050611c7f565b600854611c789042613229565b4260085590505b600060035482611c8f91906131cb565b90506000611c9e600a836131a9565b9050611ca98161278d565b611cb38183613229565b91508160046000828254611cc79190613191565b90915550849050611ce0670de0b6b3a7640000846131cb565b611cea91906131a9565b60056000828254611cfb9190613191565b90915550505050505b6008546005546040805184815260208101929092526000805160206132e0833981519152910160405180910390a2505b336000908152600a602090815260408083208584529091529020805480611d9d5760405162461bcd60e51b815260206004820152601860248201527f506f736974696f6e20646f6573206e6f7420657869737473000000000000000060448201526064016106bd565b80831115611da9578092505b60015442108015611dc45750600054600160a01b900460ff16155b15611e1d578160020154421015611e1d5760405162461bcd60e51b815260206004820152601860248201527f506f736974696f6e206973207374696c6c206c6f636b6564000000000000000060448201526064016106bd565b600081611e32670de0b6b3a7640000866131cb565b611e3c91906131a9565b90506000670de0b6b3a7640000828560010154611e5991906131cb565b611e6391906131a9565b90508060066000828254611e779190613229565b925050819055508460076000828254611e909190613229565b9091555050835485908590600090611ea9908490613229565b9250508190555080846001016000828254611ec49190613229565b9091555050600554611ee490670de0b6b3a7640000906108a190846131cb565b846003016000828254611ef791906131ea565b90915550611f3190506001600160a01b037f0000000000000000000000000000000000000000000000000000000000000000163387612b50565b604051858152869033907ff279e6a1f5e320cca91135676d9cb6e44ca8a08c0b88342bcdb1144f6511b5689060200160405180910390a350505050600061138e612350565b60085442118015611f8a5750600154600854105b8015611f97575060015415155b15612097576006548015612067576000600154421115611fce57600854600154611fc19190613229565b6001546008559050611fe2565b600854611fdb9042613229565b4260085590505b600060035482611ff291906131cb565b90506000612001600a836131a9565b905061200c8161278d565b6120168183613229565b9150816004600082825461202a9190613191565b90915550849050612043670de0b6b3a7640000846131cb565b61204d91906131a9565b6005600082825461205e9190613191565b90915550505050505b6008546005546040805184815260208101929092526000805160206132e0833981519152910160405180910390a2505b60015442116120e85760405162461bcd60e51b815260206004820152601860248201527f57696c6c206e6f74206275726e206265666f726520656e64000000000000000060448201526064016106bd565b600061dead9050600061210360096004546108ab91906131a9565b61210e6004546128cd565b60025461212390610c7362015180601e6131cb565b61212d91906131ea565b61213791906131ea565b90506000811315612176576121766001600160a01b037f0000000000000000000000000000000000000000000000000000000000000000168383612b50565b50506000610d62612350565b6000546001600160a01b031633146121ac5760405162461bcd60e51b81526004016106bd90613111565b600154156121f05760405162461bcd60e51b815260206004820152601160248201527021b0b73737ba1034b734ba1030b3b0b4b760791b60448201526064016106bd565b6007546040516370a0823160e01b8152306004820152600091906001600160a01b037f000000000000000000000000000000000000000000000000000000000000000016906370a082319060240160206040518083038186803b15801561225657600080fd5b505afa15801561226a573d6000803e3d6000fd5b505050506040513d601f19601f8201168201806040525081019061228e9190612fd6565b6122989190613229565b9050600081116122dc5760405162461bcd60e51b815260206004820152600f60248201526e139bc81c995dd85c991cc81cd95b9d608a1b60448201526064016106bd565b6122ea62015180601e6131cb565b6122f59060036131cb565b6122ff90826131a9565b60025561231062015180601e6131cb565b61231b9060036131cb565b6123259042613191565b60015550426008556000610d62612350565b61234562015180601e6131cb565b6107409060036131cb565b6000807f00000000000000000000000000000000000000000000000000000000000000006001600160a01b03166318160ddd6040518163ffffffff1660e01b815260040160206040518083038186803b1580156123ac57600080fd5b505afa1580156123c0573d6000803e3d6000fd5b505050506040513d601f19601f820116820180604052508101906123e49190612fd6565b60095490915060005b818110156124d8577f00000000000000000000000000000000000000000000000000000000000000006001600160a01b03166370a0823160098381548110612437576124376132c9565b60009182526020909120015460405160e083901b6001600160e01b03191681526001600160a01b03909116600482015260240160206040518083038186803b15801561248257600080fd5b505afa158015612496573d6000803e3d6000fd5b505050506040513d601f19601f820116820180604052508101906124ba9190612fd6565b6124c49084613229565b9250806124d08161326c565b9150506123ed565b506007546040516370a0823160e01b8152306004820152600091906001600160a01b037f000000000000000000000000000000000000000000000000000000000000000016906370a082319060240160206040518083038186803b15801561253f57600080fd5b505afa158015612553573d6000803e3d6000fd5b505050506040513d601f19601f820116820180604052508101906125779190612fd6565b6125819190613229565b905061258d8184613229565b925082156125b95782670de0b6b3a76400006007546125ac91906131cb565b6125b691906131a9565b93505b50505090565b600b60205281600052604060002081815481106125db57600080fd5b90600052602060002001600091509150505481565b6000546001600160a01b0316331461261a5760405162461bcd60e51b81526004016106bd90613111565b6001600160a01b03811661267f5760405162461bcd60e51b815260206004820152602660248201527f4f776e61626c653a206e6577206f776e657220697320746865207a65726f206160448201526564647265737360d01b60648201526084016106bd565b610e1781612c74565b6001600160a01b0382166000908152600a602090815260408083208484529091528120600554600654600854421180156126c3575060035415155b156127555760006001544211156126eb576008546001546126e49190613229565b90506126fb565b6008546126f89042613229565b90505b60006003548261270b91906131cb565b9050600061271a600a836131a9565b90506127268183613229565b91508361273b670de0b6b3a7640000846131cb565b61274591906131a9565b61274f9086613191565b94505050505b6127838360030154612779670de0b6b3a76400008587600101546108a191906131cb565b6108c791906131ea565b9695505050505050565b60405163095ea7b360e01b81526001600160a01b037f000000000000000000000000000000000000000000000000000000000000000081166004830152602482018390527f0000000000000000000000000000000000000000000000000000000000000000169063095ea7b390604401602060405180830381600087803b15801561281757600080fd5b505af115801561282b573d6000803e3d6000fd5b505050506040513d601f19601f8201168201806040525081019061284f9190612f80565b5060405163d3512cef60e01b8152600481018290527f00000000000000000000000000000000000000000000000000000000000000006001600160a01b03169063d3512cef90602401600060405180830381600087803b1580156128b257600080fd5b505af11580156128c6573d6000803e3d6000fd5b5050505050565b60006001600160ff1b038211156129375760405162461bcd60e51b815260206004820152602860248201527f53616665436173743a2076616c756520646f65736e27742066697420696e2061604482015267371034b73a191a9b60c11b60648201526084016106bd565b5090565b6000808212156129375760405162461bcd60e51b815260206004820181905260248201527f53616665436173743a2076616c7565206d75737420626520706f73697469766560448201526064016106bd565b6001600160a01b0382166000818152600c60209081526040808320858452825280832054938352600b90915290208054839190839081106129d0576129d06132c9565b906000526020600020015414612a1c5760405162461bcd60e51b81526020600482015260116024820152706465706f7369744964202165786973747360781b60448201526064016106bd565b6001600160a01b0383166000908152600b6020526040812054612a4190600190613229565b9050808214612aea576001600160a01b0384166000908152600b60205260408120805483908110612a7457612a746132c9565b9060005260206000200154905080600b6000876001600160a01b03166001600160a01b031681526020019081526020016000208481548110612ab857612ab86132c9565b60009182526020808320909101929092556001600160a01b0387168152600c8252604080822093825292909152208290555b6001600160a01b0384166000908152600b60205260409020805480612b1157612b116132b3565b6000828152602080822083016000199081018390559092019092556001600160a01b039095168152600c85526040808220948252939094525050812055565b6040516001600160a01b03831660248201526044810182905261144790849063a9059cbb60e01b906064015b60408051601f198184030181529190526020810180516001600160e01b03166001600160e01b031990931692909217909152612cc4565b6001600160a01b0381166000908152600d6020526040812080548291908290612bdb9061326c565b91829055506001600160a01b039093166000818152600b602090815260408083208054600c8452828520898652845282852081905560018101825590845282842001879055928252600a815282822086835290522093915050565b6040516001600160a01b0380851660248301528316604482015260648101829052612c6e9085906323b872dd60e01b90608401612b7c565b50505050565b600080546001600160a01b038381166001600160a01b0319831681178455604051919092169283917f8be0079c531659141344cd1fd0a4f28419497f9722a3daafe3b4186f6b6457e09190a35050565b6000612d19826040518060400160405280602081526020017f5361666545524332303a206c6f772d6c6576656c2063616c6c206661696c6564815250856001600160a01b0316612d969092919063ffffffff16565b8051909150156114475780806020019051810190612d379190612f80565b6114475760405162461bcd60e51b815260206004820152602a60248201527f5361666545524332303a204552433230206f7065726174696f6e20646964206e6044820152691bdd081cdd58d8d9595960b21b60648201526084016106bd565b6060612da58484600085612daf565b90505b9392505050565b606082471015612e105760405162461bcd60e51b815260206004820152602660248201527f416464726573733a20696e73756666696369656e742062616c616e636520666f6044820152651c8818d85b1b60d21b60648201526084016106bd565b843b612e5e5760405162461bcd60e51b815260206004820152601d60248201527f416464726573733a2063616c6c20746f206e6f6e2d636f6e747261637400000060448201526064016106bd565b600080866001600160a01b03168587604051612e7a919061303d565b60006040518083038185875af1925050503d8060008114612eb7576040519150601f19603f3d011682016040523d82523d6000602084013e612ebc565b606091505b5091509150612ecc828286612ed7565b979650505050505050565b60608315612ee6575081612da8565b825115612ef65782518084602001fd5b8160405162461bcd60e51b81526004016106bd91906130de565b80356001600160a01b0381168114612f2757600080fd5b919050565b803560038110612f2757600080fd5b600060208284031215612f4d57600080fd5b612da882612f10565b60008060408385031215612f6957600080fd5b612f7283612f10565b946020939093013593505050565b600060208284031215612f9257600080fd5b81518015158114612da857600080fd5b600060208284031215612fb457600080fd5b612da882612f2c565b600060208284031215612fcf57600080fd5b5035919050565b600060208284031215612fe857600080fd5b5051919050565b6000806040838503121561300257600080fd5b8235915061301260208401612f2c565b90509250929050565b6000806040838503121561302e57600080fd5b50508035926020909101359150565b6000825161304f818460208701613240565b9190910192915050565b6020808252825182820181905260009190848201906040850190845b8181101561309a5783516001600160a01b031683529284019291840191600101613075565b50909695505050505050565b6020808252825182820181905260009190848201906040850190845b8181101561309a578351835292840192918401916001016130c2565b60208152600082518060208401526130fd816040850160208701613240565b601f01601f19169190910160400192915050565b6020808252818101527f4f776e61626c653a2063616c6c6572206973206e6f7420746865206f776e6572604082015260600190565b600060a0820190508682528560208301528460408301528360608301526003831061318157634e487b7160e01b600052602160045260246000fd5b8260808301529695505050505050565b600082198211156131a4576131a4613287565b500190565b6000826131c657634e487b7160e01b600052601260045260246000fd5b500490565b60008160001904831182151516156131e5576131e5613287565b500290565b60008083128015600160ff1b85018412161561320857613208613287565b6001600160ff1b038401831381161561322357613223613287565b50500390565b60008282101561323b5761323b613287565b500390565b60005b8381101561325b578181015183820152602001613243565b83811115612c6e5750506000910152565b600060001982141561328057613280613287565b5060010190565b634e487b7160e01b600052601160045260246000fd5b634e487b7160e01b600052602160045260246000fd5b634e487b7160e01b600052603160045260246000fd5b634e487b7160e01b600052603260045260246000fdfe46fa466115eb42eb54d375f82faa91f2a3d06d3dc2d7ed4a4f936cda1b561efca264697066735822122049dbaa85f1dc338109cd62b3198bf23a37366085dc5ee70b913c1b97972da49d64736f6c63430008070033",
  "devdoc": {
    "kind": "dev",
    "methods": {
      "owner()": {
        "details": "Returns the address of the current owner."
      },
      "renounceOwnership()": {
        "details": "Leaves the contract without owner. It will not be possible to call `onlyOwner` functions anymore. Can only be called by the current owner. NOTE: Renouncing ownership will leave the contract without an owner, thereby removing any functionality that is only available to the owner."
      },
      "transferOwnership(address)": {
        "details": "Transfers ownership of the contract to a new account (`newOwner`). Can only be called by the current owner."
      }
    },
    "version": 1
  },
  "userdoc": {
    "kind": "user",
    "methods": {
      "allUserDepositIds(address,uint256)": {
        "notice": "user => depositId[]"
      },
      "currentId(address)": {
        "notice": "user => deposit index array"
      },
      "depositIdIndex(address,uint256)": {
        "notice": "user => depositId => index in allUserDepositIds"
      },
      "kill()": {
        "notice": "EMERGENCY ONLY"
      },
      "userInfo(address,uint256)": {
        "notice": "user => depositId => UserInfo"
      }
    },
    "version": 1
  },
  "storageLayout": {
    "storage": [
      {
        "astId": 591,
        "contract": "contracts/TreasuryMine.sol:TreasuryMine",
        "label": "_owner",
        "offset": 0,
        "slot": "0",
        "type": "t_address"
      },
      {
        "astId": 6599,
        "contract": "contracts/TreasuryMine.sol:TreasuryMine",
        "label": "unlockAll",
        "offset": 20,
        "slot": "0",
        "type": "t_bool"
      },
      {
        "astId": 6601,
        "contract": "contracts/TreasuryMine.sol:TreasuryMine",
        "label": "endTimestamp",
        "offset": 0,
        "slot": "1",
        "type": "t_uint256"
      },
      {
        "astId": 6603,
        "contract": "contracts/TreasuryMine.sol:TreasuryMine",
        "label": "maxMagicPerSecond",
        "offset": 0,
        "slot": "2",
        "type": "t_uint256"
      },
      {
        "astId": 6605,
        "contract": "contracts/TreasuryMine.sol:TreasuryMine",
        "label": "magicPerSecond",
        "offset": 0,
        "slot": "3",
        "type": "t_uint256"
      },
      {
        "astId": 6607,
        "contract": "contracts/TreasuryMine.sol:TreasuryMine",
        "label": "totalRewardsEarned",
        "offset": 0,
        "slot": "4",
        "type": "t_uint256"
      },
      {
        "astId": 6609,
        "contract": "contracts/TreasuryMine.sol:TreasuryMine",
        "label": "accMagicPerShare",
        "offset": 0,
        "slot": "5",
        "type": "t_uint256"
      },
      {
        "astId": 6611,
        "contract": "contracts/TreasuryMine.sol:TreasuryMine",
        "label": "totalLpToken",
        "offset": 0,
        "slot": "6",
        "type": "t_uint256"
      },
      {
        "astId": 6613,
        "contract": "contracts/TreasuryMine.sol:TreasuryMine",
        "label": "magicTotalDeposits",
        "offset": 0,
        "slot": "7",
        "type": "t_uint256"
      },
      {
        "astId": 6615,
        "contract": "contracts/TreasuryMine.sol:TreasuryMine",
        "label": "lastRewardTimestamp",
        "offset": 0,
        "slot": "8",
        "type": "t_uint256"
      },
      {
        "astId": 6618,
        "contract": "contracts/TreasuryMine.sol:TreasuryMine",
        "label": "excludedAddresses",
        "offset": 0,
        "slot": "9",
        "type": "t_array(t_address)dyn_storage"
      },
      {
        "astId": 6638,
        "contract": "contracts/TreasuryMine.sol:TreasuryMine",
        "label": "userInfo",
        "offset": 0,
        "slot": "10",
        "type": "t_mapping(t_address,t_mapping(t_uint256,t_struct(UserInfo)6630_storage))"
      },
      {
        "astId": 6644,
        "contract": "contracts/TreasuryMine.sol:TreasuryMine",
        "label": "allUserDepositIds",
        "offset": 0,
        "slot": "11",
        "type": "t_mapping(t_address,t_array(t_uint256)dyn_storage)"
      },
      {
        "astId": 6651,
        "contract": "contracts/TreasuryMine.sol:TreasuryMine",
        "label": "depositIdIndex",
        "offset": 0,
        "slot": "12",
        "type": "t_mapping(t_address,t_mapping(t_uint256,t_uint256))"
      },
      {
        "astId": 6656,
        "contract": "contracts/TreasuryMine.sol:TreasuryMine",
        "label": "currentId",
        "offset": 0,
        "slot": "13",
        "type": "t_mapping(t_address,t_uint256)"
      }
    ],
    "types": {
      "t_address": {
        "encoding": "inplace",
        "label": "address",
        "numberOfBytes": "20"
      },
      "t_array(t_address)dyn_storage": {
        "base": "t_address",
        "encoding": "dynamic_array",
        "label": "address[]",
        "numberOfBytes": "32"
      },
      "t_array(t_uint256)dyn_storage": {
        "base": "t_uint256",
        "encoding": "dynamic_array",
        "label": "uint256[]",
        "numberOfBytes": "32"
      },
      "t_bool": {
        "encoding": "inplace",
        "label": "bool",
        "numberOfBytes": "1"
      },
      "t_enum(Lock)6559": {
        "encoding": "inplace",
        "label": "enum TreasuryMine.Lock",
        "numberOfBytes": "1"
      },
      "t_int256": {
        "encoding": "inplace",
        "label": "int256",
        "numberOfBytes": "32"
      },
      "t_mapping(t_address,t_array(t_uint256)dyn_storage)": {
        "encoding": "mapping",
        "key": "t_address",
        "label": "mapping(address => uint256[])",
        "numberOfBytes": "32",
        "value": "t_array(t_uint256)dyn_storage"
      },
      "t_mapping(t_address,t_mapping(t_uint256,t_struct(UserInfo)6630_storage))": {
        "encoding": "mapping",
        "key": "t_address",
        "label": "mapping(address => mapping(uint256 => struct TreasuryMine.UserInfo))",
        "numberOfBytes": "32",
        "value": "t_mapping(t_uint256,t_struct(UserInfo)6630_storage)"
      },
      "t_mapping(t_address,t_mapping(t_uint256,t_uint256))": {
        "encoding": "mapping",
        "key": "t_address",
        "label": "mapping(address => mapping(uint256 => uint256))",
        "numberOfBytes": "32",
        "value": "t_mapping(t_uint256,t_uint256)"
      },
      "t_mapping(t_address,t_uint256)": {
        "encoding": "mapping",
        "key": "t_address",
        "label": "mapping(address => uint256)",
        "numberOfBytes": "32",
        "value": "t_uint256"
      },
      "t_mapping(t_uint256,t_struct(UserInfo)6630_storage)": {
        "encoding": "mapping",
        "key": "t_uint256",
        "label": "mapping(uint256 => struct TreasuryMine.UserInfo)",
        "numberOfBytes": "32",
        "value": "t_struct(UserInfo)6630_storage"
      },
      "t_mapping(t_uint256,t_uint256)": {
        "encoding": "mapping",
        "key": "t_uint256",
        "label": "mapping(uint256 => uint256)",
        "numberOfBytes": "32",
        "value": "t_uint256"
      },
      "t_struct(UserInfo)6630_storage": {
        "encoding": "inplace",
        "label": "struct TreasuryMine.UserInfo",
        "members": [
          {
            "astId": 6620,
            "contract": "contracts/TreasuryMine.sol:TreasuryMine",
            "label": "depositAmount",
            "offset": 0,
            "slot": "0",
            "type": "t_uint256"
          },
          {
            "astId": 6622,
            "contract": "contracts/TreasuryMine.sol:TreasuryMine",
            "label": "lpAmount",
            "offset": 0,
            "slot": "1",
            "type": "t_uint256"
          },
          {
            "astId": 6624,
            "contract": "contracts/TreasuryMine.sol:TreasuryMine",
            "label": "lockedUntil",
            "offset": 0,
            "slot": "2",
            "type": "t_uint256"
          },
          {
            "astId": 6626,
            "contract": "contracts/TreasuryMine.sol:TreasuryMine",
            "label": "rewardDebt",
            "offset": 0,
            "slot": "3",
            "type": "t_int256"
          },
          {
            "astId": 6629,
            "contract": "contracts/TreasuryMine.sol:TreasuryMine",
            "label": "lock",
            "offset": 0,
            "slot": "4",
            "type": "t_enum(Lock)6559"
          }
        ],
        "numberOfBytes": "160"
      },
      "t_uint256": {
        "encoding": "inplace",
        "label": "uint256",
        "numberOfBytes": "32"
      }
    }
  }
}