{
  "address": "0xF83Da6e620d7a2DeCef375ee184d4cEB33D057F6",
  "abi": [
    {
      "inputs": [
        {
          "internalType": "address",
          "name": "_atlasMine",
          "type": "address"
        },
        {
          "internalType": "address",
          "name": "_sushiLP",
          "type": "address"
        },
        {
          "internalType": "address",
          "name": "_miniChefV2",
          "type": "address"
        },
        {
          "internalType": "address",
          "name": "_harvesterFactory",
          "type": "address"
        }
      ],
      "stateMutability": "nonpayable",
      "type": "constructor"
    },
    {
      "anonymous": false,
      "inputs": [
        {
          "indexed": true,
          "internalType": "address",
          "name": "owner",
          "type": "address"
        },
        {
          "indexed": true,
          "internalType": "address",
          "name": "spender",
          "type": "address"
        },
        {
          "indexed": false,
          "internalType": "uint256",
          "name": "value",
          "type": "uint256"
        }
      ],
      "name": "Approval",
      "type": "event"
    },
    {
      "anonymous": false,
      "inputs": [
        {
          "indexed": true,
          "internalType": "address",
          "name": "from",
          "type": "address"
        },
        {
          "indexed": true,
          "internalType": "address",
          "name": "to",
          "type": "address"
        },
        {
          "indexed": false,
          "internalType": "uint256",
          "name": "value",
          "type": "uint256"
        }
      ],
      "name": "Transfer",
      "type": "event"
    },
    {
      "inputs": [],
      "name": "PID",
      "outputs": [
        {
          "internalType": "uint256",
          "name": "",
          "type": "uint256"
        }
      ],
      "stateMutability": "view",
      "type": "function"
    },
    {
      "inputs": [
        {
          "internalType": "address",
          "name": "owner",
          "type": "address"
        },
        {
          "internalType": "address",
          "name": "spender",
          "type": "address"
        }
      ],
      "name": "allowance",
      "outputs": [
        {
          "internalType": "uint256",
          "name": "",
          "type": "uint256"
        }
      ],
      "stateMutability": "view",
      "type": "function"
    },
    {
      "inputs": [
        {
          "internalType": "address",
          "name": "spender",
          "type": "address"
        },
        {
          "internalType": "uint256",
          "name": "amount",
          "type": "uint256"
        }
      ],
      "name": "approve",
      "outputs": [
        {
          "internalType": "bool",
          "name": "",
          "type": "bool"
        }
      ],
      "stateMutability": "nonpayable",
      "type": "function"
    },
    {
      "inputs": [],
      "name": "atlasMine",
      "outputs": [
        {
          "internalType": "contract IAtlasMine",
          "name": "",
          "type": "address"
        }
      ],
      "stateMutability": "view",
      "type": "function"
    },
    {
      "inputs": [
        {
          "internalType": "address",
          "name": "_account",
          "type": "address"
        }
      ],
      "name": "balanceOf",
      "outputs": [
        {
          "internalType": "uint256",
          "name": "",
          "type": "uint256"
        }
      ],
      "stateMutability": "view",
      "type": "function"
    },
    {
      "inputs": [],
      "name": "decimals",
      "outputs": [
        {
          "internalType": "uint8",
          "name": "",
          "type": "uint8"
        }
      ],
      "stateMutability": "view",
      "type": "function"
    },
    {
      "inputs": [
        {
          "internalType": "address",
          "name": "spender",
          "type": "address"
        },
        {
          "internalType": "uint256",
          "name": "subtractedValue",
          "type": "uint256"
        }
      ],
      "name": "decreaseAllowance",
      "outputs": [
        {
          "internalType": "bool",
          "name": "",
          "type": "bool"
        }
      ],
      "stateMutability": "nonpayable",
      "type": "function"
    },
    {
      "inputs": [
        {
          "internalType": "address",
          "name": "_account",
          "type": "address"
        }
      ],
      "name": "getHarvesterBalance",
      "outputs": [
        {
          "internalType": "uint256",
          "name": "harvesterBalance",
          "type": "uint256"
        }
      ],
      "stateMutability": "view",
      "type": "function"
    },
    {
      "inputs": [
        {
          "internalType": "address",
          "name": "_account",
          "type": "address"
        }
      ],
      "name": "getLPBalance",
      "outputs": [
        {
          "internalType": "uint256",
          "name": "",
          "type": "uint256"
        }
      ],
      "stateMutability": "view",
      "type": "function"
    },
    {
      "inputs": [
        {
          "internalType": "address",
          "name": "_account",
          "type": "address"
        }
      ],
      "name": "getMineBalance",
      "outputs": [
        {
          "internalType": "uint256",
          "name": "userMineBalance",
          "type": "uint256"
        }
      ],
      "stateMutability": "view",
      "type": "function"
    },
    {
      "inputs": [],
      "name": "harvesterFactory",
      "outputs": [
        {
          "internalType": "contract IHarvesterFactory",
          "name": "",
          "type": "address"
        }
      ],
      "stateMutability": "view",
      "type": "function"
    },
    {
      "inputs": [
        {
          "internalType": "address",
          "name": "spender",
          "type": "address"
        },
        {
          "internalType": "uint256",
          "name": "addedValue",
          "type": "uint256"
        }
      ],
      "name": "increaseAllowance",
      "outputs": [
        {
          "internalType": "bool",
          "name": "",
          "type": "bool"
        }
      ],
      "stateMutability": "nonpayable",
      "type": "function"
    },
    {
      "inputs": [],
      "name": "miniChefV2",
      "outputs": [
        {
          "internalType": "contract IMiniChefV2",
          "name": "",
          "type": "address"
        }
      ],
      "stateMutability": "view",
      "type": "function"
    },
    {
      "inputs": [],
      "name": "name",
      "outputs": [
        {
          "internalType": "string",
          "name": "",
          "type": "string"
        }
      ],
      "stateMutability": "view",
      "type": "function"
    },
    {
      "inputs": [],
      "name": "sushiLP",
      "outputs": [
        {
          "internalType": "contract IUniswapV2Pair",
          "name": "",
          "type": "address"
        }
      ],
      "stateMutability": "view",
      "type": "function"
    },
    {
      "inputs": [],
      "name": "symbol",
      "outputs": [
        {
          "internalType": "string",
          "name": "",
          "type": "string"
        }
      ],
      "stateMutability": "view",
      "type": "function"
    },
    {
      "inputs": [],
      "name": "totalSupply",
      "outputs": [
        {
          "internalType": "uint256",
          "name": "",
          "type": "uint256"
        }
      ],
      "stateMutability": "view",
      "type": "function"
    },
    {
      "inputs": [
        {
          "internalType": "address",
          "name": "to",
          "type": "address"
        },
        {
          "internalType": "uint256",
          "name": "amount",
          "type": "uint256"
        }
      ],
      "name": "transfer",
      "outputs": [
        {
          "internalType": "bool",
          "name": "",
          "type": "bool"
        }
      ],
      "stateMutability": "nonpayable",
      "type": "function"
    },
    {
      "inputs": [
        {
          "internalType": "address",
          "name": "from",
          "type": "address"
        },
        {
          "internalType": "address",
          "name": "to",
          "type": "address"
        },
        {
          "internalType": "uint256",
          "name": "amount",
          "type": "uint256"
        }
      ],
      "name": "transferFrom",
      "outputs": [
        {
          "internalType": "bool",
          "name": "",
          "type": "bool"
        }
      ],
      "stateMutability": "nonpayable",
      "type": "function"
    }
  ],
  "transactionHash": "0x15044f9e4a2167b9306a53a4884ee9acb103718250c52a71b55e1b5519bed0a5",
  "args": [
    "0xA0A89db1C899c49F98E6326b764BAFcf167fC2CE",
    "0xB7E50106A5bd3Cf21AF210A755F9C8740890A8c9",
    "0xF4d73326C13a4Fc5FD7A064217e12780e9Bd62c3",
    "0xE59aEc5f6F631EF380dd4e60D531ff3aE2985CFd"
  ],
  "solcInputHash": "34bb1cf9f178d1d3c5b6f2a8002c9b58",
  "bytecode": "0x60806040523480156200001157600080fd5b50604051620017b7380380620017b78339810160408190526200003491620001c7565b604080518082018252601781527f54726561737572652044414f20476f7665726e616e6365000000000000000000602080830191825283518085019094526006845265674d4147494360d01b908401528151919291620000979160039162000104565b508051620000ad90600490602084019062000104565b5050600580546001600160a01b039687166001600160a01b03199182161790915560068054958716958216959095179094555060078054928516928416929092179091556008805491909316911617905562000260565b828054620001129062000224565b90600052602060002090601f01602090048101928262000136576000855562000181565b82601f106200015157805160ff191683800117855562000181565b8280016001018555821562000181579182015b828111156200018157825182559160200191906001019062000164565b506200018f92915062000193565b5090565b5b808211156200018f576000815560010162000194565b80516001600160a01b0381168114620001c257600080fd5b919050565b60008060008060808587031215620001de57600080fd5b620001e985620001aa565b9350620001f960208601620001aa565b92506200020960408601620001aa565b91506200021960608601620001aa565b905092959194509250565b600181811c908216806200023957607f821691505b6020821081036200025a57634e487b7160e01b600052602260045260246000fd5b50919050565b61154780620002706000396000f3fe608060405234801561001057600080fd5b50600436106101215760003560e01c80636742508c116100ad578063a9059cbb11610071578063a9059cbb1461024c578063bddd79c61461025f578063d2258beb14610272578063dd62ed3e14610285578063f828b6561461029857600080fd5b80636742508c146101f857806370a082311461020b578063843086ab1461021e57806395d89b4114610231578063a457c2d71461023957600080fd5b8063313ce567116100f4578063313ce56714610190578063395093511461019f5780633995c880146101b25780634b7f6363146101dd5780635eaec0e4146101f057600080fd5b806306fdde0314610126578063095ea7b31461014457806318160ddd1461016757806323b872dd1461017d575b600080fd5b61012e6102ab565b60405161013b9190610fea565b60405180910390f35b610157610152366004611057565b61033d565b604051901515815260200161013b565b61016f610355565b60405190815260200161013b565b61015761018b366004611083565b610429565b6040516012815260200161013b565b6101576101ad366004611057565b61044d565b6005546101c5906001600160a01b031681565b6040516001600160a01b03909116815260200161013b565b6007546101c5906001600160a01b031681565b61016f600d81565b61016f6102063660046110c4565b61046f565b61016f6102193660046110c4565b6106d4565b61016f61022c3660046110c4565b61070b565b61012e61084a565b610157610247366004611057565b610859565b61015761025a366004611057565b6108d9565b6008546101c5906001600160a01b031681565b61016f6102803660046110c4565b6108e7565b61016f6102933660046110e8565b610c0d565b6006546101c5906001600160a01b031681565b6060600380546102ba90611121565b80601f01602080910402602001604051908101604052809291908181526020018280546102e690611121565b80156103335780601f1061030857610100808354040283529160200191610333565b820191906000526020600020905b81548152906001019060200180831161031657829003601f168201915b5050505050905090565b60003361034b818585610c38565b5060019392505050565b600554604080516306c2a32360e11b815290516000926001600160a01b031691630d8546469160048083019260209291908290030181865afa15801561039f573d6000803e3d6000fd5b505050506040513d601f19601f820116820180604052508101906103c3919061115b565b6001600160a01b03166318160ddd6040518163ffffffff1660e01b8152600401602060405180830381865afa158015610400573d6000803e3d6000fd5b505050506040513d601f19601f820116820180604052508101906104249190611178565b905090565b600033610437858285610d5c565b610442858585610dd6565b506001949350505050565b60003361034b8185856104608383610c0d565b61046a91906111a7565b610c38565b6005546040516306ea08bd60e11b81526001600160a01b0383811660048301526000928392911690630dd4117a90602401600060405180830381865afa1580156104bd573d6000803e3d6000fd5b505050506040513d6000823e601f3d908101601f191682016040526104e5919081019061122a565b805190915060005b818110156106cc576000838281518110610509576105096112c0565b60209081029190910101516005546040516321ce919d60e01b81526001600160a01b03898116600483015260248201849052929350600092839216906321ce919d9060440160e060405180830381865afa15801561056b573d6000803e3d6000fd5b505050506040513d601f19601f8201168201806040525081019061058f91906112d6565b600554604051630293519f60e21b8152969950909750600096506001600160a01b031694630a4d467c94506105cc9350879250600401905061133a565b6040805180830381865afa1580156105e8573d6000803e3d6000fd5b505050506040513d601f19601f8201168201806040525081019061060c9190611362565b5090506000600560009054906101000a90046001600160a01b03166001600160a01b031663c2ee3a086040518163ffffffff1660e01b8152600401602060405180830381865afa158015610664573d6000803e3d6000fd5b505050506040513d601f19601f820116820180604052508101906106889190611178565b6106928386611386565b61069c91906113a5565b6106a690856111a7565b90506106b2818a6111a7565b9850505050505080806106c4906113c7565b9150506104ed565b505050919050565b60006106df8261070b565b6106e8836108e7565b6106f18461046f565b6106fb91906111a7565b61070591906111a7565b92915050565b600080600860009054906101000a90046001600160a01b03166001600160a01b03166323f5513c6040518163ffffffff1660e01b8152600401600060405180830381865afa158015610761573d6000803e3d6000fd5b505050506040513d6000823e601f3d908101601f1916820160405261078991908101906113e0565b805190915060005b818110156106cc5760008382815181106107ad576107ad6112c0565b602090810291909101015160405163077e024760e01b81526001600160a01b0388811660048301529091169063077e024790602401608060405180830381865afa1580156107ff573d6000803e3d6000fd5b505050506040513d601f19601f82011682018060405250810190610823919061146f565b5050509050808561083491906111a7565b9450508080610842906113c7565b915050610791565b6060600480546102ba90611121565b600033816108678286610c0d565b9050838110156108cc5760405162461bcd60e51b815260206004820152602560248201527f45524332303a2064656372656173656420616c6c6f77616e63652062656c6f77604482015264207a65726f60d81b60648201526084015b60405180910390fd5b6104428286868403610c38565b60003361034b818585610dd6565b6007546040516393f1a40b60e01b8152600d60048201526001600160a01b03838116602483015260009283929116906393f1a40b906044016040805180830381865afa15801561093b573d6000803e3d6000fd5b505050506040513d601f19601f8201168201806040525081019061095f9190611362565b509050600080600660009054906101000a90046001600160a01b03166001600160a01b0316630902f1ac6040518163ffffffff1660e01b8152600401606060405180830381865afa1580156109b8573d6000803e3d6000fd5b505050506040513d601f19601f820116820180604052508101906109dc91906114c1565b5091509150600660009054906101000a90046001600160a01b03166001600160a01b0316630dfe16816040518163ffffffff1660e01b8152600401602060405180830381865afa158015610a34573d6000803e3d6000fd5b505050506040513d601f19601f82011682018060405250810190610a58919061115b565b6001600160a01b0316600560009054906101000a90046001600160a01b03166001600160a01b0316630d8546466040518163ffffffff1660e01b8152600401602060405180830381865afa158015610ab4573d6000803e3d6000fd5b505050506040513d601f19601f82011682018060405250810190610ad8919061115b565b6001600160a01b031603610b8357600660009054906101000a90046001600160a01b03166001600160a01b03166318160ddd6040518163ffffffff1660e01b8152600401602060405180830381865afa158015610b39573d6000803e3d6000fd5b505050506040513d601f19601f82011682018060405250810190610b5d9190611178565b610b70846001600160701b038516611386565b610b7a91906113a5565b95945050505050565b600660009054906101000a90046001600160a01b03166001600160a01b03166318160ddd6040518163ffffffff1660e01b8152600401602060405180830381865afa158015610bd6573d6000803e3d6000fd5b505050506040513d601f19601f82011682018060405250810190610bfa9190611178565b610b70846001600160701b038416611386565b6001600160a01b03918216600090815260016020908152604080832093909416825291909152205490565b6001600160a01b038316610c9a5760405162461bcd60e51b8152602060048201526024808201527f45524332303a20617070726f76652066726f6d20746865207a65726f206164646044820152637265737360e01b60648201526084016108c3565b6001600160a01b038216610cfb5760405162461bcd60e51b815260206004820152602260248201527f45524332303a20617070726f766520746f20746865207a65726f206164647265604482015261737360f01b60648201526084016108c3565b6001600160a01b0383811660008181526001602090815260408083209487168084529482529182902085905590518481527f8c5be1e5ebec7d5bd14f71427d1e84f3dd0314c0f7b2291e5b200ac8c7c3b925910160405180910390a3505050565b6000610d688484610c0d565b90506000198114610dd05781811015610dc35760405162461bcd60e51b815260206004820152601d60248201527f45524332303a20696e73756666696369656e7420616c6c6f77616e636500000060448201526064016108c3565b610dd08484848403610c38565b50505050565b6001600160a01b038316610e3a5760405162461bcd60e51b815260206004820152602560248201527f45524332303a207472616e736665722066726f6d20746865207a65726f206164604482015264647265737360d81b60648201526084016108c3565b6001600160a01b038216610e9c5760405162461bcd60e51b815260206004820152602360248201527f45524332303a207472616e7366657220746f20746865207a65726f206164647260448201526265737360e81b60648201526084016108c3565b610ea7838383610faf565b6001600160a01b03831660009081526020819052604090205481811015610f1f5760405162461bcd60e51b815260206004820152602660248201527f45524332303a207472616e7366657220616d6f756e7420657863656564732062604482015265616c616e636560d01b60648201526084016108c3565b6001600160a01b03808516600090815260208190526040808220858503905591851681529081208054849290610f569084906111a7565b92505081905550826001600160a01b0316846001600160a01b03167fddf252ad1be2c89b69c2b068fc378daa952ba7f163c4a11628f55a4df523b3ef84604051610fa291815260200190565b60405180910390a3610dd0565b60405162461bcd60e51b815260206004820152601060248201526f4e6f6e2d7472616e7366657261626c6560801b60448201526064016108c3565b600060208083528351808285015260005b8181101561101757858101830151858201604001528201610ffb565b81811115611029576000604083870101525b50601f01601f1916929092016040019392505050565b6001600160a01b038116811461105457600080fd5b50565b6000806040838503121561106a57600080fd5b82356110758161103f565b946020939093013593505050565b60008060006060848603121561109857600080fd5b83356110a38161103f565b925060208401356110b38161103f565b929592945050506040919091013590565b6000602082840312156110d657600080fd5b81356110e18161103f565b9392505050565b600080604083850312156110fb57600080fd5b82356111068161103f565b915060208301356111168161103f565b809150509250929050565b600181811c9082168061113557607f821691505b60208210810361115557634e487b7160e01b600052602260045260246000fd5b50919050565b60006020828403121561116d57600080fd5b81516110e18161103f565b60006020828403121561118a57600080fd5b5051919050565b634e487b7160e01b600052601160045260246000fd5b600082198211156111ba576111ba611191565b500190565b634e487b7160e01b600052604160045260246000fd5b604051601f8201601f1916810167ffffffffffffffff811182821017156111fe576111fe6111bf565b604052919050565b600067ffffffffffffffff821115611220576112206111bf565b5060051b60200190565b6000602080838503121561123d57600080fd5b825167ffffffffffffffff81111561125457600080fd5b8301601f8101851361126557600080fd5b805161127861127382611206565b6111d5565b81815260059190911b8201830190838101908783111561129757600080fd5b928401925b828410156112b55783518252928401929084019061129c565b979650505050505050565b634e487b7160e01b600052603260045260246000fd5b600080600080600080600060e0888a0312156112f157600080fd5b875196506020880151955060408801519450606088015193506080880151925060a0880151915060c08801516005811061132a57600080fd5b8091505092959891949750929550565b602081016005831061135c57634e487b7160e01b600052602160045260246000fd5b91905290565b6000806040838503121561137557600080fd5b505080516020909101519092909150565b60008160001904831182151516156113a0576113a0611191565b500290565b6000826113c257634e487b7160e01b600052601260045260246000fd5b500490565b6000600182016113d9576113d9611191565b5060010190565b600060208083850312156113f357600080fd5b825167ffffffffffffffff81111561140a57600080fd5b8301601f8101851361141b57600080fd5b805161142961127382611206565b81815260059190911b8201830190838101908783111561144857600080fd5b928401925b828410156112b55783516114608161103f565b8252928401929084019061144d565b6000806000806080858703121561148557600080fd5b505082516020840151604085015160609095015191969095509092509050565b80516001600160701b03811681146114bc57600080fd5b919050565b6000806000606084860312156114d657600080fd5b6114df846114a5565b92506114ed602085016114a5565b9150604084015163ffffffff8116811461150657600080fd5b80915050925092509256fea26469706673582212204fa82644eb4b473d6d234e99688ef3a8026062bef6b5fa7fae5102967fb314c864736f6c634300080e0033",
  "devdoc": {
    "kind": "dev",
    "methods": {
      "allowance(address,address)": {
        "details": "See {IERC20-allowance}."
      },
      "approve(address,uint256)": {
        "details": "See {IERC20-approve}. NOTE: If `amount` is the maximum `uint256`, the allowance is not updated on `transferFrom`. This is semantically equivalent to an infinite approval. Requirements: - `spender` cannot be the zero address."
      },
      "decimals()": {
        "details": "Returns the number of decimals used to get its user representation. For example, if `decimals` equals `2`, a balance of `505` tokens should be displayed to a user as `5.05` (`505 / 10 ** 2`). Tokens usually opt for a value of 18, imitating the relationship between Ether and Wei. This is the value {ERC20} uses, unless this function is overridden; NOTE: This information is only used for _display_ purposes: it in no way affects any of the arithmetic of the contract, including {IERC20-balanceOf} and {IERC20-transfer}."
      },
      "decreaseAllowance(address,uint256)": {
        "details": "Atomically decreases the allowance granted to `spender` by the caller. This is an alternative to {approve} that can be used as a mitigation for problems described in {IERC20-approve}. Emits an {Approval} event indicating the updated allowance. Requirements: - `spender` cannot be the zero address. - `spender` must have allowance for the caller of at least `subtractedValue`."
      },
      "increaseAllowance(address,uint256)": {
        "details": "Atomically increases the allowance granted to `spender` by the caller. This is an alternative to {approve} that can be used as a mitigation for problems described in {IERC20-approve}. Emits an {Approval} event indicating the updated allowance. Requirements: - `spender` cannot be the zero address."
      },
      "name()": {
        "details": "Returns the name of the token."
      },
      "symbol()": {
        "details": "Returns the symbol of the token, usually a shorter version of the name."
      },
      "totalSupply()": {
        "details": "See {IERC20-totalSupply}."
      },
      "transfer(address,uint256)": {
        "details": "See {IERC20-transfer}. Requirements: - `to` cannot be the zero address. - the caller must have a balance of at least `amount`."
      },
      "transferFrom(address,address,uint256)": {
        "details": "See {IERC20-transferFrom}. Emits an {Approval} event indicating the updated allowance. This is not required by the EIP. See the note at the beginning of {ERC20}. NOTE: Does not update the allowance if the current allowance is the maximum `uint256`. Requirements: - `from` and `to` cannot be the zero address. - `from` must have a balance of at least `amount`. - the caller must have allowance for ``from``'s tokens of at least `amount`."
      }
    },
    "version": 1
  },
  "userdoc": {
    "kind": "user",
    "methods": {},
    "version": 1
  },
  "storageLayout": {
    "storage": [
      {
        "astId": 15,
        "contract": "contracts/MagicGov.sol:TreasureDAO",
        "label": "_balances",
        "offset": 0,
        "slot": "0",
        "type": "t_mapping(t_address,t_uint256)"
      },
      {
        "astId": 21,
        "contract": "contracts/MagicGov.sol:TreasureDAO",
        "label": "_allowances",
        "offset": 0,
        "slot": "1",
        "type": "t_mapping(t_address,t_mapping(t_address,t_uint256))"
      },
      {
        "astId": 23,
        "contract": "contracts/MagicGov.sol:TreasureDAO",
        "label": "_totalSupply",
        "offset": 0,
        "slot": "2",
        "type": "t_uint256"
      },
      {
        "astId": 25,
        "contract": "contracts/MagicGov.sol:TreasureDAO",
        "label": "_name",
        "offset": 0,
        "slot": "3",
        "type": "t_string_storage"
      },
      {
        "astId": 27,
        "contract": "contracts/MagicGov.sol:TreasureDAO",
        "label": "_symbol",
        "offset": 0,
        "slot": "4",
        "type": "t_string_storage"
      },
      {
        "astId": 832,
        "contract": "contracts/MagicGov.sol:TreasureDAO",
        "label": "atlasMine",
        "offset": 0,
        "slot": "5",
        "type": "t_contract(IAtlasMine)803"
      },
      {
        "astId": 835,
        "contract": "contracts/MagicGov.sol:TreasureDAO",
        "label": "sushiLP",
        "offset": 0,
        "slot": "6",
        "type": "t_contract(IUniswapV2Pair)733"
      },
      {
        "astId": 838,
        "contract": "contracts/MagicGov.sol:TreasureDAO",
        "label": "miniChefV2",
        "offset": 0,
        "slot": "7",
        "type": "t_contract(IMiniChefV2)745"
      },
      {
        "astId": 841,
        "contract": "contracts/MagicGov.sol:TreasureDAO",
        "label": "harvesterFactory",
        "offset": 0,
        "slot": "8",
        "type": "t_contract(IHarvesterFactory)824"
      }
    ],
    "types": {
      "t_address": {
        "encoding": "inplace",
        "label": "address",
        "numberOfBytes": "20"
      },
      "t_contract(IAtlasMine)803": {
        "encoding": "inplace",
        "label": "contract IAtlasMine",
        "numberOfBytes": "20"
      },
      "t_contract(IHarvesterFactory)824": {
        "encoding": "inplace",
        "label": "contract IHarvesterFactory",
        "numberOfBytes": "20"
      },
      "t_contract(IMiniChefV2)745": {
        "encoding": "inplace",
        "label": "contract IMiniChefV2",
        "numberOfBytes": "20"
      },
      "t_contract(IUniswapV2Pair)733": {
        "encoding": "inplace",
        "label": "contract IUniswapV2Pair",
        "numberOfBytes": "20"
      },
      "t_mapping(t_address,t_mapping(t_address,t_uint256))": {
        "encoding": "mapping",
        "key": "t_address",
        "label": "mapping(address => mapping(address => uint256))",
        "numberOfBytes": "32",
        "value": "t_mapping(t_address,t_uint256)"
      },
      "t_mapping(t_address,t_uint256)": {
        "encoding": "mapping",
        "key": "t_address",
        "label": "mapping(address => uint256)",
        "numberOfBytes": "32",
        "value": "t_uint256"
      },
      "t_string_storage": {
        "encoding": "bytes",
        "label": "string",
        "numberOfBytes": "32"
      },
      "t_uint256": {
        "encoding": "inplace",
        "label": "uint256",
        "numberOfBytes": "32"
      }
    }
  }
}