{
  "address": "0xFeFC74071d3Ff7271Bfb8aCC21Bd448a35C1F773",
  "abi": [
    {
      "inputs": [
        {
          "internalType": "address",
          "name": "_atlasMine",
          "type": "address"
        },
        {
          "internalType": "address",
          "name": "_sushiLP",
          "type": "address"
        },
        {
          "internalType": "address",
          "name": "_miniChefV2",
          "type": "address"
        }
      ],
      "stateMutability": "nonpayable",
      "type": "constructor"
    },
    {
      "anonymous": false,
      "inputs": [
        {
          "indexed": true,
          "internalType": "address",
          "name": "owner",
          "type": "address"
        },
        {
          "indexed": true,
          "internalType": "address",
          "name": "spender",
          "type": "address"
        },
        {
          "indexed": false,
          "internalType": "uint256",
          "name": "value",
          "type": "uint256"
        }
      ],
      "name": "Approval",
      "type": "event"
    },
    {
      "anonymous": false,
      "inputs": [
        {
          "indexed": true,
          "internalType": "address",
          "name": "from",
          "type": "address"
        },
        {
          "indexed": true,
          "internalType": "address",
          "name": "to",
          "type": "address"
        },
        {
          "indexed": false,
          "internalType": "uint256",
          "name": "value",
          "type": "uint256"
        }
      ],
      "name": "Transfer",
      "type": "event"
    },
    {
      "inputs": [],
      "name": "PID",
      "outputs": [
        {
          "internalType": "uint256",
          "name": "",
          "type": "uint256"
        }
      ],
      "stateMutability": "view",
      "type": "function"
    },
    {
      "inputs": [
        {
          "internalType": "address",
          "name": "owner",
          "type": "address"
        },
        {
          "internalType": "address",
          "name": "spender",
          "type": "address"
        }
      ],
      "name": "allowance",
      "outputs": [
        {
          "internalType": "uint256",
          "name": "",
          "type": "uint256"
        }
      ],
      "stateMutability": "view",
      "type": "function"
    },
    {
      "inputs": [
        {
          "internalType": "address",
          "name": "spender",
          "type": "address"
        },
        {
          "internalType": "uint256",
          "name": "amount",
          "type": "uint256"
        }
      ],
      "name": "approve",
      "outputs": [
        {
          "internalType": "bool",
          "name": "",
          "type": "bool"
        }
      ],
      "stateMutability": "nonpayable",
      "type": "function"
    },
    {
      "inputs": [],
      "name": "atlasMine",
      "outputs": [
        {
          "internalType": "contract AtlasMine",
          "name": "",
          "type": "address"
        }
      ],
      "stateMutability": "view",
      "type": "function"
    },
    {
      "inputs": [
        {
          "internalType": "address",
          "name": "_account",
          "type": "address"
        }
      ],
      "name": "balanceOf",
      "outputs": [
        {
          "internalType": "uint256",
          "name": "",
          "type": "uint256"
        }
      ],
      "stateMutability": "view",
      "type": "function"
    },
    {
      "inputs": [],
      "name": "decimals",
      "outputs": [
        {
          "internalType": "uint8",
          "name": "",
          "type": "uint8"
        }
      ],
      "stateMutability": "view",
      "type": "function"
    },
    {
      "inputs": [
        {
          "internalType": "address",
          "name": "spender",
          "type": "address"
        },
        {
          "internalType": "uint256",
          "name": "subtractedValue",
          "type": "uint256"
        }
      ],
      "name": "decreaseAllowance",
      "outputs": [
        {
          "internalType": "bool",
          "name": "",
          "type": "bool"
        }
      ],
      "stateMutability": "nonpayable",
      "type": "function"
    },
    {
      "inputs": [
        {
          "internalType": "address",
          "name": "_account",
          "type": "address"
        }
      ],
      "name": "getLPBalance",
      "outputs": [
        {
          "internalType": "uint256",
          "name": "",
          "type": "uint256"
        }
      ],
      "stateMutability": "view",
      "type": "function"
    },
    {
      "inputs": [
        {
          "internalType": "address",
          "name": "_account",
          "type": "address"
        }
      ],
      "name": "getMineBalance",
      "outputs": [
        {
          "internalType": "uint256",
          "name": "userMineBalance",
          "type": "uint256"
        }
      ],
      "stateMutability": "view",
      "type": "function"
    },
    {
      "inputs": [
        {
          "internalType": "address",
          "name": "spender",
          "type": "address"
        },
        {
          "internalType": "uint256",
          "name": "addedValue",
          "type": "uint256"
        }
      ],
      "name": "increaseAllowance",
      "outputs": [
        {
          "internalType": "bool",
          "name": "",
          "type": "bool"
        }
      ],
      "stateMutability": "nonpayable",
      "type": "function"
    },
    {
      "inputs": [],
      "name": "miniChefV2",
      "outputs": [
        {
          "internalType": "contract IMiniChefV2",
          "name": "",
          "type": "address"
        }
      ],
      "stateMutability": "view",
      "type": "function"
    },
    {
      "inputs": [],
      "name": "name",
      "outputs": [
        {
          "internalType": "string",
          "name": "",
          "type": "string"
        }
      ],
      "stateMutability": "view",
      "type": "function"
    },
    {
      "inputs": [],
      "name": "sushiLP",
      "outputs": [
        {
          "internalType": "contract IUniswapV2Pair",
          "name": "",
          "type": "address"
        }
      ],
      "stateMutability": "view",
      "type": "function"
    },
    {
      "inputs": [],
      "name": "symbol",
      "outputs": [
        {
          "internalType": "string",
          "name": "",
          "type": "string"
        }
      ],
      "stateMutability": "view",
      "type": "function"
    },
    {
      "inputs": [],
      "name": "totalSupply",
      "outputs": [
        {
          "internalType": "uint256",
          "name": "",
          "type": "uint256"
        }
      ],
      "stateMutability": "view",
      "type": "function"
    },
    {
      "inputs": [
        {
          "internalType": "address",
          "name": "recipient",
          "type": "address"
        },
        {
          "internalType": "uint256",
          "name": "amount",
          "type": "uint256"
        }
      ],
      "name": "transfer",
      "outputs": [
        {
          "internalType": "bool",
          "name": "",
          "type": "bool"
        }
      ],
      "stateMutability": "nonpayable",
      "type": "function"
    },
    {
      "inputs": [
        {
          "internalType": "address",
          "name": "sender",
          "type": "address"
        },
        {
          "internalType": "address",
          "name": "recipient",
          "type": "address"
        },
        {
          "internalType": "uint256",
          "name": "amount",
          "type": "uint256"
        }
      ],
      "name": "transferFrom",
      "outputs": [
        {
          "internalType": "bool",
          "name": "",
          "type": "bool"
        }
      ],
      "stateMutability": "nonpayable",
      "type": "function"
    }
  ],
  "transactionHash": "0x2850e967d141999f51aac0275d77c3e24990065af7d2069a9eb00aec009b695a",
  "args": [
    "0xA0A89db1C899c49F98E6326b764BAFcf167fC2CE",
    "0xB7E50106A5bd3Cf21AF210A755F9C8740890A8c9",
    "0xF4d73326C13a4Fc5FD7A064217e12780e9Bd62c3"
  ],
  "solcInputHash": "8b42f74571be397f49a30e35eaa4eb62",
  "bytecode": "0x60806040523480156200001157600080fd5b5060405162001555380380620015558339810160408190526200003491620001b6565b604080518082018252601781527f54726561737572652044414f20476f7665726e616e6365000000000000000000602080830191825283518085019094526006845265674d4147494360d01b9084015281519192916200009791600391620000f3565b508051620000ad906004906020840190620000f3565b5050600580546001600160a01b039586166001600160a01b031991821617909155600680549486169482169490941790935550600780549190931691161790556200023d565b828054620001019062000200565b90600052602060002090601f01602090048101928262000125576000855562000170565b82601f106200014057805160ff191683800117855562000170565b8280016001018555821562000170579182015b828111156200017057825182559160200191906001019062000153565b506200017e92915062000182565b5090565b5b808211156200017e576000815560010162000183565b80516001600160a01b0381168114620001b157600080fd5b919050565b600080600060608486031215620001cc57600080fd5b620001d78462000199565b9250620001e76020850162000199565b9150620001f76040850162000199565b90509250925092565b600181811c908216806200021557607f821691505b602082108114156200023757634e487b7160e01b600052602260045260246000fd5b50919050565b611308806200024d6000396000f3fe608060405234801561001057600080fd5b506004361061010b5760003560e01c80635eaec0e4116100a2578063a457c2d711610071578063a457c2d714610210578063a9059cbb14610223578063d2258beb14610236578063dd62ed3e14610249578063f828b6561461028257600080fd5b80635eaec0e4146101da5780636742508c146101e257806370a08231146101f557806395d89b411461020857600080fd5b8063313ce567116100de578063313ce5671461017a57806339509351146101895780633995c8801461019c5780634b7f6363146101c757600080fd5b806306fdde0314610110578063095ea7b31461012e57806318160ddd1461015157806323b872dd14610167575b600080fd5b610118610295565b6040516101259190610e9a565b60405180910390f35b61014161013c366004610f07565b610327565b6040519015158152602001610125565b61015961033d565b604051908152602001610125565b610141610175366004610f33565b610411565b60405160128152602001610125565b610141610197366004610f07565b6104c0565b6005546101af906001600160a01b031681565b6040516001600160a01b039091168152602001610125565b6007546101af906001600160a01b031681565b610159600d81565b6101596101f0366004610f74565b6104fc565b610159610203366004610f74565b610761565b610118610785565b61014161021e366004610f07565b610794565b610141610231366004610f07565b61082d565b610159610244366004610f74565b61083a565b610159610257366004610f98565b6001600160a01b03918216600090815260016020908152604080832093909416825291909152205490565b6006546101af906001600160a01b031681565b6060600380546102a490610fd1565b80601f01602080910402602001604051908101604052809291908181526020018280546102d090610fd1565b801561031d5780601f106102f25761010080835404028352916020019161031d565b820191906000526020600020905b81548152906001019060200180831161030057829003601f168201915b5050505050905090565b6000610334338484610b61565b50600192915050565b600554604080516306c2a32360e11b815290516000926001600160a01b031691630d8546469160048083019260209291908290030181865afa158015610387573d6000803e3d6000fd5b505050506040513d601f19601f820116820180604052508101906103ab919061100c565b6001600160a01b03166318160ddd6040518163ffffffff1660e01b8152600401602060405180830381865afa1580156103e8573d6000803e3d6000fd5b505050506040513d601f19601f8201168201806040525081019061040c9190611029565b905090565b600061041e848484610c85565b6001600160a01b0384166000908152600160209081526040808320338452909152902054828110156104a85760405162461bcd60e51b815260206004820152602860248201527f45524332303a207472616e7366657220616d6f756e74206578636565647320616044820152676c6c6f77616e636560c01b60648201526084015b60405180910390fd5b6104b58533858403610b61565b506001949350505050565b3360008181526001602090815260408083206001600160a01b038716845290915281205490916103349185906104f7908690611058565b610b61565b6005546040516306ea08bd60e11b81526001600160a01b0383811660048301526000928392911690630dd4117a90602401600060405180830381865afa15801561054a573d6000803e3d6000fd5b505050506040513d6000823e601f3d908101601f191682016040526105729190810190611086565b805190915060005b8181101561075957600083828151811061059657610596611144565b60209081029190910101516005546040516321ce919d60e01b81526001600160a01b03898116600483015260248201849052929350600092839216906321ce919d9060440160e060405180830381865afa1580156105f8573d6000803e3d6000fd5b505050506040513d601f19601f8201168201806040525081019061061c919061115a565b600554604051630293519f60e21b8152969950909750600096506001600160a01b031694630a4d467c9450610659935087925060040190506111be565b6040805180830381865afa158015610675573d6000803e3d6000fd5b505050506040513d601f19601f8201168201806040525081019061069991906111e6565b5090506000600560009054906101000a90046001600160a01b03166001600160a01b031663c2ee3a086040518163ffffffff1660e01b8152600401602060405180830381865afa1580156106f1573d6000803e3d6000fd5b505050506040513d601f19601f820116820180604052508101906107159190611029565b61071f838661120a565b6107299190611229565b6107339085611058565b905061073f818a611058565b9850505050505080806107519061124b565b91505061057a565b505050919050565b600061076c8261083a565b610775836104fc565b61077f9190611058565b92915050565b6060600480546102a490610fd1565b3360009081526001602090815260408083206001600160a01b0386168452909152812054828110156108165760405162461bcd60e51b815260206004820152602560248201527f45524332303a2064656372656173656420616c6c6f77616e63652062656c6f77604482015264207a65726f60d81b606482015260840161049f565b6108233385858403610b61565b5060019392505050565b6000610334338484610c85565b6007546040516393f1a40b60e01b8152600d60048201526001600160a01b03838116602483015260009283929116906393f1a40b906044016040805180830381865afa15801561088e573d6000803e3d6000fd5b505050506040513d601f19601f820116820180604052508101906108b291906111e6565b509050600080600660009054906101000a90046001600160a01b03166001600160a01b0316630902f1ac6040518163ffffffff1660e01b8152600401606060405180830381865afa15801561090b573d6000803e3d6000fd5b505050506040513d601f19601f8201168201806040525081019061092f9190611282565b5091509150600660009054906101000a90046001600160a01b03166001600160a01b0316630dfe16816040518163ffffffff1660e01b8152600401602060405180830381865afa158015610987573d6000803e3d6000fd5b505050506040513d601f19601f820116820180604052508101906109ab919061100c565b6001600160a01b0316600560009054906101000a90046001600160a01b03166001600160a01b0316630d8546466040518163ffffffff1660e01b8152600401602060405180830381865afa158015610a07573d6000803e3d6000fd5b505050506040513d601f19601f82011682018060405250810190610a2b919061100c565b6001600160a01b03161415610ad757600660009054906101000a90046001600160a01b03166001600160a01b03166318160ddd6040518163ffffffff1660e01b8152600401602060405180830381865afa158015610a8d573d6000803e3d6000fd5b505050506040513d601f19601f82011682018060405250810190610ab19190611029565b610ac4846001600160701b03851661120a565b610ace9190611229565b95945050505050565b600660009054906101000a90046001600160a01b03166001600160a01b03166318160ddd6040518163ffffffff1660e01b8152600401602060405180830381865afa158015610b2a573d6000803e3d6000fd5b505050506040513d601f19601f82011682018060405250810190610b4e9190611029565b610ac4846001600160701b03841661120a565b6001600160a01b038316610bc35760405162461bcd60e51b8152602060048201526024808201527f45524332303a20617070726f76652066726f6d20746865207a65726f206164646044820152637265737360e01b606482015260840161049f565b6001600160a01b038216610c245760405162461bcd60e51b815260206004820152602260248201527f45524332303a20617070726f766520746f20746865207a65726f206164647265604482015261737360f01b606482015260840161049f565b6001600160a01b0383811660008181526001602090815260408083209487168084529482529182902085905590518481527f8c5be1e5ebec7d5bd14f71427d1e84f3dd0314c0f7b2291e5b200ac8c7c3b925910160405180910390a3505050565b6001600160a01b038316610ce95760405162461bcd60e51b815260206004820152602560248201527f45524332303a207472616e736665722066726f6d20746865207a65726f206164604482015264647265737360d81b606482015260840161049f565b6001600160a01b038216610d4b5760405162461bcd60e51b815260206004820152602360248201527f45524332303a207472616e7366657220746f20746865207a65726f206164647260448201526265737360e81b606482015260840161049f565b610d56838383610e5f565b6001600160a01b03831660009081526020819052604090205481811015610dce5760405162461bcd60e51b815260206004820152602660248201527f45524332303a207472616e7366657220616d6f756e7420657863656564732062604482015265616c616e636560d01b606482015260840161049f565b6001600160a01b03808516600090815260208190526040808220858503905591851681529081208054849290610e05908490611058565b92505081905550826001600160a01b0316846001600160a01b03167fddf252ad1be2c89b69c2b068fc378daa952ba7f163c4a11628f55a4df523b3ef84604051610e5191815260200190565b60405180910390a350505050565b60405162461bcd60e51b815260206004820152601060248201526f4e6f6e2d7472616e7366657261626c6560801b604482015260640161049f565b600060208083528351808285015260005b81811015610ec757858101830151858201604001528201610eab565b81811115610ed9576000604083870101525b50601f01601f1916929092016040019392505050565b6001600160a01b0381168114610f0457600080fd5b50565b60008060408385031215610f1a57600080fd5b8235610f2581610eef565b946020939093013593505050565b600080600060608486031215610f4857600080fd5b8335610f5381610eef565b92506020840135610f6381610eef565b929592945050506040919091013590565b600060208284031215610f8657600080fd5b8135610f9181610eef565b9392505050565b60008060408385031215610fab57600080fd5b8235610fb681610eef565b91506020830135610fc681610eef565b809150509250929050565b600181811c90821680610fe557607f821691505b6020821081141561100657634e487b7160e01b600052602260045260246000fd5b50919050565b60006020828403121561101e57600080fd5b8151610f9181610eef565b60006020828403121561103b57600080fd5b5051919050565b634e487b7160e01b600052601160045260246000fd5b6000821982111561106b5761106b611042565b500190565b634e487b7160e01b600052604160045260246000fd5b6000602080838503121561109957600080fd5b825167ffffffffffffffff808211156110b157600080fd5b818501915085601f8301126110c557600080fd5b8151818111156110d7576110d7611070565b8060051b604051601f19603f830116810181811085821117156110fc576110fc611070565b60405291825284820192508381018501918883111561111a57600080fd5b938501935b828510156111385784518452938501939285019261111f565b98975050505050505050565b634e487b7160e01b600052603260045260246000fd5b600080600080600080600060e0888a03121561117557600080fd5b875196506020880151955060408801519450606088015193506080880151925060a0880151915060c0880151600581106111ae57600080fd5b8091505092959891949750929550565b60208101600583106111e057634e487b7160e01b600052602160045260246000fd5b91905290565b600080604083850312156111f957600080fd5b505080516020909101519092909150565b600081600019048311821515161561122457611224611042565b500290565b60008261124657634e487b7160e01b600052601260045260246000fd5b500490565b600060001982141561125f5761125f611042565b5060010190565b80516001600160701b038116811461127d57600080fd5b919050565b60008060006060848603121561129757600080fd5b6112a084611266565b92506112ae60208501611266565b9150604084015163ffffffff811681146112c757600080fd5b80915050925092509256fea2646970667358221220c84c83be480d548e0ba174b05ae8c0557fb9bff951717ce47c215b619f49647664736f6c634300080b0033",
  "devdoc": {
    "kind": "dev",
    "methods": {
      "allowance(address,address)": {
        "details": "See {IERC20-allowance}."
      },
      "approve(address,uint256)": {
        "details": "See {IERC20-approve}. Requirements: - `spender` cannot be the zero address."
      },
      "decimals()": {
        "details": "Returns the number of decimals used to get its user representation. For example, if `decimals` equals `2`, a balance of `505` tokens should be displayed to a user as `5.05` (`505 / 10 ** 2`). Tokens usually opt for a value of 18, imitating the relationship between Ether and Wei. This is the value {ERC20} uses, unless this function is overridden; NOTE: This information is only used for _display_ purposes: it in no way affects any of the arithmetic of the contract, including {IERC20-balanceOf} and {IERC20-transfer}."
      },
      "decreaseAllowance(address,uint256)": {
        "details": "Atomically decreases the allowance granted to `spender` by the caller. This is an alternative to {approve} that can be used as a mitigation for problems described in {IERC20-approve}. Emits an {Approval} event indicating the updated allowance. Requirements: - `spender` cannot be the zero address. - `spender` must have allowance for the caller of at least `subtractedValue`."
      },
      "increaseAllowance(address,uint256)": {
        "details": "Atomically increases the allowance granted to `spender` by the caller. This is an alternative to {approve} that can be used as a mitigation for problems described in {IERC20-approve}. Emits an {Approval} event indicating the updated allowance. Requirements: - `spender` cannot be the zero address."
      },
      "name()": {
        "details": "Returns the name of the token."
      },
      "symbol()": {
        "details": "Returns the symbol of the token, usually a shorter version of the name."
      },
      "totalSupply()": {
        "details": "See {IERC20-totalSupply}."
      },
      "transfer(address,uint256)": {
        "details": "See {IERC20-transfer}. Requirements: - `recipient` cannot be the zero address. - the caller must have a balance of at least `amount`."
      },
      "transferFrom(address,address,uint256)": {
        "details": "See {IERC20-transferFrom}. Emits an {Approval} event indicating the updated allowance. This is not required by the EIP. See the note at the beginning of {ERC20}. Requirements: - `sender` and `recipient` cannot be the zero address. - `sender` must have a balance of at least `amount`. - the caller must have allowance for ``sender``'s tokens of at least `amount`."
      }
    },
    "version": 1
  },
  "userdoc": {
    "kind": "user",
    "methods": {},
    "version": 1
  },
  "storageLayout": {
    "storage": [
      {
        "astId": 5344,
        "contract": "contracts/MagicGov.sol:TreasureDAO",
        "label": "_balances",
        "offset": 0,
        "slot": "0",
        "type": "t_mapping(t_address,t_uint256)"
      },
      {
        "astId": 5350,
        "contract": "contracts/MagicGov.sol:TreasureDAO",
        "label": "_allowances",
        "offset": 0,
        "slot": "1",
        "type": "t_mapping(t_address,t_mapping(t_address,t_uint256))"
      },
      {
        "astId": 5352,
        "contract": "contracts/MagicGov.sol:TreasureDAO",
        "label": "_totalSupply",
        "offset": 0,
        "slot": "2",
        "type": "t_uint256"
      },
      {
        "astId": 5354,
        "contract": "contracts/MagicGov.sol:TreasureDAO",
        "label": "_name",
        "offset": 0,
        "slot": "3",
        "type": "t_string_storage"
      },
      {
        "astId": 5356,
        "contract": "contracts/MagicGov.sol:TreasureDAO",
        "label": "_symbol",
        "offset": 0,
        "slot": "4",
        "type": "t_string_storage"
      },
      {
        "astId": 12282,
        "contract": "contracts/MagicGov.sol:TreasureDAO",
        "label": "atlasMine",
        "offset": 0,
        "slot": "5",
        "type": "t_contract(AtlasMine)12265"
      },
      {
        "astId": 12285,
        "contract": "contracts/MagicGov.sol:TreasureDAO",
        "label": "sushiLP",
        "offset": 0,
        "slot": "6",
        "type": "t_contract(IUniswapV2Pair)13803"
      },
      {
        "astId": 12288,
        "contract": "contracts/MagicGov.sol:TreasureDAO",
        "label": "miniChefV2",
        "offset": 0,
        "slot": "7",
        "type": "t_contract(IMiniChefV2)13552"
      }
    ],
    "types": {
      "t_address": {
        "encoding": "inplace",
        "label": "address",
        "numberOfBytes": "20"
      },
      "t_contract(AtlasMine)12265": {
        "encoding": "inplace",
        "label": "contract AtlasMine",
        "numberOfBytes": "20"
      },
      "t_contract(IMiniChefV2)13552": {
        "encoding": "inplace",
        "label": "contract IMiniChefV2",
        "numberOfBytes": "20"
      },
      "t_contract(IUniswapV2Pair)13803": {
        "encoding": "inplace",
        "label": "contract IUniswapV2Pair",
        "numberOfBytes": "20"
      },
      "t_mapping(t_address,t_mapping(t_address,t_uint256))": {
        "encoding": "mapping",
        "key": "t_address",
        "label": "mapping(address => mapping(address => uint256))",
        "numberOfBytes": "32",
        "value": "t_mapping(t_address,t_uint256)"
      },
      "t_mapping(t_address,t_uint256)": {
        "encoding": "mapping",
        "key": "t_address",
        "label": "mapping(address => uint256)",
        "numberOfBytes": "32",
        "value": "t_uint256"
      },
      "t_string_storage": {
        "encoding": "bytes",
        "label": "string",
        "numberOfBytes": "32"
      },
      "t_uint256": {
        "encoding": "inplace",
        "label": "uint256",
        "numberOfBytes": "32"
      }
    }
  }
}