{
  "address": "0x51Fc5F5319E96157B32b15a12B408d4798f8BF16",
  "abi": [
    {
      "inputs": [
        {
          "internalType": "address",
          "name": "_treasuryMine",
          "type": "address"
        },
        {
          "internalType": "address",
          "name": "_sushiLP",
          "type": "address"
        },
        {
          "internalType": "address",
          "name": "_lpRewards",
          "type": "address"
        }
      ],
      "stateMutability": "nonpayable",
      "type": "constructor"
    },
    {
      "anonymous": false,
      "inputs": [
        {
          "indexed": true,
          "internalType": "address",
          "name": "owner",
          "type": "address"
        },
        {
          "indexed": true,
          "internalType": "address",
          "name": "spender",
          "type": "address"
        },
        {
          "indexed": false,
          "internalType": "uint256",
          "name": "value",
          "type": "uint256"
        }
      ],
      "name": "Approval",
      "type": "event"
    },
    {
      "anonymous": false,
      "inputs": [
        {
          "indexed": true,
          "internalType": "address",
          "name": "from",
          "type": "address"
        },
        {
          "indexed": true,
          "internalType": "address",
          "name": "to",
          "type": "address"
        },
        {
          "indexed": false,
          "internalType": "uint256",
          "name": "value",
          "type": "uint256"
        }
      ],
      "name": "Transfer",
      "type": "event"
    },
    {
      "inputs": [
        {
          "internalType": "address",
          "name": "owner",
          "type": "address"
        },
        {
          "internalType": "address",
          "name": "spender",
          "type": "address"
        }
      ],
      "name": "allowance",
      "outputs": [
        {
          "internalType": "uint256",
          "name": "",
          "type": "uint256"
        }
      ],
      "stateMutability": "view",
      "type": "function"
    },
    {
      "inputs": [
        {
          "internalType": "address",
          "name": "spender",
          "type": "address"
        },
        {
          "internalType": "uint256",
          "name": "amount",
          "type": "uint256"
        }
      ],
      "name": "approve",
      "outputs": [
        {
          "internalType": "bool",
          "name": "",
          "type": "bool"
        }
      ],
      "stateMutability": "nonpayable",
      "type": "function"
    },
    {
      "inputs": [
        {
          "internalType": "address",
          "name": "_account",
          "type": "address"
        }
      ],
      "name": "balanceOf",
      "outputs": [
        {
          "internalType": "uint256",
          "name": "",
          "type": "uint256"
        }
      ],
      "stateMutability": "view",
      "type": "function"
    },
    {
      "inputs": [],
      "name": "decimals",
      "outputs": [
        {
          "internalType": "uint8",
          "name": "",
          "type": "uint8"
        }
      ],
      "stateMutability": "view",
      "type": "function"
    },
    {
      "inputs": [
        {
          "internalType": "address",
          "name": "spender",
          "type": "address"
        },
        {
          "internalType": "uint256",
          "name": "subtractedValue",
          "type": "uint256"
        }
      ],
      "name": "decreaseAllowance",
      "outputs": [
        {
          "internalType": "bool",
          "name": "",
          "type": "bool"
        }
      ],
      "stateMutability": "nonpayable",
      "type": "function"
    },
    {
      "inputs": [
        {
          "internalType": "address",
          "name": "_account",
          "type": "address"
        }
      ],
      "name": "getLPBalance",
      "outputs": [
        {
          "internalType": "uint256",
          "name": "",
          "type": "uint256"
        }
      ],
      "stateMutability": "view",
      "type": "function"
    },
    {
      "inputs": [
        {
          "internalType": "address",
          "name": "_account",
          "type": "address"
        }
      ],
      "name": "getMineBalance",
      "outputs": [
        {
          "internalType": "uint256",
          "name": "userMineBalance",
          "type": "uint256"
        }
      ],
      "stateMutability": "view",
      "type": "function"
    },
    {
      "inputs": [
        {
          "internalType": "address",
          "name": "spender",
          "type": "address"
        },
        {
          "internalType": "uint256",
          "name": "addedValue",
          "type": "uint256"
        }
      ],
      "name": "increaseAllowance",
      "outputs": [
        {
          "internalType": "bool",
          "name": "",
          "type": "bool"
        }
      ],
      "stateMutability": "nonpayable",
      "type": "function"
    },
    {
      "inputs": [],
      "name": "lpRewards",
      "outputs": [
        {
          "internalType": "contract ERC20",
          "name": "",
          "type": "address"
        }
      ],
      "stateMutability": "view",
      "type": "function"
    },
    {
      "inputs": [],
      "name": "name",
      "outputs": [
        {
          "internalType": "string",
          "name": "",
          "type": "string"
        }
      ],
      "stateMutability": "view",
      "type": "function"
    },
    {
      "inputs": [],
      "name": "sushiLP",
      "outputs": [
        {
          "internalType": "contract IUniswapV2Pair",
          "name": "",
          "type": "address"
        }
      ],
      "stateMutability": "view",
      "type": "function"
    },
    {
      "inputs": [],
      "name": "symbol",
      "outputs": [
        {
          "internalType": "string",
          "name": "",
          "type": "string"
        }
      ],
      "stateMutability": "view",
      "type": "function"
    },
    {
      "inputs": [],
      "name": "totalSupply",
      "outputs": [
        {
          "internalType": "uint256",
          "name": "",
          "type": "uint256"
        }
      ],
      "stateMutability": "view",
      "type": "function"
    },
    {
      "inputs": [
        {
          "internalType": "address",
          "name": "recipient",
          "type": "address"
        },
        {
          "internalType": "uint256",
          "name": "amount",
          "type": "uint256"
        }
      ],
      "name": "transfer",
      "outputs": [
        {
          "internalType": "bool",
          "name": "",
          "type": "bool"
        }
      ],
      "stateMutability": "nonpayable",
      "type": "function"
    },
    {
      "inputs": [
        {
          "internalType": "address",
          "name": "sender",
          "type": "address"
        },
        {
          "internalType": "address",
          "name": "recipient",
          "type": "address"
        },
        {
          "internalType": "uint256",
          "name": "amount",
          "type": "uint256"
        }
      ],
      "name": "transferFrom",
      "outputs": [
        {
          "internalType": "bool",
          "name": "",
          "type": "bool"
        }
      ],
      "stateMutability": "nonpayable",
      "type": "function"
    },
    {
      "inputs": [],
      "name": "treasuryMine",
      "outputs": [
        {
          "internalType": "contract TreasuryMine",
          "name": "",
          "type": "address"
        }
      ],
      "stateMutability": "view",
      "type": "function"
    }
  ],
  "transactionHash": "0xcd03a8b0da8b317125f2ace4bc830762688d488b67bc8327edcf330dce6d2294",
  "args": [
    "0xDf19f1216aA406DF8bC585246bee7D96933f285F",
    "0xB7E50106A5bd3Cf21AF210A755F9C8740890A8c9",
    "0x73EB8b2b235F7957f830ea66ABE433D9EED9f0E3"
  ],
  "solcInputHash": "840ade874a1471b0c00a4e030de8320f",
  "bytecode": "0x60806040523480156200001157600080fd5b5060405162001465380380620014658339810160408190526200003491620001b6565b604080518082018252601781527f54726561737572652044414f20476f7665726e616e6365000000000000000000602080830191825283518085019094526006845265674d4147494360d01b9084015281519192916200009791600391620000f3565b508051620000ad906004906020840190620000f3565b5050600580546001600160a01b039586166001600160a01b031991821617909155600680549486169482169490941790935550600780549190931691161790556200023d565b828054620001019062000200565b90600052602060002090601f01602090048101928262000125576000855562000170565b82601f106200014057805160ff191683800117855562000170565b8280016001018555821562000170579182015b828111156200017057825182559160200191906001019062000153565b506200017e92915062000182565b5090565b5b808211156200017e576000815560010162000183565b80516001600160a01b0381168114620001b157600080fd5b919050565b600080600060608486031215620001cc57600080fd5b620001d78462000199565b9250620001e76020850162000199565b9150620001f76040850162000199565b90509250925092565b600181811c908216806200021557607f821691505b602082108114156200023757634e487b7160e01b600052602260045260246000fd5b50919050565b611218806200024d6000396000f3fe608060405234801561001057600080fd5b50600436106101005760003560e01c806370a0823111610097578063adc8566e11610066578063adc8566e14610210578063d2258beb14610223578063dd62ed3e14610236578063f828b6561461026f57600080fd5b806370a08231146101cf57806395d89b41146101e2578063a457c2d7146101ea578063a9059cbb146101fd57600080fd5b806323b872dd116100d357806323b872dd14610187578063313ce5671461019a57806339509351146101a95780636742508c146101bc57600080fd5b806306fdde0314610105578063095ea7b3146101235780630c7621411461014657806318160ddd14610171575b600080fd5b61010d610282565b60405161011a9190611084565b60405180910390f35b610136610131366004610ed9565b610314565b604051901515815260200161011a565b600754610159906001600160a01b031681565b6040516001600160a01b03909116815260200161011a565b61017961032a565b60405190815260200161011a565b610136610195366004610e98565b61041c565b6040516012815260200161011a565b6101366101b7366004610ed9565b6104cb565b6101796101ca366004610e1e565b610507565b6101796101dd366004610e1e565b610676565b61010d61069a565b6101366101f8366004610ed9565b6106a9565b61013661020b366004610ed9565b610742565b600554610159906001600160a01b031681565b610179610231366004610e1e565b61074f565b610179610244366004610e5f565b6001600160a01b03918216600090815260016020908152604080832093909416825291909152205490565b600654610159906001600160a01b031681565b60606003805461029190611132565b80601f01602080910402602001604051908101604052809291908181526020018280546102bd90611132565b801561030a5780601f106102df5761010080835404028352916020019161030a565b820191906000526020600020905b8154815290600101906020018083116102ed57829003601f168201915b5050505050905090565b6000610321338484610ac9565b50600192915050565b600554604080516306c2a32360e11b815290516000926001600160a01b031691630d854646916004808301926020929190829003018186803b15801561036f57600080fd5b505afa158015610383573d6000803e3d6000fd5b505050506040513d601f19601f820116820180604052508101906103a79190610e42565b6001600160a01b03166318160ddd6040518163ffffffff1660e01b815260040160206040518083038186803b1580156103df57600080fd5b505afa1580156103f3573d6000803e3d6000fd5b505050506040513d601f19601f82011682018060405250810190610417919061101a565b905090565b6000610429848484610bed565b6001600160a01b0384166000908152600160209081526040808320338452909152902054828110156104b35760405162461bcd60e51b815260206004820152602860248201527f45524332303a207472616e7366657220616d6f756e74206578636565647320616044820152676c6c6f77616e636560c01b60648201526084015b60405180910390fd5b6104c08533858403610ac9565b506001949350505050565b3360008181526001602090815260408083206001600160a01b038716845290915281205490916103219185906105029086906110d9565b610ac9565b6005546040516306ea08bd60e11b81526001600160a01b0383811660048301526000928392911690630dd4117a9060240160006040518083038186803b15801561055057600080fd5b505afa158015610564573d6000803e3d6000fd5b505050506040513d6000823e601f3d908101601f1916820160405261058c9190810190610f05565b805190915060005b8181101561066e5760008382815181106105b0576105b061119e565b60209081029190910101516005546040516321ce919d60e01b81526001600160a01b03898116600483015260248201849052929350600092909116906321ce919d9060440160a06040518083038186803b15801561060d57600080fd5b505afa158015610621573d6000803e3d6000fd5b505050506040513d601f19601f820116820180604052508101906106459190611033565b505050915050808661065791906110d9565b9550505080806106669061116d565b915050610594565b505050919050565b60006106818261074f565b61068a83610507565b61069491906110d9565b92915050565b60606004805461029190611132565b3360009081526001602090815260408083206001600160a01b03861684529091528120548281101561072b5760405162461bcd60e51b815260206004820152602560248201527f45524332303a2064656372656173656420616c6c6f77616e63652062656c6f77604482015264207a65726f60d81b60648201526084016104aa565b6107383385858403610ac9565b5060019392505050565b6000610321338484610bed565b6007546040516370a0823160e01b81526001600160a01b03838116600483015260009283929116906370a082319060240160206040518083038186803b15801561079857600080fd5b505afa1580156107ac573d6000803e3d6000fd5b505050506040513d601f19601f820116820180604052508101906107d0919061101a565b9050600080600660009054906101000a90046001600160a01b03166001600160a01b0316630902f1ac6040518163ffffffff1660e01b815260040160606040518083038186803b15801561082357600080fd5b505afa158015610837573d6000803e3d6000fd5b505050506040513d601f19601f8201168201806040525081019061085b9190610fca565b5091509150600660009054906101000a90046001600160a01b03166001600160a01b0316630dfe16816040518163ffffffff1660e01b815260040160206040518083038186803b1580156108ae57600080fd5b505afa1580156108c2573d6000803e3d6000fd5b505050506040513d601f19601f820116820180604052508101906108e69190610e42565b6001600160a01b0316600560009054906101000a90046001600160a01b03166001600160a01b0316630d8546466040518163ffffffff1660e01b815260040160206040518083038186803b15801561093d57600080fd5b505afa158015610951573d6000803e3d6000fd5b505050506040513d601f19601f820116820180604052508101906109759190610e42565b6001600160a01b03161415610a3057600660009054906101000a90046001600160a01b03166001600160a01b03166318160ddd6040518163ffffffff1660e01b815260040160206040518083038186803b1580156109d257600080fd5b505afa1580156109e6573d6000803e3d6000fd5b505050506040513d601f19601f82011682018060405250810190610a0a919061101a565b610a1d846001600160701b038516611113565b610a2791906110f1565b95945050505050565b600660009054906101000a90046001600160a01b03166001600160a01b03166318160ddd6040518163ffffffff1660e01b815260040160206040518083038186803b158015610a7e57600080fd5b505afa158015610a92573d6000803e3d6000fd5b505050506040513d601f19601f82011682018060405250810190610ab6919061101a565b610a1d846001600160701b038416611113565b6001600160a01b038316610b2b5760405162461bcd60e51b8152602060048201526024808201527f45524332303a20617070726f76652066726f6d20746865207a65726f206164646044820152637265737360e01b60648201526084016104aa565b6001600160a01b038216610b8c5760405162461bcd60e51b815260206004820152602260248201527f45524332303a20617070726f766520746f20746865207a65726f206164647265604482015261737360f01b60648201526084016104aa565b6001600160a01b0383811660008181526001602090815260408083209487168084529482529182902085905590518481527f8c5be1e5ebec7d5bd14f71427d1e84f3dd0314c0f7b2291e5b200ac8c7c3b925910160405180910390a3505050565b6001600160a01b038316610c515760405162461bcd60e51b815260206004820152602560248201527f45524332303a207472616e736665722066726f6d20746865207a65726f206164604482015264647265737360d81b60648201526084016104aa565b6001600160a01b038216610cb35760405162461bcd60e51b815260206004820152602360248201527f45524332303a207472616e7366657220746f20746865207a65726f206164647260448201526265737360e81b60648201526084016104aa565b610cbe838383610dc7565b6001600160a01b03831660009081526020819052604090205481811015610d365760405162461bcd60e51b815260206004820152602660248201527f45524332303a207472616e7366657220616d6f756e7420657863656564732062604482015265616c616e636560d01b60648201526084016104aa565b6001600160a01b03808516600090815260208190526040808220858503905591851681529081208054849290610d6d9084906110d9565b92505081905550826001600160a01b0316846001600160a01b03167fddf252ad1be2c89b69c2b068fc378daa952ba7f163c4a11628f55a4df523b3ef84604051610db991815260200190565b60405180910390a350505050565b60405162461bcd60e51b815260206004820152601060248201526f4e6f6e2d7472616e7366657261626c6560801b60448201526064016104aa565b80516001600160701b0381168114610e1957600080fd5b919050565b600060208284031215610e3057600080fd5b8135610e3b816111ca565b9392505050565b600060208284031215610e5457600080fd5b8151610e3b816111ca565b60008060408385031215610e7257600080fd5b8235610e7d816111ca565b91506020830135610e8d816111ca565b809150509250929050565b600080600060608486031215610ead57600080fd5b8335610eb8816111ca565b92506020840135610ec8816111ca565b929592945050506040919091013590565b60008060408385031215610eec57600080fd5b8235610ef7816111ca565b946020939093013593505050565b60006020808385031215610f1857600080fd5b825167ffffffffffffffff80821115610f3057600080fd5b818501915085601f830112610f4457600080fd5b815181811115610f5657610f566111b4565b8060051b604051601f19603f83011681018181108582111715610f7b57610f7b6111b4565b604052828152858101935084860182860187018a1015610f9a57600080fd5b600095505b83861015610fbd578051855260019590950194938601938601610f9f565b5098975050505050505050565b600080600060608486031215610fdf57600080fd5b610fe884610e02565b9250610ff660208501610e02565b9150604084015163ffffffff8116811461100f57600080fd5b809150509250925092565b60006020828403121561102c57600080fd5b5051919050565b600080600080600060a0868803121561104b57600080fd5b8551945060208601519350604086015192506060860151915060808601516003811061107657600080fd5b809150509295509295909350565b600060208083528351808285015260005b818110156110b157858101830151858201604001528201611095565b818111156110c3576000604083870101525b50601f01601f1916929092016040019392505050565b600082198211156110ec576110ec611188565b500190565b60008261110e57634e487b7160e01b600052601260045260246000fd5b500490565b600081600019048311821515161561112d5761112d611188565b500290565b600181811c9082168061114657607f821691505b6020821081141561116757634e487b7160e01b600052602260045260246000fd5b50919050565b600060001982141561118157611181611188565b5060010190565b634e487b7160e01b600052601160045260246000fd5b634e487b7160e01b600052603260045260246000fd5b634e487b7160e01b600052604160045260246000fd5b6001600160a01b03811681146111df57600080fd5b5056fea264697066735822122017366c279add497f0cc8a06d274f01966e6b0ac595009d104a48391a22696e0364736f6c63430008070033",
  "devdoc": {
    "kind": "dev",
    "methods": {
      "allowance(address,address)": {
        "details": "See {IERC20-allowance}."
      },
      "approve(address,uint256)": {
        "details": "See {IERC20-approve}. Requirements: - `spender` cannot be the zero address."
      },
      "decimals()": {
        "details": "Returns the number of decimals used to get its user representation. For example, if `decimals` equals `2`, a balance of `505` tokens should be displayed to a user as `5.05` (`505 / 10 ** 2`). Tokens usually opt for a value of 18, imitating the relationship between Ether and Wei. This is the value {ERC20} uses, unless this function is overridden; NOTE: This information is only used for _display_ purposes: it in no way affects any of the arithmetic of the contract, including {IERC20-balanceOf} and {IERC20-transfer}."
      },
      "decreaseAllowance(address,uint256)": {
        "details": "Atomically decreases the allowance granted to `spender` by the caller. This is an alternative to {approve} that can be used as a mitigation for problems described in {IERC20-approve}. Emits an {Approval} event indicating the updated allowance. Requirements: - `spender` cannot be the zero address. - `spender` must have allowance for the caller of at least `subtractedValue`."
      },
      "increaseAllowance(address,uint256)": {
        "details": "Atomically increases the allowance granted to `spender` by the caller. This is an alternative to {approve} that can be used as a mitigation for problems described in {IERC20-approve}. Emits an {Approval} event indicating the updated allowance. Requirements: - `spender` cannot be the zero address."
      },
      "name()": {
        "details": "Returns the name of the token."
      },
      "symbol()": {
        "details": "Returns the symbol of the token, usually a shorter version of the name."
      },
      "totalSupply()": {
        "details": "See {IERC20-totalSupply}."
      },
      "transfer(address,uint256)": {
        "details": "See {IERC20-transfer}. Requirements: - `recipient` cannot be the zero address. - the caller must have a balance of at least `amount`."
      },
      "transferFrom(address,address,uint256)": {
        "details": "See {IERC20-transferFrom}. Emits an {Approval} event indicating the updated allowance. This is not required by the EIP. See the note at the beginning of {ERC20}. Requirements: - `sender` and `recipient` cannot be the zero address. - `sender` must have a balance of at least `amount`. - the caller must have allowance for ``sender``'s tokens of at least `amount`."
      }
    },
    "version": 1
  },
  "userdoc": {
    "kind": "user",
    "methods": {},
    "version": 1
  },
  "storageLayout": {
    "storage": [
      {
        "astId": 2454,
        "contract": "contracts/MagicGov.sol:TreasureDAO",
        "label": "_balances",
        "offset": 0,
        "slot": "0",
        "type": "t_mapping(t_address,t_uint256)"
      },
      {
        "astId": 2460,
        "contract": "contracts/MagicGov.sol:TreasureDAO",
        "label": "_allowances",
        "offset": 0,
        "slot": "1",
        "type": "t_mapping(t_address,t_mapping(t_address,t_uint256))"
      },
      {
        "astId": 2462,
        "contract": "contracts/MagicGov.sol:TreasureDAO",
        "label": "_totalSupply",
        "offset": 0,
        "slot": "2",
        "type": "t_uint256"
      },
      {
        "astId": 2464,
        "contract": "contracts/MagicGov.sol:TreasureDAO",
        "label": "_name",
        "offset": 0,
        "slot": "3",
        "type": "t_string_storage"
      },
      {
        "astId": 2466,
        "contract": "contracts/MagicGov.sol:TreasureDAO",
        "label": "_symbol",
        "offset": 0,
        "slot": "4",
        "type": "t_string_storage"
      },
      {
        "astId": 6549,
        "contract": "contracts/MagicGov.sol:TreasureDAO",
        "label": "treasuryMine",
        "offset": 0,
        "slot": "5",
        "type": "t_contract(TreasuryMine)8378"
      },
      {
        "astId": 6552,
        "contract": "contracts/MagicGov.sol:TreasureDAO",
        "label": "sushiLP",
        "offset": 0,
        "slot": "6",
        "type": "t_contract(IUniswapV2Pair)9953"
      },
      {
        "astId": 6555,
        "contract": "contracts/MagicGov.sol:TreasureDAO",
        "label": "lpRewards",
        "offset": 0,
        "slot": "7",
        "type": "t_contract(ERC20)2984"
      }
    ],
    "types": {
      "t_address": {
        "encoding": "inplace",
        "label": "address",
        "numberOfBytes": "20"
      },
      "t_contract(ERC20)2984": {
        "encoding": "inplace",
        "label": "contract ERC20",
        "numberOfBytes": "20"
      },
      "t_contract(IUniswapV2Pair)9953": {
        "encoding": "inplace",
        "label": "contract IUniswapV2Pair",
        "numberOfBytes": "20"
      },
      "t_contract(TreasuryMine)8378": {
        "encoding": "inplace",
        "label": "contract TreasuryMine",
        "numberOfBytes": "20"
      },
      "t_mapping(t_address,t_mapping(t_address,t_uint256))": {
        "encoding": "mapping",
        "key": "t_address",
        "label": "mapping(address => mapping(address => uint256))",
        "numberOfBytes": "32",
        "value": "t_mapping(t_address,t_uint256)"
      },
      "t_mapping(t_address,t_uint256)": {
        "encoding": "mapping",
        "key": "t_address",
        "label": "mapping(address => uint256)",
        "numberOfBytes": "32",
        "value": "t_uint256"
      },
      "t_string_storage": {
        "encoding": "bytes",
        "label": "string",
        "numberOfBytes": "32"
      },
      "t_uint256": {
        "encoding": "inplace",
        "label": "uint256",
        "numberOfBytes": "32"
      }
    }
  }
}