{
  "address": "0xEAE41dC12a10b33C6EfA415Efbb0818CDC026c5f",
  "abi": [
    {
      "anonymous": false,
      "inputs": [
        {
          "indexed": true,
          "internalType": "address",
          "name": "user",
          "type": "address"
        },
        {
          "indexed": true,
          "internalType": "uint256",
          "name": "index",
          "type": "uint256"
        },
        {
          "indexed": false,
          "internalType": "uint256",
          "name": "amount",
          "type": "uint256"
        },
        {
          "indexed": false,
          "internalType": "enum AtlasMine.Lock",
          "name": "lock",
          "type": "uint8"
        }
      ],
      "name": "Deposit",
      "type": "event"
    },
    {
      "anonymous": false,
      "inputs": [
        {
          "indexed": true,
          "internalType": "address",
          "name": "user",
          "type": "address"
        },
        {
          "indexed": true,
          "internalType": "uint256",
          "name": "index",
          "type": "uint256"
        },
        {
          "indexed": false,
          "internalType": "uint256",
          "name": "amount",
          "type": "uint256"
        }
      ],
      "name": "Harvest",
      "type": "event"
    },
    {
      "anonymous": false,
      "inputs": [
        {
          "indexed": false,
          "internalType": "uint256",
          "name": "distributedRewards",
          "type": "uint256"
        },
        {
          "indexed": false,
          "internalType": "uint256",
          "name": "undistributedRewards",
          "type": "uint256"
        },
        {
          "indexed": false,
          "internalType": "uint256",
          "name": "lpSupply",
          "type": "uint256"
        },
        {
          "indexed": false,
          "internalType": "uint256",
          "name": "accMagicPerShare",
          "type": "uint256"
        }
      ],
      "name": "LogUpdateRewards",
      "type": "event"
    },
    {
      "anonymous": false,
      "inputs": [
        {
          "indexed": true,
          "internalType": "bytes32",
          "name": "role",
          "type": "bytes32"
        },
        {
          "indexed": true,
          "internalType": "bytes32",
          "name": "previousAdminRole",
          "type": "bytes32"
        },
        {
          "indexed": true,
          "internalType": "bytes32",
          "name": "newAdminRole",
          "type": "bytes32"
        }
      ],
      "name": "RoleAdminChanged",
      "type": "event"
    },
    {
      "anonymous": false,
      "inputs": [
        {
          "indexed": true,
          "internalType": "bytes32",
          "name": "role",
          "type": "bytes32"
        },
        {
          "indexed": true,
          "internalType": "address",
          "name": "account",
          "type": "address"
        },
        {
          "indexed": true,
          "internalType": "address",
          "name": "sender",
          "type": "address"
        }
      ],
      "name": "RoleGranted",
      "type": "event"
    },
    {
      "anonymous": false,
      "inputs": [
        {
          "indexed": true,
          "internalType": "bytes32",
          "name": "role",
          "type": "bytes32"
        },
        {
          "indexed": true,
          "internalType": "address",
          "name": "account",
          "type": "address"
        },
        {
          "indexed": true,
          "internalType": "address",
          "name": "sender",
          "type": "address"
        }
      ],
      "name": "RoleRevoked",
      "type": "event"
    },
    {
      "anonymous": false,
      "inputs": [
        {
          "indexed": false,
          "internalType": "address",
          "name": "nft",
          "type": "address"
        },
        {
          "indexed": false,
          "internalType": "uint256",
          "name": "tokenId",
          "type": "uint256"
        },
        {
          "indexed": false,
          "internalType": "uint256",
          "name": "amount",
          "type": "uint256"
        },
        {
          "indexed": false,
          "internalType": "uint256",
          "name": "currentBoost",
          "type": "uint256"
        }
      ],
      "name": "Staked",
      "type": "event"
    },
    {
      "anonymous": false,
      "inputs": [
        {
          "indexed": true,
          "internalType": "address",
          "name": "to",
          "type": "address"
        },
        {
          "indexed": false,
          "internalType": "uint256",
          "name": "amount",
          "type": "uint256"
        }
      ],
      "name": "UndistributedRewardsWithdraw",
      "type": "event"
    },
    {
      "anonymous": false,
      "inputs": [
        {
          "indexed": false,
          "internalType": "address",
          "name": "nft",
          "type": "address"
        },
        {
          "indexed": false,
          "internalType": "uint256",
          "name": "tokenId",
          "type": "uint256"
        },
        {
          "indexed": false,
          "internalType": "uint256",
          "name": "amount",
          "type": "uint256"
        },
        {
          "indexed": false,
          "internalType": "uint256",
          "name": "currentBoost",
          "type": "uint256"
        }
      ],
      "name": "Unstaked",
      "type": "event"
    },
    {
      "anonymous": false,
      "inputs": [
        {
          "indexed": false,
          "internalType": "uint256",
          "name": "util",
          "type": "uint256"
        }
      ],
      "name": "UtilizationRate",
      "type": "event"
    },
    {
      "anonymous": false,
      "inputs": [
        {
          "indexed": true,
          "internalType": "address",
          "name": "user",
          "type": "address"
        },
        {
          "indexed": true,
          "internalType": "uint256",
          "name": "index",
          "type": "uint256"
        },
        {
          "indexed": false,
          "internalType": "uint256",
          "name": "amount",
          "type": "uint256"
        }
      ],
      "name": "Withdraw",
      "type": "event"
    },
    {
      "inputs": [],
      "name": "ATLAS_MINE_ADMIN_ROLE",
      "outputs": [
        {
          "internalType": "bytes32",
          "name": "",
          "type": "bytes32"
        }
      ],
      "stateMutability": "view",
      "type": "function"
    },
    {
      "inputs": [],
      "name": "DAY",
      "outputs": [
        {
          "internalType": "uint256",
          "name": "",
          "type": "uint256"
        }
      ],
      "stateMutability": "view",
      "type": "function"
    },
    {
      "inputs": [],
      "name": "DEFAULT_ADMIN_ROLE",
      "outputs": [
        {
          "internalType": "bytes32",
          "name": "",
          "type": "bytes32"
        }
      ],
      "stateMutability": "view",
      "type": "function"
    },
    {
      "inputs": [],
      "name": "ONE",
      "outputs": [
        {
          "internalType": "uint256",
          "name": "",
          "type": "uint256"
        }
      ],
      "stateMutability": "view",
      "type": "function"
    },
    {
      "inputs": [],
      "name": "ONE_MONTH",
      "outputs": [
        {
          "internalType": "uint256",
          "name": "",
          "type": "uint256"
        }
      ],
      "stateMutability": "view",
      "type": "function"
    },
    {
      "inputs": [],
      "name": "ONE_WEEK",
      "outputs": [
        {
          "internalType": "uint256",
          "name": "",
          "type": "uint256"
        }
      ],
      "stateMutability": "view",
      "type": "function"
    },
    {
      "inputs": [],
      "name": "SIX_MONTHS",
      "outputs": [
        {
          "internalType": "uint256",
          "name": "",
          "type": "uint256"
        }
      ],
      "stateMutability": "view",
      "type": "function"
    },
    {
      "inputs": [],
      "name": "THREE_MONTHS",
      "outputs": [
        {
          "internalType": "uint256",
          "name": "",
          "type": "uint256"
        }
      ],
      "stateMutability": "view",
      "type": "function"
    },
    {
      "inputs": [],
      "name": "TWELVE_MONTHS",
      "outputs": [
        {
          "internalType": "uint256",
          "name": "",
          "type": "uint256"
        }
      ],
      "stateMutability": "view",
      "type": "function"
    },
    {
      "inputs": [],
      "name": "TWO_WEEKS",
      "outputs": [
        {
          "internalType": "uint256",
          "name": "",
          "type": "uint256"
        }
      ],
      "stateMutability": "view",
      "type": "function"
    },
    {
      "inputs": [],
      "name": "accMagicPerShare",
      "outputs": [
        {
          "internalType": "uint256",
          "name": "",
          "type": "uint256"
        }
      ],
      "stateMutability": "view",
      "type": "function"
    },
    {
      "inputs": [
        {
          "internalType": "address",
          "name": "_exclude",
          "type": "address"
        }
      ],
      "name": "addExcludedAddress",
      "outputs": [],
      "stateMutability": "nonpayable",
      "type": "function"
    },
    {
      "inputs": [
        {
          "internalType": "address",
          "name": "",
          "type": "address"
        }
      ],
      "name": "boosts",
      "outputs": [
        {
          "internalType": "uint256",
          "name": "",
          "type": "uint256"
        }
      ],
      "stateMutability": "view",
      "type": "function"
    },
    {
      "inputs": [
        {
          "internalType": "address",
          "name": "_user",
          "type": "address"
        },
        {
          "internalType": "uint256",
          "name": "_depositId",
          "type": "uint256"
        }
      ],
      "name": "calcualteVestedPrincipal",
      "outputs": [
        {
          "internalType": "uint256",
          "name": "amount",
          "type": "uint256"
        }
      ],
      "stateMutability": "view",
      "type": "function"
    },
    {
      "inputs": [
        {
          "internalType": "address",
          "name": "",
          "type": "address"
        }
      ],
      "name": "currentId",
      "outputs": [
        {
          "internalType": "uint256",
          "name": "",
          "type": "uint256"
        }
      ],
      "stateMutability": "view",
      "type": "function"
    },
    {
      "inputs": [
        {
          "internalType": "uint256",
          "name": "_amount",
          "type": "uint256"
        },
        {
          "internalType": "enum AtlasMine.Lock",
          "name": "_lock",
          "type": "uint8"
        }
      ],
      "name": "deposit",
      "outputs": [],
      "stateMutability": "nonpayable",
      "type": "function"
    },
    {
      "inputs": [
        {
          "internalType": "address",
          "name": "_user",
          "type": "address"
        }
      ],
      "name": "getAllUserDepositIds",
      "outputs": [
        {
          "internalType": "uint256[]",
          "name": "",
          "type": "uint256[]"
        }
      ],
      "stateMutability": "view",
      "type": "function"
    },
    {
      "inputs": [],
      "name": "getExcludedAddresses",
      "outputs": [
        {
          "internalType": "address[]",
          "name": "",
          "type": "address[]"
        }
      ],
      "stateMutability": "view",
      "type": "function"
    },
    {
      "inputs": [
        {
          "internalType": "uint256",
          "name": "_legionGeneration",
          "type": "uint256"
        },
        {
          "internalType": "uint256",
          "name": "_legionRarity",
          "type": "uint256"
        }
      ],
      "name": "getLegionBoost",
      "outputs": [
        {
          "internalType": "uint256",
          "name": "",
          "type": "uint256"
        }
      ],
      "stateMutability": "view",
      "type": "function"
    },
    {
      "inputs": [],
      "name": "getLegionBoostMatrix",
      "outputs": [
        {
          "internalType": "uint256[][]",
          "name": "",
          "type": "uint256[][]"
        }
      ],
      "stateMutability": "view",
      "type": "function"
    },
    {
      "inputs": [
        {
          "internalType": "enum AtlasMine.Lock",
          "name": "_lock",
          "type": "uint8"
        }
      ],
      "name": "getLockBoost",
      "outputs": [
        {
          "internalType": "uint256",
          "name": "boost",
          "type": "uint256"
        },
        {
          "internalType": "uint256",
          "name": "timelock",
          "type": "uint256"
        }
      ],
      "stateMutability": "pure",
      "type": "function"
    },
    {
      "inputs": [
        {
          "internalType": "address",
          "name": "_nft",
          "type": "address"
        },
        {
          "internalType": "uint256",
          "name": "_tokenId",
          "type": "uint256"
        },
        {
          "internalType": "uint256",
          "name": "_amount",
          "type": "uint256"
        }
      ],
      "name": "getNftBoost",
      "outputs": [
        {
          "internalType": "uint256",
          "name": "",
          "type": "uint256"
        }
      ],
      "stateMutability": "view",
      "type": "function"
    },
    {
      "inputs": [
        {
          "internalType": "uint256",
          "name": "_magicReward",
          "type": "uint256"
        }
      ],
      "name": "getRealMagicReward",
      "outputs": [
        {
          "internalType": "uint256",
          "name": "distributedRewards",
          "type": "uint256"
        },
        {
          "internalType": "uint256",
          "name": "undistributedRewards",
          "type": "uint256"
        }
      ],
      "stateMutability": "view",
      "type": "function"
    },
    {
      "inputs": [
        {
          "internalType": "bytes32",
          "name": "role",
          "type": "bytes32"
        }
      ],
      "name": "getRoleAdmin",
      "outputs": [
        {
          "internalType": "bytes32",
          "name": "",
          "type": "bytes32"
        }
      ],
      "stateMutability": "view",
      "type": "function"
    },
    {
      "inputs": [
        {
          "internalType": "bytes32",
          "name": "role",
          "type": "bytes32"
        },
        {
          "internalType": "uint256",
          "name": "index",
          "type": "uint256"
        }
      ],
      "name": "getRoleMember",
      "outputs": [
        {
          "internalType": "address",
          "name": "",
          "type": "address"
        }
      ],
      "stateMutability": "view",
      "type": "function"
    },
    {
      "inputs": [
        {
          "internalType": "bytes32",
          "name": "role",
          "type": "bytes32"
        }
      ],
      "name": "getRoleMemberCount",
      "outputs": [
        {
          "internalType": "uint256",
          "name": "",
          "type": "uint256"
        }
      ],
      "stateMutability": "view",
      "type": "function"
    },
    {
      "inputs": [
        {
          "internalType": "address",
          "name": "_user",
          "type": "address"
        }
      ],
      "name": "getStakedLegions",
      "outputs": [
        {
          "internalType": "uint256[]",
          "name": "",
          "type": "uint256[]"
        }
      ],
      "stateMutability": "view",
      "type": "function"
    },
    {
      "inputs": [
        {
          "internalType": "uint256",
          "name": "_tokenId",
          "type": "uint256"
        },
        {
          "internalType": "uint256",
          "name": "_amount",
          "type": "uint256"
        }
      ],
      "name": "getTreasureBoost",
      "outputs": [
        {
          "internalType": "uint256",
          "name": "boost",
          "type": "uint256"
        }
      ],
      "stateMutability": "pure",
      "type": "function"
    },
    {
      "inputs": [
        {
          "internalType": "address",
          "name": "_user",
          "type": "address"
        }
      ],
      "name": "getUserBoost",
      "outputs": [
        {
          "internalType": "uint256",
          "name": "",
          "type": "uint256"
        }
      ],
      "stateMutability": "view",
      "type": "function"
    },
    {
      "inputs": [
        {
          "internalType": "enum AtlasMine.Lock",
          "name": "_lock",
          "type": "uint8"
        }
      ],
      "name": "getVestingTime",
      "outputs": [
        {
          "internalType": "uint256",
          "name": "vestingTime",
          "type": "uint256"
        }
      ],
      "stateMutability": "pure",
      "type": "function"
    },
    {
      "inputs": [
        {
          "internalType": "bytes32",
          "name": "role",
          "type": "bytes32"
        },
        {
          "internalType": "address",
          "name": "account",
          "type": "address"
        }
      ],
      "name": "grantRole",
      "outputs": [],
      "stateMutability": "nonpayable",
      "type": "function"
    },
    {
      "inputs": [],
      "name": "harvestAll",
      "outputs": [],
      "stateMutability": "nonpayable",
      "type": "function"
    },
    {
      "inputs": [
        {
          "internalType": "uint256",
          "name": "_depositId",
          "type": "uint256"
        }
      ],
      "name": "harvestPosition",
      "outputs": [],
      "stateMutability": "nonpayable",
      "type": "function"
    },
    {
      "inputs": [
        {
          "internalType": "bytes32",
          "name": "role",
          "type": "bytes32"
        },
        {
          "internalType": "address",
          "name": "account",
          "type": "address"
        }
      ],
      "name": "hasRole",
      "outputs": [
        {
          "internalType": "bool",
          "name": "",
          "type": "bool"
        }
      ],
      "stateMutability": "view",
      "type": "function"
    },
    {
      "inputs": [
        {
          "internalType": "address",
          "name": "_magic",
          "type": "address"
        },
        {
          "internalType": "address",
          "name": "_masterOfCoin",
          "type": "address"
        }
      ],
      "name": "init",
      "outputs": [],
      "stateMutability": "nonpayable",
      "type": "function"
    },
    {
      "inputs": [
        {
          "internalType": "uint256",
          "name": "_tokenId",
          "type": "uint256"
        }
      ],
      "name": "isLegion1_1",
      "outputs": [
        {
          "internalType": "bool",
          "name": "",
          "type": "bool"
        }
      ],
      "stateMutability": "view",
      "type": "function"
    },
    {
      "inputs": [
        {
          "internalType": "address",
          "name": "",
          "type": "address"
        }
      ],
      "name": "isLegion1_1Staked",
      "outputs": [
        {
          "internalType": "bool",
          "name": "",
          "type": "bool"
        }
      ],
      "stateMutability": "view",
      "type": "function"
    },
    {
      "inputs": [],
      "name": "legion",
      "outputs": [
        {
          "internalType": "address",
          "name": "",
          "type": "address"
        }
      ],
      "stateMutability": "view",
      "type": "function"
    },
    {
      "inputs": [
        {
          "internalType": "uint256",
          "name": "",
          "type": "uint256"
        },
        {
          "internalType": "uint256",
          "name": "",
          "type": "uint256"
        }
      ],
      "name": "legionBoostMatrix",
      "outputs": [
        {
          "internalType": "uint256",
          "name": "",
          "type": "uint256"
        }
      ],
      "stateMutability": "view",
      "type": "function"
    },
    {
      "inputs": [],
      "name": "legionMetadataStore",
      "outputs": [
        {
          "internalType": "address",
          "name": "",
          "type": "address"
        }
      ],
      "stateMutability": "view",
      "type": "function"
    },
    {
      "inputs": [],
      "name": "magic",
      "outputs": [
        {
          "internalType": "contract IERC20Upgradeable",
          "name": "",
          "type": "address"
        }
      ],
      "stateMutability": "view",
      "type": "function"
    },
    {
      "inputs": [],
      "name": "magicTotalDeposits",
      "outputs": [
        {
          "internalType": "uint256",
          "name": "",
          "type": "uint256"
        }
      ],
      "stateMutability": "view",
      "type": "function"
    },
    {
      "inputs": [],
      "name": "masterOfCoin",
      "outputs": [
        {
          "internalType": "contract IMasterOfCoin",
          "name": "",
          "type": "address"
        }
      ],
      "stateMutability": "view",
      "type": "function"
    },
    {
      "inputs": [
        {
          "internalType": "address",
          "name": "",
          "type": "address"
        },
        {
          "internalType": "address",
          "name": "",
          "type": "address"
        },
        {
          "internalType": "uint256[]",
          "name": "",
          "type": "uint256[]"
        },
        {
          "internalType": "uint256[]",
          "name": "",
          "type": "uint256[]"
        },
        {
          "internalType": "bytes",
          "name": "",
          "type": "bytes"
        }
      ],
      "name": "onERC1155BatchReceived",
      "outputs": [
        {
          "internalType": "bytes4",
          "name": "",
          "type": "bytes4"
        }
      ],
      "stateMutability": "nonpayable",
      "type": "function"
    },
    {
      "inputs": [
        {
          "internalType": "address",
          "name": "",
          "type": "address"
        },
        {
          "internalType": "address",
          "name": "",
          "type": "address"
        },
        {
          "internalType": "uint256",
          "name": "",
          "type": "uint256"
        },
        {
          "internalType": "uint256",
          "name": "",
          "type": "uint256"
        },
        {
          "internalType": "bytes",
          "name": "",
          "type": "bytes"
        }
      ],
      "name": "onERC1155Received",
      "outputs": [
        {
          "internalType": "bytes4",
          "name": "",
          "type": "bytes4"
        }
      ],
      "stateMutability": "nonpayable",
      "type": "function"
    },
    {
      "inputs": [
        {
          "internalType": "address",
          "name": "_user",
          "type": "address"
        }
      ],
      "name": "pendingRewardsAll",
      "outputs": [
        {
          "internalType": "uint256",
          "name": "pending",
          "type": "uint256"
        }
      ],
      "stateMutability": "view",
      "type": "function"
    },
    {
      "inputs": [
        {
          "internalType": "address",
          "name": "_user",
          "type": "address"
        },
        {
          "internalType": "uint256",
          "name": "_depositId",
          "type": "uint256"
        }
      ],
      "name": "pendingRewardsPosition",
      "outputs": [
        {
          "internalType": "uint256",
          "name": "pending",
          "type": "uint256"
        }
      ],
      "stateMutability": "view",
      "type": "function"
    },
    {
      "inputs": [
        {
          "internalType": "address",
          "name": "_excluded",
          "type": "address"
        }
      ],
      "name": "removeExcludedAddress",
      "outputs": [],
      "stateMutability": "nonpayable",
      "type": "function"
    },
    {
      "inputs": [
        {
          "internalType": "bytes32",
          "name": "role",
          "type": "bytes32"
        },
        {
          "internalType": "address",
          "name": "account",
          "type": "address"
        }
      ],
      "name": "renounceRole",
      "outputs": [],
      "stateMutability": "nonpayable",
      "type": "function"
    },
    {
      "inputs": [
        {
          "internalType": "bytes32",
          "name": "role",
          "type": "bytes32"
        },
        {
          "internalType": "address",
          "name": "account",
          "type": "address"
        }
      ],
      "name": "revokeRole",
      "outputs": [],
      "stateMutability": "nonpayable",
      "type": "function"
    },
    {
      "inputs": [
        {
          "internalType": "address",
          "name": "_legion",
          "type": "address"
        }
      ],
      "name": "setLegion",
      "outputs": [],
      "stateMutability": "nonpayable",
      "type": "function"
    },
    {
      "inputs": [
        {
          "internalType": "uint256[][]",
          "name": "_legionBoostMatrix",
          "type": "uint256[][]"
        }
      ],
      "name": "setLegionBoostMatrix",
      "outputs": [],
      "stateMutability": "nonpayable",
      "type": "function"
    },
    {
      "inputs": [
        {
          "internalType": "address",
          "name": "_legionMetadataStore",
          "type": "address"
        }
      ],
      "name": "setLegionMetadataStore",
      "outputs": [],
      "stateMutability": "nonpayable",
      "type": "function"
    },
    {
      "inputs": [
        {
          "internalType": "address",
          "name": "_magic",
          "type": "address"
        }
      ],
      "name": "setMagicToken",
      "outputs": [],
      "stateMutability": "nonpayable",
      "type": "function"
    },
    {
      "inputs": [
        {
          "internalType": "address",
          "name": "_treasure",
          "type": "address"
        }
      ],
      "name": "setTreasure",
      "outputs": [],
      "stateMutability": "nonpayable",
      "type": "function"
    },
    {
      "inputs": [
        {
          "internalType": "uint256",
          "name": "_utilizationOverride",
          "type": "uint256"
        }
      ],
      "name": "setUtilizationOverride",
      "outputs": [],
      "stateMutability": "nonpayable",
      "type": "function"
    },
    {
      "inputs": [
        {
          "internalType": "uint256",
          "name": "_tokenId",
          "type": "uint256"
        }
      ],
      "name": "stakeLegion",
      "outputs": [],
      "stateMutability": "nonpayable",
      "type": "function"
    },
    {
      "inputs": [
        {
          "internalType": "uint256",
          "name": "_tokenId",
          "type": "uint256"
        },
        {
          "internalType": "uint256",
          "name": "_amount",
          "type": "uint256"
        }
      ],
      "name": "stakeTreasure",
      "outputs": [],
      "stateMutability": "nonpayable",
      "type": "function"
    },
    {
      "inputs": [
        {
          "internalType": "bytes4",
          "name": "interfaceId",
          "type": "bytes4"
        }
      ],
      "name": "supportsInterface",
      "outputs": [
        {
          "internalType": "bool",
          "name": "",
          "type": "bool"
        }
      ],
      "stateMutability": "view",
      "type": "function"
    },
    {
      "inputs": [],
      "name": "toggleUnlockAll",
      "outputs": [],
      "stateMutability": "nonpayable",
      "type": "function"
    },
    {
      "inputs": [],
      "name": "totalLpToken",
      "outputs": [
        {
          "internalType": "uint256",
          "name": "",
          "type": "uint256"
        }
      ],
      "stateMutability": "view",
      "type": "function"
    },
    {
      "inputs": [],
      "name": "totalRewardsEarned",
      "outputs": [
        {
          "internalType": "uint256",
          "name": "",
          "type": "uint256"
        }
      ],
      "stateMutability": "view",
      "type": "function"
    },
    {
      "inputs": [],
      "name": "totalUndistributedRewards",
      "outputs": [
        {
          "internalType": "uint256",
          "name": "",
          "type": "uint256"
        }
      ],
      "stateMutability": "view",
      "type": "function"
    },
    {
      "inputs": [],
      "name": "treasure",
      "outputs": [
        {
          "internalType": "address",
          "name": "",
          "type": "address"
        }
      ],
      "stateMutability": "view",
      "type": "function"
    },
    {
      "inputs": [
        {
          "internalType": "address",
          "name": "",
          "type": "address"
        },
        {
          "internalType": "uint256",
          "name": "",
          "type": "uint256"
        }
      ],
      "name": "treasureStaked",
      "outputs": [
        {
          "internalType": "uint256",
          "name": "",
          "type": "uint256"
        }
      ],
      "stateMutability": "view",
      "type": "function"
    },
    {
      "inputs": [
        {
          "internalType": "address",
          "name": "",
          "type": "address"
        }
      ],
      "name": "treasureStakedAmount",
      "outputs": [
        {
          "internalType": "uint256",
          "name": "",
          "type": "uint256"
        }
      ],
      "stateMutability": "view",
      "type": "function"
    },
    {
      "inputs": [],
      "name": "unlockAll",
      "outputs": [
        {
          "internalType": "bool",
          "name": "",
          "type": "bool"
        }
      ],
      "stateMutability": "view",
      "type": "function"
    },
    {
      "inputs": [
        {
          "internalType": "uint256",
          "name": "_tokenId",
          "type": "uint256"
        }
      ],
      "name": "unstakeLegion",
      "outputs": [],
      "stateMutability": "nonpayable",
      "type": "function"
    },
    {
      "inputs": [
        {
          "internalType": "uint256",
          "name": "_tokenId",
          "type": "uint256"
        },
        {
          "internalType": "uint256",
          "name": "_amount",
          "type": "uint256"
        }
      ],
      "name": "unstakeTreasure",
      "outputs": [],
      "stateMutability": "nonpayable",
      "type": "function"
    },
    {
      "inputs": [
        {
          "internalType": "address",
          "name": "",
          "type": "address"
        },
        {
          "internalType": "uint256",
          "name": "",
          "type": "uint256"
        }
      ],
      "name": "userInfo",
      "outputs": [
        {
          "internalType": "uint256",
          "name": "originalDepositAmount",
          "type": "uint256"
        },
        {
          "internalType": "uint256",
          "name": "depositAmount",
          "type": "uint256"
        },
        {
          "internalType": "uint256",
          "name": "lpAmount",
          "type": "uint256"
        },
        {
          "internalType": "uint256",
          "name": "lockedUntil",
          "type": "uint256"
        },
        {
          "internalType": "uint256",
          "name": "vestingLastUpdate",
          "type": "uint256"
        },
        {
          "internalType": "int256",
          "name": "rewardDebt",
          "type": "int256"
        },
        {
          "internalType": "enum AtlasMine.Lock",
          "name": "lock",
          "type": "uint8"
        }
      ],
      "stateMutability": "view",
      "type": "function"
    },
    {
      "inputs": [],
      "name": "utilization",
      "outputs": [
        {
          "internalType": "uint256",
          "name": "util",
          "type": "uint256"
        }
      ],
      "stateMutability": "view",
      "type": "function"
    },
    {
      "inputs": [],
      "name": "utilizationOverride",
      "outputs": [
        {
          "internalType": "uint256",
          "name": "",
          "type": "uint256"
        }
      ],
      "stateMutability": "view",
      "type": "function"
    },
    {
      "inputs": [],
      "name": "withdrawAll",
      "outputs": [],
      "stateMutability": "nonpayable",
      "type": "function"
    },
    {
      "inputs": [],
      "name": "withdrawAndHarvestAll",
      "outputs": [],
      "stateMutability": "nonpayable",
      "type": "function"
    },
    {
      "inputs": [
        {
          "internalType": "uint256",
          "name": "_depositId",
          "type": "uint256"
        },
        {
          "internalType": "uint256",
          "name": "_amount",
          "type": "uint256"
        }
      ],
      "name": "withdrawAndHarvestPosition",
      "outputs": [],
      "stateMutability": "nonpayable",
      "type": "function"
    },
    {
      "inputs": [
        {
          "internalType": "uint256",
          "name": "_depositId",
          "type": "uint256"
        },
        {
          "internalType": "uint256",
          "name": "_amount",
          "type": "uint256"
        }
      ],
      "name": "withdrawPosition",
      "outputs": [
        {
          "internalType": "bool",
          "name": "",
          "type": "bool"
        }
      ],
      "stateMutability": "nonpayable",
      "type": "function"
    },
    {
      "inputs": [
        {
          "internalType": "address",
          "name": "_to",
          "type": "address"
        }
      ],
      "name": "withdrawUndistributedRewards",
      "outputs": [],
      "stateMutability": "nonpayable",
      "type": "function"
    }
  ],
  "transactionHash": "0x4640d4abd065eb5cddafcfc1a175caa296fa6d6d2108ba5b98937fbdedda481c",
  "args": [],
  "solcInputHash": "c6cc0ed35ae36ffe84c2a887b77b1e61",
  "bytecode": "0x608060405234801561001057600080fd5b50615a0680620000216000396000f3fe608060405234801561001057600080fd5b506004361061045f5760003560e01c8063884674b01161024c578063c924e99b11610146578063e2a2189a116100c3578063f15576a611610087578063f15576a614610a5d578063f23a6e6114610a67578063fcfce63f14610a86578063fd90904c14610a99578063fdabc98614610aac57600080fd5b8063e2a2189a14610a13578063e520fc7e14610a26578063ea21cd9214610a3a578063ecbefab714610a42578063f09a401614610a4a57600080fd5b8063d5713aea1161010a578063d5713aea146109b2578063d82b99d7146109c7578063d9914e85146109da578063df3418da146109ed578063df6564d414610a0057600080fd5b8063c924e99b14610949578063ca15c8731461096d578063cd24b0a314610980578063d0d1daf414610995578063d547741f1461099f57600080fd5b8063a646c35d116101d4578063ba579c7411610198578063ba579c74146108e6578063bc168ecb146108ee578063bc197c81146108f8578063c2ee3a0814610930578063c47b633f1461093f57600080fd5b8063a646c35d14610887578063a7e69fb41461089a578063a9b54bcd146108ad578063b1a2d9bd146108c0578063b5821dc9146108d357600080fd5b80639010d07c1161021b5780639010d07c1461082757806391d148541461083a578063934d1fa41461084d5780639581372b14610855578063a217fddf1461087f57600080fd5b8063884674b0146107d55780638a7bf804146108015780638e6f6b77146108155780638ed955b91461081f57600080fd5b80633ac286421161035d578063654cfdff116102e557806373503857116102a9578063735038571461079b57806373d9a56f146107a35780637a9de514146107b85780637c4a485c146107c2578063853828b6146107cd57600080fd5b8063654cfdff1461073b578063675857eb1461074e57806367888796146107625780636902bd1014610775578063708e2ae01461078857600080fd5b806359fe213b1161032c57806359fe213b146106e25780635fdf199a146106f5578063601130481461070a57806360a7efb21461071d578063620572071461073157600080fd5b80633ac2864214610696578063456fa2c0146106a95780634ae858b3146106bc5780634b3fd3b7146106cf57600080fd5b806320f8e94e116103eb5780632aa64534116103af5780632aa64534146106425780632bf968531461064a5780632f2ff15d1461065d5780632f623e771461067057806336568abe1461068357600080fd5b806320f8e94e1461057457806321ce919d146105875780632299b8fa146105f4578063248a9ca31461061557806327cfe8561461063857600080fd5b80630dd4117a116104325780630dd4117a146104f357806317640841146105135780631ae71d2d146105285780631d3cd2a61461055757806320988cef1461056a57600080fd5b806301ffc9a71461046457806308835bf81461048c5780630a4d467c1461049f5780630d854646146104c7575b600080fd5b610477610472366004614dcb565b610acd565b60405190151581526020015b60405180910390f35b61047761049a366004614df5565b610ade565b6104b26104ad366004614e1d565b610c11565b60408051928352602083019190915201610483565b61012d546104db906001600160a01b031681565b6040516001600160a01b039091168152602001610483565b610506610501366004614e4f565b610d50565b6040516104839190614e6a565b610526610521366004614eae565b610d75565b005b610549610536366004614e4f565b6101416020526000908152604090205481565b604051908152602001610483565b610526610565366004614e4f565b611146565b61054962278d0081565b610526610582366004614df5565b611183565b6105e1610595366004614ed0565b61013c6020908152600092835260408084209091529082529020805460018201546002830154600384015460048501546005860154600690960154949593949293919290919060ff1687565b6040516104839796959493929190614f32565b610549610602366004614e4f565b61013e6020526000908152604090205481565b610549610623366004614df5565b60009081526065602052604090206001015490565b6105496201518081565b610526611465565b610526610658366004614eae565b6115fc565b61052661066b366004614f74565b6119a4565b61054961067e366004614e1d565b6119cf565b610526610691366004614f74565b611a82565b6105266106a4366004614df5565b611b00565b6105266106b7366004614e4f565b611c62565b6105496106ca366004614eae565b611c9f565b6105496106dd366004614fa0565b611cdd565b6105496106f0366004614e4f565b611e45565b6106fd611ecc565b6040516104839190614fd3565b610549610718366004614eae565b611ede565b61012e546104db906001600160a01b031681565b6105496101315481565b610526610749366004615014565b61230f565b610139546104db906001600160a01b031681565b610526610770366004614df5565b6125be565b610549610783366004614ed0565b6129bb565b610526610796366004615135565b612a77565b610526612aa4565b6107ab612b02565b60405161048391906151f1565b6105496101345481565b6105496301e1338081565b610526612b9c565b6105496107e3366004614ed0565b61014060209081526000928352604080842090915290825290205481565b610137546104db906001600160a01b031681565b61054962093a8081565b610526612bfb565b6104db610835366004614eae565b612c56565b610477610848366004614f74565b612c6e565b610549612c99565b610549610863366004614e4f565b6001600160a01b03166000908152610142602052604090205490565b610549600081565b610526610895366004614e4f565b612caa565b6105266108a8366004614eae565b612e61565b6105266108bb366004614e4f565b612e75565b6105266108ce366004614e4f565b613026565b6105066108e1366004614e4f565b613063565b610549613088565b6105496101325481565b6109176109063660046152ef565b63bc197c8160e01b95945050505050565b6040516001600160e01b03199091168152602001610483565b610549670de0b6b3a764000081565b6105496101305481565b610477610957366004614e4f565b61013a6020526000908152604090205460ff1681565b61054961097b366004614df5565b613096565b61012e5461047790600160a01b900460ff1681565b6105496101335481565b6105266109ad366004614f74565b6130ad565b61054960008051602061597183398151915281565b6104776109d5366004614eae565b6130d3565b6105266109e8366004614e4f565b613418565b6104b26109fb366004614df5565b6135dd565b610526610a0e366004614e4f565b613683565b610526610a21366004614df5565b6136c0565b610138546104db906001600160a01b031681565b610549613991565b610549613b91565b610526610a58366004615399565b613b9f565b61054961012f5481565b610917610a753660046153c3565b63f23a6e6160e01b95945050505050565b610549610a94366004614eae565b613dc5565b610549610aa7366004614ed0565b613e3e565b610549610aba366004614e4f565b6101426020526000908152604090205481565b6000610ad882613f14565b92915050565b610137546040516378afdef960e11b8152600481018390526000916001600160a01b03169063f15fbdf29060240161016060405180830381865afa925050508015610b46575060408051601f3d908101601f19168201909252610b43918101906154bd565b60015b610bce57610b52615550565b806308c379a01415610b7b5750610b6761556c565b80610b725750610b95565b50600092915050565b634e487b711415610b9557610b8e6155f6565b90610b7257505b3d808015610bbf576040519150601f19603f3d011682016040523d82523d6000602084013e610bc4565b606091505b5060009392505050565b600081516002811115610be357610be3614efa565b148015610c055750600081604001516005811115610c0357610c03614efa565b145b9392505050565b919050565b60008080836004811115610c2757610c27614efa565b1415610c4d5767016345785d8a0000610c4462093a80600261562c565b91509150915091565b6001836004811115610c6157610c61614efa565b1415610c7c57506703782dace9d900009262278d0092509050565b6002836004811115610c9057610c90614efa565b1415610cad57670b1a2bc2ec500000610c4462278d00600361562c565b6003836004811115610cc157610cc1614efa565b1415610cde576718fae27693b40000610c4462278d00600661562c565b6004836004811115610cf257610cf2614efa565b1415610d0e5750673782dace9d900000926301e1338092509050565b60405162461bcd60e51b8152602060048201526012602482015271496e76616c6964206c6f636b2076616c756560701b60448201526064015b60405180910390fd5b6001600160a01b038116600090815261013d60205260409020606090610ad890613f39565b610132548015610ea657600080610dff61012e60009054906101000a90046001600160a01b03166001600160a01b031663ae5c93576040518163ffffffff1660e01b81526004016020604051808303816000875af1158015610ddb573d6000803e3d6000fd5b505050506040513d601f19601f820116820180604052508101906109fb919061564b565b915091508161012f6000828254610e169190615664565b92505081905550806101306000828254610e309190615664565b90915550839050610e49670de0b6b3a76400008461562c565b610e53919061567c565b6101316000828254610e659190615664565b90915550506101315460408051848152602081018490528082018690526060810192909252516000805160206159918339815191529181900360800190a150505b6000610eb0613991565b90506000805160206159b183398151915281604051610ed191815260200190565b60405180910390a1610138546001600160a01b0316610f2a5760405162461bcd60e51b815260206004820152601560248201527443616e6e6f74207374616b6520547265617375726560581b6044820152606401610d47565b60008311610f685760405162461bcd60e51b815260206004820152600b60248201526a0416d6f756e7420697320360ac1b6044820152606401610d47565b3360009081526101406020908152604080832087845290915281208054859290610f93908490615664565b9091555050336000908152610141602052604081208054859290610fb8908490615664565b909155505033600090815261014160205260409020546014101561101e5760405162461bcd60e51b815260206004820152601b60248201527f4d617820323020747265617375726573207065722077616c6c657400000000006044820152606401610d47565b61013854600090611039906001600160a01b03168686611cdd565b336000908152610142602052604081208054929350839290919061105e908490615664565b9091555061106d905033613f46565b6101385460408051602081018252600081529051637921219560e11b81526001600160a01b039092169163f242432a916110b191339130918b918b916004016156f6565b600060405180830381600087803b1580156110cb57600080fd5b505af11580156110df573d6000803e3d6000fd5b5050610139543360009081526101426020526040908190205490517fb4caaf29adda3eefee3ad552a8e85058589bf834c7466cae4ee58787f70589ed945061113793506001600160a01b039092169189918991615730565b60405180910390a15050505050565b60008051602061597183398151915261115f813361413f565b5061013880546001600160a01b0319166001600160a01b0392909216919091179055565b610132548015611290576000806111e961012e60009054906101000a90046001600160a01b03166001600160a01b031663ae5c93576040518163ffffffff1660e01b81526004016020604051808303816000875af1158015610ddb573d6000803e3d6000fd5b915091508161012f60008282546112009190615664565b9250508190555080610130600082825461121a9190615664565b90915550839050611233670de0b6b3a76400008461562c565b61123d919061567c565b610131600082825461124f9190615664565b90915550506101315460408051848152602081018490528082018690526060810192909252516000805160206159918339815191529181900360800190a150505b600061129a613991565b90506000805160206159b1833981519152816040516112bb91815260200190565b60405180910390a133600090815261013c60209081526040808320868452909152812061013154600282015491929161131191670de0b6b3a764000091611302919061562c565b61130c919061567c565b6141a3565b9050600061132d8360050154836113289190615756565b614211565b60058401839055600184015490915015801561134b57506002830154155b1561135a5761135a3387614263565b80156113785761012d54611378906001600160a01b031633836142c6565b604051818152869033907f71bab65ced2e5750775a0613be067df48ef06cf92a496ebf7663ae06609249549060200160405180910390a36101335461012d546040516370a0823160e01b81523060048201526001600160a01b03909116906370a0823190602401602060405180830381865afa1580156113fc573d6000803e3d6000fd5b505050506040513d601f19601f82011682018060405250810190611420919061564b565b101561145d5760405162461bcd60e51b815260206004820152600c60248201526b52756e206f6e2062616e6b7360a01b6044820152606401610d47565b505050505050565b60008051602061597183398151915261147e813361413f565b61013254801561158b576000806114e461012e60009054906101000a90046001600160a01b03166001600160a01b031663ae5c93576040518163ffffffff1660e01b81526004016020604051808303816000875af1158015610ddb573d6000803e3d6000fd5b915091508161012f60008282546114fb9190615664565b925050819055508061013060008282546115159190615664565b9091555083905061152e670de0b6b3a76400008461562c565b611538919061567c565b610131600082825461154a9190615664565b90915550506101315460408051848152602081018490528082018690526060810192909252516000805160206159918339815191529181900360800190a150505b6000611595613991565b90506000805160206159b1833981519152816040516115b691815260200190565b60405180910390a161012e54600160a01b900460ff166115d75760016115da565b60005b61012e8054911515600160a01b0260ff60a01b19909216919091179055505050565b6101325480156117095760008061166261012e60009054906101000a90046001600160a01b03166001600160a01b031663ae5c93576040518163ffffffff1660e01b81526004016020604051808303816000875af1158015610ddb573d6000803e3d6000fd5b915091508161012f60008282546116799190615664565b925050819055508061013060008282546116939190615664565b909155508390506116ac670de0b6b3a76400008461562c565b6116b6919061567c565b61013160008282546116c89190615664565b90915550506101315460408051848152602081018490528082018690526060810192909252516000805160206159918339815191529181900360800190a150505b6000611713613991565b90506000805160206159b18339815191528160405161173491815260200190565b60405180910390a1610138546001600160a01b031661178d5760405162461bcd60e51b815260206004820152601560248201527443616e6e6f74207374616b6520547265617375726560581b6044820152606401610d47565b600083116117cb5760405162461bcd60e51b815260206004820152600b60248201526a0416d6f756e7420697320360ac1b6044820152606401610d47565b336000908152610140602090815260408083208784529091529020548311156118365760405162461bcd60e51b815260206004820152601760248201527f576974686472617720616d6f756e7420746f6f206269670000000000000000006044820152606401610d47565b3360009081526101406020908152604080832087845290915281208054859290611861908490615795565b9091555050336000908152610141602052604081208054859290611886908490615795565b9091555050610138546000906118a6906001600160a01b03168686611cdd565b33600090815261014260205260408120805492935083929091906118cb908490615795565b909155506118da905033613f46565b6101385460408051602081018252600081529051637921219560e11b81526001600160a01b039092169163f242432a9161191e91309133918b918b916004016156f6565b600060405180830381600087803b15801561193857600080fd5b505af115801561194c573d6000803e3d6000fd5b5050610138543360009081526101426020526040908190205490517f204fccf0d92ed8d48f204adb39b2e81e92bad0dedb93f5716ca9478cfb57de00945061113793506001600160a01b039092169189918991615730565b6000828152606560205260409020600101546119c0813361413f565b6119ca8383614329565b505050565b6000808260048111156119e4576119e4614efa565b14156119f257506000919050565b6001826004811115611a0657611a06614efa565b1415611a16575062093a80919050565b6002826004811115611a2a57611a2a614efa565b1415611a3a575062127500919050565b6003826004811115611a4e57611a4e614efa565b1415611a5e575062278d00919050565b6004826004811115611a7257611a72614efa565b1415610c0c5750623b5380919050565b6001600160a01b0381163314611af25760405162461bcd60e51b815260206004820152602f60248201527f416363657373436f6e74726f6c3a2063616e206f6e6c792072656e6f756e636560448201526e103937b632b9903337b91039b2b63360891b6064820152608401610d47565b611afc828261434b565b5050565b600080516020615971833981519152611b19813361413f565b610132548015611c2657600080611b7f61012e60009054906101000a90046001600160a01b03166001600160a01b031663ae5c93576040518163ffffffff1660e01b81526004016020604051808303816000875af1158015610ddb573d6000803e3d6000fd5b915091508161012f6000828254611b969190615664565b92505081905550806101306000828254611bb09190615664565b90915550839050611bc9670de0b6b3a76400008461562c565b611bd3919061567c565b6101316000828254611be59190615664565b90915550506101315460408051848152602081018490528082018690526060810192909252516000805160206159918339815191529181900360800190a150505b6000611c30613991565b90506000805160206159b183398151915281604051611c5191815260200190565b60405180910390a150505061013455565b600080516020615971833981519152611c7b813361413f565b5061013980546001600160a01b0319166001600160a01b0392909216919091179055565b61013b8281548110611cb057600080fd5b906000526020600020018181548110611cc857600080fd5b90600052602060002001600091509150505481565b610138546000906001600160a01b0385811691161415611d0857611d018383611ede565b9050610c05565b610139546001600160a01b0385811691161415610bc457610137546040516378afdef960e11b8152600481018590526001600160a01b039091169063f15fbdf29060240161016060405180830381865afa925050508015611d86575060408051601f3d908101601f19168201909252611d83918101906154bd565b60015b611e1057611d92615550565b806308c379a01415611dbc5750611da761556c565b80611db25750611dd6565b6000915050610c05565b634e487b711415611dd657611dcf6155f6565b90611db257505b3d808015611e00576040519150601f19603f3d011682016040523d82523d6000602084013e611e05565b606091505b506000915050610c05565b8051611e3d906002811115611e2757611e27614efa565b82604001516005811115610a9457610a94614efa565b915050610c05565b6001600160a01b038116600090815261013d602052604081208190611e699061436d565b905060005b81811015611ec5576001600160a01b038416600090815261013d60205260408120611e999083614377565b9050611ea58582613e3e565b611eaf9085615664565b9350508080611ebd906157ac565b915050611e6e565b5050919050565b6060611ed9610135613f39565b905090565b60008260271415611ef8575067010a741a46278000612305565b82602e1415611f0f575066dc44abe8130000612305565b82602f1415611f275750670103591cfc9a8000612305565b8260301415611f3e5750661c6bf526340000612305565b8260311415611f55575066354a6ba7a18000612305565b8260331415611f6d575067010e0198eaee0000612305565b8260341415611f85575067010e0198eaee0000612305565b8260351415611f9c575066d8b72d434c8000612305565b8260361415611fb3575066fc3e1fb30d8000612305565b8260441415611fca575066c6f3b40b6c0000612305565b8260451415611fe157506678cad1e25d0000612305565b8260471415611ff85750664e28e2290f0000612305565b826048141561200f575066ce0eb154f90000612305565b82604914156120265750661c6bf526340000612305565b82604a141561203d575066dfd22a8cd98000612305565b82604b1415612054575066ca8132b0328000612305565b82604c141561206b5750662aa1efb94e0000612305565b82604d14156120825750661c6bf526340000612305565b82604f14156120995750661c6bf526340000612305565b82605214156120b0575066c6f3b40b6c0000612305565b82605b14156120c7575066ce0eb154f90000612305565b82605c14156120de5750661c6bf526340000612305565b82605d14156120f557506671afd498d00000612305565b82605e141561210c575066753d533d968000612305565b82605f1415612124575067022dc6ab0dbc8000612305565b826060141561213b5750661c6bf526340000612305565b826061141561215357506702315429b2830000612305565b826062141561216a575066ffcb9e57d40000612305565b8260631415612181575066e35fa931a00000612305565b8260641415612198575066bc4b381d188000612305565b82606714156121af5750666a94d74f430000612305565b82606814156121c6575066dc44abe8130000612305565b82606914156121dd575066ee08251ff38000612305565b82607214156121f457506638d7ea4c680000612305565b826073141561220b5750661c6bf526340000612305565b8260741415612222575066ce0eb154f90000612305565b82607514156122395750661c6bf526340000612305565b8260841415612250575066e35fa931a00000612305565b82608514156122675750661c6bf526340000612305565b82608d141561227e575066d529ae9e860000612305565b82609714156122955750661c6bf526340000612305565b82609814156122ac575066d529ae9e860000612305565b82609914156122c3575066e35fa931a00000612305565b8260a114156122db5750670103591cfc9a8000612305565b8260a214156122f2575066d19c2ff9bf8000612305565b8260a41415612305575066b5303ad38b80005b610c05828261562c565b61013254801561241c5760008061237561012e60009054906101000a90046001600160a01b03166001600160a01b031663ae5c93576040518163ffffffff1660e01b81526004016020604051808303816000875af1158015610ddb573d6000803e3d6000fd5b915091508161012f600082825461238c9190615664565b925050819055508061013060008282546123a69190615664565b909155508390506123bf670de0b6b3a76400008461562c565b6123c9919061567c565b61013160008282546123db9190615664565b90915550506101315460408051848152602081018490528082018690526060810192909252516000805160206159918339815191529181900360800190a150505b6000612426613991565b90506000805160206159b18339815191528160405161244791815260200190565b60405180910390a160008061245b33614383565b9150915060008061246b87610c11565b3360009081526101426020526040812054929450909250670de0b6b3a76400006124958386615664565b61249f908c61562c565b6124a9919061567c565b6124b3908b615664565b90508961013360008282546124c89190615664565b925050819055508061013260008282546124e29190615664565b9091555050898655600186018a9055600286018190556125028342615664565b6003870181905560048701556101315461252a90670de0b6b3a764000090611302908461562c565b60058701556006860180548a919060ff1916600183600481111561255057612550614efa565b021790555061012d5461256e906001600160a01b031633308d614402565b84336001600160a01b03167fa7db47d395930224de3f54139208b4a958fe3747c2ad1dee5a6624643a6def938c8c6040516125aa9291906157c7565b60405180910390a350505050505050505050565b6101325480156126cb5760008061262461012e60009054906101000a90046001600160a01b03166001600160a01b031663ae5c93576040518163ffffffff1660e01b81526004016020604051808303816000875af1158015610ddb573d6000803e3d6000fd5b915091508161012f600082825461263b9190615664565b925050819055508061013060008282546126559190615664565b9091555083905061266e670de0b6b3a76400008461562c565b612678919061567c565b610131600082825461268a9190615664565b90915550506101315460408051848152602081018490528082018690526060810192909252516000805160206159918339815191529181900360800190a150505b60006126d5613991565b90506000805160206159b1833981519152816040516126f691815260200190565b60405180910390a1610139546001600160a01b031661274d5760405162461bcd60e51b815260206004820152601360248201527221b0b73737ba1039ba30b5b2902632b3b4b7b760691b6044820152606401610d47565b33600090815261013f60205260409020612767908461443a565b6127a85760405162461bcd60e51b815260206004820152601260248201527113919508185b1c9958591e481cdd185ad95960721b6044820152606401610d47565b33600090815261013f602052604090206003906127c49061436d565b11156128125760405162461bcd60e51b815260206004820152601860248201527f4d61782033206c6567696f6e73207065722077616c6c657400000000000000006044820152606401610d47565b61281b83610ade565b1561289d5733600090815261013a602052604090205460ff16156128815760405162461bcd60e51b815260206004820152601b60248201527f4d6178203120312f31206c6567696f6e207065722077616c6c657400000000006044820152606401610d47565b33600090815261013a60205260409020805460ff191660011790555b610139546000906128b9906001600160a01b0316856001611cdd565b33600090815261014260205260408120805492935083929091906128de908490615664565b909155506128ed905033613f46565b610139546040516323b872dd60e01b8152336004820152306024820152604481018690526001600160a01b03909116906323b872dd90606401600060405180830381600087803b15801561294057600080fd5b505af1158015612954573d6000803e3d6000fd5b5050610139543360009081526101426020526040908190205490517fb4caaf29adda3eefee3ad552a8e85058589bf834c7466cae4ee58787f70589ed94506129ad93506001600160a01b03909216918891600191615730565b60405180910390a150505050565b6001600160a01b038216600090815261013c602090815260408083208484529091528120600681015460ff16826129f1826119cf565b8360030154612a009190615664565b60038401549091504282111580612a21575061012e54600160a01b900460ff165b15612a2f5783549450612a6d565b8360040154421115612a6d57612a458183615795565b6004850154612a549042615795565b8554612a60919061562c565b612a6a919061567c565b94505b5050505092915050565b600080516020615971833981519152612a90813361413f565b81516119ca9061013b906020850190614c91565b33600090815261013d60205260408120612abd90613f39565b905060005b8151811015611afc57612af0828281518110612ae057612ae06157db565b6020026020010151600019612e61565b80612afa816157ac565b915050612ac2565b606061013b805480602002602001604051908101604052809291908181526020016000905b82821015612b9357600084815260209081902083018054604080518285028101850190915281815292830182828015612b7f57602002820191906000526020600020905b815481526020019060010190808311612b6b575b505050505081526020019060010190612b27565b50505050905090565b33600090815261013d60205260408120612bb590613f39565b905060005b8151811015611afc57612be8828281518110612bd857612bd86157db565b60200260200101516000196130d3565b5080612bf3816157ac565b915050612bba565b33600090815261013d60205260408120612c1490613f39565b905060005b8151811015611afc57612c44828281518110612c3757612c376157db565b6020026020010151611183565b80612c4e816157ac565b915050612c19565b6000828152609760205260408120610c059083614377565b60009182526065602090815260408084206001600160a01b0393909316845291905290205460ff1690565b612ca762093a80600261562c565b81565b600080516020615971833981519152612cc3813361413f565b610132548015612dd057600080612d2961012e60009054906101000a90046001600160a01b03166001600160a01b031663ae5c93576040518163ffffffff1660e01b81526004016020604051808303816000875af1158015610ddb573d6000803e3d6000fd5b915091508161012f6000828254612d409190615664565b92505081905550806101306000828254612d5a9190615664565b90915550839050612d73670de0b6b3a76400008461562c565b612d7d919061567c565b6101316000828254612d8f9190615664565b90915550506101315460408051848152602081018490528082018690526060810192909252516000805160206159918339815191529181900360800190a150505b6000612dda613991565b90506000805160206159b183398151915281604051612dfb91815260200190565b60405180910390a1612e0f61013585614446565b612e5b5760405162461bcd60e51b815260206004820152601760248201527f41646472657373206973206e6f74206578636c756465640000000000000000006044820152606401610d47565b50505050565b612e6b82826130d3565b50611afc82611183565b600080516020615971833981519152612e8e813361413f565b610132548015612f9b57600080612ef461012e60009054906101000a90046001600160a01b03166001600160a01b031663ae5c93576040518163ffffffff1660e01b81526004016020604051808303816000875af1158015610ddb573d6000803e3d6000fd5b915091508161012f6000828254612f0b9190615664565b92505081905550806101306000828254612f259190615664565b90915550839050612f3e670de0b6b3a76400008461562c565b612f48919061567c565b6101316000828254612f5a9190615664565b90915550506101315460408051848152602081018490528082018690526060810192909252516000805160206159918339815191529181900360800190a150505b6000612fa5613991565b90506000805160206159b183398151915281604051612fc691815260200190565b60405180910390a1612fda6101358561445b565b612e5b5760405162461bcd60e51b815260206004820152601860248201527f4164647265737320616c7265616479206578636c7564656400000000000000006044820152606401610d47565b60008051602061597183398151915261303f813361413f565b5061013780546001600160a01b0319166001600160a01b0392909216919091179055565b6001600160a01b038116600090815261013f60205260409020606090610ad890613f39565b612ca762278d00600661562c565b6000818152609760205260408120610ad89061436d565b6000828152606560205260409020600101546130c9813361413f565b6119ca838361434b565b6101325460009080156131e35760008061313c61012e60009054906101000a90046001600160a01b03166001600160a01b031663ae5c93576040518163ffffffff1660e01b81526004016020604051808303816000875af1158015610ddb573d6000803e3d6000fd5b915091508161012f60008282546131539190615664565b9250508190555080610130600082825461316d9190615664565b90915550839050613186670de0b6b3a76400008461562c565b613190919061567c565b61013160008282546131a29190615664565b90915550506101315460408051848152602081018490528082018690526060810192909252516000805160206159918339815191529181900360800190a150505b60006131ed613991565b90506000805160206159b18339815191528160405161320e91815260200190565b60405180910390a133600090815261013c60209081526040808320888452909152902060018101548061324657600094505050613410565b80861115613252578095505b61012e54600160a01b900460ff166132d45781600301544210156132b85760405162461bcd60e51b815260206004820152601860248201527f506f736974696f6e206973207374696c6c206c6f636b656400000000000000006044820152606401610d47565b60006132c43389614470565b9050808711156132d2578096505b505b6000816132e9670de0b6b3a76400008961562c565b6132f3919061567c565b90506000670de0b6b3a7640000828560020154613310919061562c565b61331a919061567c565b905080610132600082825461332f9190615795565b925050819055508761013360008282546133499190615795565b92505081905550878460010160008282546133649190615795565b925050819055508084600201600082825461337f9190615795565b9091555050610131546133a090670de0b6b3a764000090611302908461562c565b8460050160008282546133b39190615756565b909155505061012d546133d0906001600160a01b0316338a6142c6565b604051888152899033907ff279e6a1f5e320cca91135676d9cb6e44ca8a08c0b88342bcdb1144f6511b5689060200160405180910390a360019650505050505b505092915050565b600080516020615971833981519152613431813361413f565b61013254801561353e5760008061349761012e60009054906101000a90046001600160a01b03166001600160a01b031663ae5c93576040518163ffffffff1660e01b81526004016020604051808303816000875af1158015610ddb573d6000803e3d6000fd5b915091508161012f60008282546134ae9190615664565b925050819055508061013060008282546134c89190615664565b909155508390506134e1670de0b6b3a76400008461562c565b6134eb919061567c565b61013160008282546134fd9190615664565b90915550506101315460408051848152602081018490528082018690526060810192909252516000805160206159918339815191529181900360800190a150505b6000613548613991565b90506000805160206159b18339815191528160405161356991815260200190565b60405180910390a16101308054600090915561012d54613593906001600160a01b031686836142c6565b846001600160a01b03167f7c83d02a6ed4d6182087a0e243293e39c967dc6f12958ea7201d63214728d0f0826040516135ce91815260200190565b60405180910390a25050505050565b60008060006135ea613991565b9050670429d069189e00008110156136055760009250613671565b67058d15e17628000081101561363357600a61362285600561562c565b61362c919061567c565b9250613671565b6706f05b59d3b2000081101561365057600a61362285600661562c565b670853a0d2313c000081101561366d57600a61362285600861562c565b8392505b61367b8385615795565b915050915091565b60008051602061597183398151915261369c813361413f565b5061012d80546001600160a01b0319166001600160a01b0392909216919091179055565b6101325480156137cd5760008061372661012e60009054906101000a90046001600160a01b03166001600160a01b031663ae5c93576040518163ffffffff1660e01b81526004016020604051808303816000875af1158015610ddb573d6000803e3d6000fd5b915091508161012f600082825461373d9190615664565b925050819055508061013060008282546137579190615664565b90915550839050613770670de0b6b3a76400008461562c565b61377a919061567c565b610131600082825461378c9190615664565b90915550506101315460408051848152602081018490528082018690526060810192909252516000805160206159918339815191529181900360800190a150505b60006137d7613991565b90506000805160206159b1833981519152816040516137f891815260200190565b60405180910390a133600090815261013f6020526040902061381a90846144ae565b61385a5760405162461bcd60e51b8152602060048201526011602482015270139195081a5cc81b9bdd081cdd185ad959607a1b6044820152606401610d47565b61386383610ade565b156138815733600090815261013a60205260409020805460ff191690555b6101395460009061389d906001600160a01b0316856001611cdd565b33600090815261014260205260408120805492935083929091906138c2908490615795565b909155506138d1905033613f46565b610139546040516323b872dd60e01b8152306004820152336024820152604481018690526001600160a01b03909116906323b872dd90606401600060405180830381600087803b15801561392457600080fd5b505af1158015613938573d6000803e3d6000fd5b5050610139543360009081526101426020526040908190205490517f204fccf0d92ed8d48f204adb39b2e81e92bad0dedb93f5716ca9478cfb57de0094506129ad93506001600160a01b03909216918891600191615730565b61013454600090156139a557506101345490565b61012d54604080516318160ddd60e01b815290516000926001600160a01b0316916318160ddd9160048083019260209291908290030181865afa1580156139f0573d6000803e3d6000fd5b505050506040513d601f19601f82011682018060405250810190613a14919061564b565b90506000613a2361013561436d565b905060005b81811015613ad45761012d546001600160a01b03166370a08231613a4e61013584614377565b6040516001600160e01b031960e084901b1681526001600160a01b039091166004820152602401602060405180830381865afa158015613a92573d6000803e3d6000fd5b505050506040513d601f19601f82011682018060405250810190613ab6919061564b565b613ac09084615795565b925080613acc816157ac565b915050613a28565b506101335461012d546040516370a0823160e01b8152306004820152600092916001600160a01b0316906370a0823190602401602060405180830381865afa158015613b24573d6000803e3d6000fd5b505050506040513d601f19601f82011682018060405250810190613b48919061564b565b613b529190615795565b9050613b5e8184615795565b92508215613b8b5782670de0b6b3a764000061013354613b7e919061562c565b613b88919061567c565b93505b50505090565b612ca762278d00600361562c565b600054610100900460ff16613bba5760005460ff1615613bbe565b303b155b613c215760405162461bcd60e51b815260206004820152602e60248201527f496e697469616c697a61626c653a20636f6e747261637420697320616c72656160448201526d191e481a5b9a5d1a585b1a5e995960921b6064820152608401610d47565b600054610100900460ff16158015613c43576000805461ffff19166101011790555b61012d80546001600160a01b038086166001600160a01b03199283161790925561012e805492851692909116919091179055613c8d600080516020615971833981519152806144ba565b613ca560008051602061597183398151915233614329565b60405180606001604052806040518060c001604052806753444835ec5800008152602001671bc16d674ec800008152602001670a688906bd8b00008152602001670de0b6b3a764000081526020016706f05b59d3b200008152602001600081525081526020016040518060c00160405280600081526020016703782dace9d9000081526020016000815260200167016345785d8a0000815260200166b1a2bc2ec500008152602001600081525081526020016040518060c001604052806000815260200160008152602001600081526020016000815260200160008152602001600081525081525061013b906003613d9e929190614cea565b50613da7614505565b613daf61454e565b80156119ca576000805461ff0019169055505050565b61013b5460009083108015613df8575061013b8381548110613de957613de96157db565b60009182526020909120015482105b15610b725761013b8381548110613e1157613e116157db565b906000526020600020018281548110613e2c57613e2c6157db565b90600052602060002001549050610ad8565b6001600160a01b03828116600090815261013c60209081526040808320858452909152808220610131546101325461012e54935163f6ed201760e01b815230600482015294959294919390928692613eba929091169063f6ed201790602401602060405180830381865afa158015610ddb573d6000803e3d6000fd5b50905081613ed0670de0b6b3a76400008361562c565b613eda919061567c565b613ee49084615664565b9250612a6a8460050154613f0a670de0b6b3a7640000868860020154611302919061562c565b6113289190615756565b60006001600160e01b03198216630271189760e51b1480610ad85750610ad882614575565b60606000610c058361459a565b6001600160a01b0381166000908152610142602090815260408083205461013d9092528220909190613f7790613f39565b905060005b8151811015612e5b576000828281518110613f9957613f996157db565b6020908102919091018101516001600160a01b038716600090815261013c8352604080822083835290935291822060068101549193509190613fdd9060ff16610c11565b5060018301549091506000670de0b6b3a7640000613ffb8985615664565b614005908461562c565b61400f919061567c565b6140199083615664565b6002850154909150808211156140a65760006140358284615795565b9050614052670de0b6b3a76400006101315483611302919061562c565b86600501600082825461406591906157f1565b9250508190555080610132600082825461407f9190615664565b925050819055508086600201600082825461409a9190615664565b90915550614126915050565b808210156141265760006140ba8383615795565b90506140d7670de0b6b3a76400006101315483611302919061562c565b8660050160008282546140ea9190615756565b925050819055508061013260008282546141049190615795565b925050819055508086600201600082825461411f9190615795565b9091555050505b5050505050508080614137906157ac565b915050613f7c565b6141498282612c6e565b611afc57614161816001600160a01b031660146145f6565b61416c8360206145f6565b60405160200161417d929190615832565b60408051601f198184030181529082905262461bcd60e51b8252610d47916004016158a7565b60006001600160ff1b0382111561420d5760405162461bcd60e51b815260206004820152602860248201527f53616665436173743a2076616c756520646f65736e27742066697420696e2061604482015267371034b73a191a9b60c11b6064820152608401610d47565b5090565b60008082121561420d5760405162461bcd60e51b815260206004820181905260248201527f53616665436173743a2076616c7565206d75737420626520706f7369746976656044820152606401610d47565b6001600160a01b038216600090815261013d6020526040902061428690826144ae565b611afc5760405162461bcd60e51b81526020600482015260116024820152706465706f7369744964202165786973747360781b6044820152606401610d47565b6040516001600160a01b0383166024820152604481018290526119ca90849063a9059cbb60e01b906064015b60408051601f198184030181529190526020810180516001600160e01b03166001600160e01b031990931692909217909152614792565b6143338282614864565b60008281526097602052604090206119ca908261445b565b61435582826148ea565b60008281526097602052604090206119ca9082614446565b6000610ad8825490565b6000610c058383614951565b6001600160a01b038116600090815261013e60205260408120805482919082906143ac906157ac565b91829055506001600160a01b038416600090815261013d602052604090209091506143d7908261443a565b506001600160a01b03909216600090815261013c602090815260408083208584529091529020929050565b6040516001600160a01b0380851660248301528316604482015260648101829052612e5b9085906323b872dd60e01b906084016142f2565b6000610c05838361497b565b6000610c05836001600160a01b0384166149ca565b6000610c05836001600160a01b03841661497b565b600061447c83836129bb565b6001600160a01b03909316600090815261013c6020908152604080832094835293905291909120426004909101555090565b6000610c0583836149ca565b600082815260656020526040808220600101805490849055905190918391839186917fbd79b86ffe0ab8e8776151514217cd7cacd52c909f66475c3af44e129f0b00ff9190a4505050565b600054610100900460ff1661452c5760405162461bcd60e51b8152600401610d47906158ba565b614534614abd565b61453c614abd565b614544614abd565b61454c614abd565b565b600054610100900460ff166145345760405162461bcd60e51b8152600401610d47906158ba565b60006001600160e01b03198216635a05180f60e01b1480610ad85750610ad882614ae4565b6060816000018054806020026020016040519081016040528092919081815260200182805480156145ea57602002820191906000526020600020905b8154815260200190600101908083116145d6575b50505050509050919050565b6060600061460583600261562c565b614610906002615664565b67ffffffffffffffff81111561462857614628615037565b6040519080825280601f01601f191660200182016040528015614652576020820181803683370190505b509050600360fc1b8160008151811061466d5761466d6157db565b60200101906001600160f81b031916908160001a905350600f60fb1b8160018151811061469c5761469c6157db565b60200101906001600160f81b031916908160001a90535060006146c084600261562c565b6146cb906001615664565b90505b6001811115614743576f181899199a1a9b1b9c1cb0b131b232b360811b85600f16601081106146ff576146ff6157db565b1a60f81b828281518110614715576147156157db565b60200101906001600160f81b031916908160001a90535060049490941c9361473c81615905565b90506146ce565b508315610c055760405162461bcd60e51b815260206004820181905260248201527f537472696e67733a20686578206c656e67746820696e73756666696369656e746044820152606401610d47565b60006147e7826040518060400160405280602081526020017f5361666545524332303a206c6f772d6c6576656c2063616c6c206661696c6564815250856001600160a01b0316614b199092919063ffffffff16565b8051909150156119ca5780806020019051810190614805919061591c565b6119ca5760405162461bcd60e51b815260206004820152602a60248201527f5361666545524332303a204552433230206f7065726174696f6e20646964206e6044820152691bdd081cdd58d8d9595960b21b6064820152608401610d47565b61486e8282612c6e565b611afc5760008281526065602090815260408083206001600160a01b03851684529091529020805460ff191660011790556148a63390565b6001600160a01b0316816001600160a01b0316837f2f8788117e7eff1d82e926ec794901d17c78024a50270940304540a733656f0d60405160405180910390a45050565b6148f48282612c6e565b15611afc5760008281526065602090815260408083206001600160a01b0385168085529252808320805460ff1916905551339285917ff6391f5c32d9c69d2a47ea670b442974b53935d1edc7fd64eb21e047a839171b9190a45050565b6000826000018281548110614968576149686157db565b9060005260206000200154905092915050565b60008181526001830160205260408120546149c257508154600181810184556000848152602080822090930184905584548482528286019093526040902091909155610ad8565b506000610ad8565b60008181526001830160205260408120548015614ab35760006149ee600183615795565b8554909150600090614a0290600190615795565b9050818114614a67576000866000018281548110614a2257614a226157db565b9060005260206000200154905080876000018481548110614a4557614a456157db565b6000918252602080832090910192909255918252600188019052604090208390555b8554869080614a7857614a7861593e565b600190038181906000526020600020016000905590558560010160008681526020019081526020016000206000905560019350505050610ad8565b6000915050610ad8565b600054610100900460ff1661454c5760405162461bcd60e51b8152600401610d47906158ba565b60006001600160e01b03198216637965db0b60e01b1480610ad857506301ffc9a760e01b6001600160e01b0319831614610ad8565b6060614b288484600085614b30565b949350505050565b606082471015614b915760405162461bcd60e51b815260206004820152602660248201527f416464726573733a20696e73756666696369656e742062616c616e636520666f6044820152651c8818d85b1b60d21b6064820152608401610d47565b843b614bdf5760405162461bcd60e51b815260206004820152601d60248201527f416464726573733a2063616c6c20746f206e6f6e2d636f6e74726163740000006044820152606401610d47565b600080866001600160a01b03168587604051614bfb9190615954565b60006040518083038185875af1925050503d8060008114614c38576040519150601f19603f3d011682016040523d82523d6000602084013e614c3d565b606091505b5091509150614c4d828286614c58565b979650505050505050565b60608315614c67575081610c05565b825115614c775782518084602001fd5b8160405162461bcd60e51b8152600401610d4791906158a7565b828054828255906000526020600020908101928215614cde579160200282015b82811115614cde5782518051614cce918491602090910190614d31565b5091602001919060010190614cb1565b5061420d929150614d78565b828054828255906000526020600020908101928215614cde579160200282015b82811115614cde578251614d219083906006614d31565b5091602001919060010190614d0a565b828054828255906000526020600020908101928215614d6c579160200282015b82811115614d6c578251825591602001919060010190614d51565b5061420d929150614d95565b8082111561420d576000614d8c8282614daa565b50600101614d78565b5b8082111561420d5760008155600101614d96565b5080546000825590600052602060002090810190614dc89190614d95565b50565b600060208284031215614ddd57600080fd5b81356001600160e01b031981168114610c0557600080fd5b600060208284031215614e0757600080fd5b5035919050565b803560058110610c0c57600080fd5b600060208284031215614e2f57600080fd5b610c0582614e0e565b80356001600160a01b0381168114610c0c57600080fd5b600060208284031215614e6157600080fd5b610c0582614e38565b6020808252825182820181905260009190848201906040850190845b81811015614ea257835183529284019291840191600101614e86565b50909695505050505050565b60008060408385031215614ec157600080fd5b50508035926020909101359150565b60008060408385031215614ee357600080fd5b614eec83614e38565b946020939093013593505050565b634e487b7160e01b600052602160045260246000fd5b60058110614f2e57634e487b7160e01b600052602160045260246000fd5b9052565b600060e0820190508882528760208301528660408301528560608301528460808301528360a0830152614f6860c0830184614f10565b98975050505050505050565b60008060408385031215614f8757600080fd5b82359150614f9760208401614e38565b90509250929050565b600080600060608486031215614fb557600080fd5b614fbe84614e38565b95602085013595506040909401359392505050565b6020808252825182820181905260009190848201906040850190845b81811015614ea25783516001600160a01b031683529284019291840191600101614fef565b6000806040838503121561502757600080fd5b82359150614f9760208401614e0e565b634e487b7160e01b600052604160045260246000fd5b60c0810181811067ffffffffffffffff8211171561506d5761506d615037565b60405250565b601f8201601f1916810167ffffffffffffffff8111828210171561509957615099615037565b6040525050565b600067ffffffffffffffff8211156150ba576150ba615037565b5060051b60200190565b600082601f8301126150d557600080fd5b813560206150e2826150a0565b6040516150ef8282615073565b83815260059390931b850182019282810191508684111561510f57600080fd5b8286015b8481101561512a5780358352918301918301615113565b509695505050505050565b6000602080838503121561514857600080fd5b823567ffffffffffffffff8082111561516057600080fd5b818501915085601f83011261517457600080fd5b813561517f816150a0565b60405161518c8282615073565b82815260059290921b84018501918581019150888311156151ac57600080fd5b8585015b838110156151e4578035858111156151c85760008081fd5b6151d68b89838a01016150c4565b8452509186019186016151b0565b5098975050505050505050565b6000602080830181845280855180835260408601915060408160051b87010192508387016000805b8381101561526d57888603603f19018552825180518088529088019088880190845b818110156152575783518352928a0192918a019160010161523b565b5090975050509386019391860191600101615219565b509398975050505050505050565b600082601f83011261528c57600080fd5b813567ffffffffffffffff8111156152a6576152a6615037565b6040516152bd601f8301601f191660200182615073565b8181528460208386010111156152d257600080fd5b816020850160208301376000918101602001919091529392505050565b600080600080600060a0868803121561530757600080fd5b61531086614e38565b945061531e60208701614e38565b9350604086013567ffffffffffffffff8082111561533b57600080fd5b61534789838a016150c4565b9450606088013591508082111561535d57600080fd5b61536989838a016150c4565b9350608088013591508082111561537f57600080fd5b5061538c8882890161527b565b9150509295509295909350565b600080604083850312156153ac57600080fd5b6153b583614e38565b9150614f9760208401614e38565b600080600080600060a086880312156153db57600080fd5b6153e486614e38565b94506153f260208701614e38565b93506040860135925060608601359150608086013567ffffffffffffffff81111561541c57600080fd5b61538c8882890161527b565b805160068110610c0c57600080fd5b805160ff81168114610c0c57600080fd5b600082601f83011261545957600080fd5b60405160c0810181811067ffffffffffffffff8211171561547c5761547c615037565b6040528060c084018581111561549157600080fd5b845b818110156154b2576154a481615437565b835260209283019201615493565b509195945050505050565b600061016082840312156154d057600080fd5b6040516154dc8161504d565b8251600381106154eb57600080fd5b81526020830151600a81106154ff57600080fd5b602082015261551060408401615428565b604082015261552160608401615437565b606082015261553260808401615437565b60808201526155448460a08501615448565b60a08201529392505050565b600060033d11156155695760046000803e5060005160e01c5b90565b600060443d101561557a5790565b6040516003193d81016004833e81513d67ffffffffffffffff81602484011181841117156155aa57505050505090565b82850191508151818111156155c25750505050505090565b843d87010160208285010111156155dc5750505050505090565b6155eb60208286010187615073565b509095945050505050565b60008060233d1115615612576020600460003e50506000516001905b9091565b634e487b7160e01b600052601160045260246000fd5b600081600019048311821515161561564657615646615616565b500290565b60006020828403121561565d57600080fd5b5051919050565b6000821982111561567757615677615616565b500190565b60008261569957634e487b7160e01b600052601260045260246000fd5b500490565b60005b838110156156b95781810151838201526020016156a1565b83811115612e5b5750506000910152565b600081518084526156e281602086016020860161569e565b601f01601f19169290920160200192915050565b6001600160a01b03868116825285166020820152604081018490526060810183905260a060808201819052600090614c4d908301846156ca565b6001600160a01b0394909416845260208401929092526040830152606082015260800190565b60008083128015600160ff1b85018412161561577457615774615616565b6001600160ff1b038401831381161561578f5761578f615616565b50500390565b6000828210156157a7576157a7615616565b500390565b60006000198214156157c0576157c0615616565b5060010190565b82815260408101610c056020830184614f10565b634e487b7160e01b600052603260045260246000fd5b600080821280156001600160ff1b038490038513161561581357615813615616565b600160ff1b839003841281161561582c5761582c615616565b50500190565b7f416363657373436f6e74726f6c3a206163636f756e742000000000000000000081526000835161586a81601785016020880161569e565b7001034b99036b4b9b9b4b733903937b6329607d1b601791840191820152835161589b81602884016020880161569e565b01602801949350505050565b602081526000610c0560208301846156ca565b6020808252602b908201527f496e697469616c697a61626c653a20636f6e7472616374206973206e6f74206960408201526a6e697469616c697a696e6760a81b606082015260800190565b60008161591457615914615616565b506000190190565b60006020828403121561592e57600080fd5b81518015158114610c0557600080fd5b634e487b7160e01b600052603160045260246000fd5b6000825161596681846020870161569e565b919091019291505056fe8854ad49c2333a9aa4c7e03244162b637ec22a8951292f983b3d3f845725ff7c51ba001b2556bfc97b1ed73ece5dee29b5c284d8435120c957515cf11017f000163eacd81cbfca2d1ec176759e7107e34229c5cbc5ec0b3fde68ffdef1157e02a264697066735822122097d784fd0fb89bc6bbeb9954f1867d21c9c37d08fa058d18b6e5972bf9310e4464736f6c634300080b0033",
  "devdoc": {
    "kind": "dev",
    "methods": {
      "getRoleAdmin(bytes32)": {
        "details": "Returns the admin role that controls `role`. See {grantRole} and {revokeRole}. To change a role's admin, use {_setRoleAdmin}."
      },
      "getRoleMember(bytes32,uint256)": {
        "details": "Returns one of the accounts that have `role`. `index` must be a value between 0 and {getRoleMemberCount}, non-inclusive. Role bearers are not sorted in any particular way, and their ordering may change at any point. WARNING: When using {getRoleMember} and {getRoleMemberCount}, make sure you perform all queries on the same block. See the following https://forum.openzeppelin.com/t/iterating-over-elements-on-enumerableset-in-openzeppelin-contracts/2296[forum post] for more information."
      },
      "getRoleMemberCount(bytes32)": {
        "details": "Returns the number of accounts that have `role`. Can be used together with {getRoleMember} to enumerate all bearers of a role."
      },
      "grantRole(bytes32,address)": {
        "details": "Grants `role` to `account`. If `account` had not been already granted `role`, emits a {RoleGranted} event. Requirements: - the caller must have ``role``'s admin role."
      },
      "hasRole(bytes32,address)": {
        "details": "Returns `true` if `account` has been granted `role`."
      },
      "renounceRole(bytes32,address)": {
        "details": "Revokes `role` from the calling account. Roles are often managed via {grantRole} and {revokeRole}: this function's purpose is to provide a mechanism for accounts to lose their privileges if they are compromised (such as when a trusted device is misplaced). If the calling account had been revoked `role`, emits a {RoleRevoked} event. Requirements: - the caller must be `account`."
      },
      "revokeRole(bytes32,address)": {
        "details": "Revokes `role` from `account`. If `account` had been granted `role`, emits a {RoleRevoked} event. Requirements: - the caller must have ``role``'s admin role."
      }
    },
    "version": 1
  },
  "userdoc": {
    "kind": "user",
    "methods": {
      "currentId(address)": {
        "notice": "user => deposit index"
      },
      "toggleUnlockAll()": {
        "notice": "EMERGENCY ONLY"
      },
      "userInfo(address,uint256)": {
        "notice": "user => depositId => UserInfo"
      }
    },
    "version": 1
  },
  "storageLayout": {
    "storage": [
      {
        "astId": 597,
        "contract": "contracts/AtlasMine.sol:AtlasMine",
        "label": "_initialized",
        "offset": 0,
        "slot": "0",
        "type": "t_bool"
      },
      {
        "astId": 600,
        "contract": "contracts/AtlasMine.sol:AtlasMine",
        "label": "_initializing",
        "offset": 1,
        "slot": "0",
        "type": "t_bool"
      },
      {
        "astId": 1671,
        "contract": "contracts/AtlasMine.sol:AtlasMine",
        "label": "__gap",
        "offset": 0,
        "slot": "1",
        "type": "t_array(t_uint256)50_storage"
      },
      {
        "astId": 1920,
        "contract": "contracts/AtlasMine.sol:AtlasMine",
        "label": "__gap",
        "offset": 0,
        "slot": "51",
        "type": "t_array(t_uint256)50_storage"
      },
      {
        "astId": 204,
        "contract": "contracts/AtlasMine.sol:AtlasMine",
        "label": "_roles",
        "offset": 0,
        "slot": "101",
        "type": "t_mapping(t_bytes32,t_struct(RoleData)199_storage)"
      },
      {
        "astId": 491,
        "contract": "contracts/AtlasMine.sol:AtlasMine",
        "label": "__gap",
        "offset": 0,
        "slot": "102",
        "type": "t_array(t_uint256)49_storage"
      },
      {
        "astId": 45,
        "contract": "contracts/AtlasMine.sol:AtlasMine",
        "label": "_roleMembers",
        "offset": 0,
        "slot": "151",
        "type": "t_mapping(t_bytes32,t_struct(AddressSet)2638_storage)"
      },
      {
        "astId": 154,
        "contract": "contracts/AtlasMine.sol:AtlasMine",
        "label": "__gap",
        "offset": 0,
        "slot": "152",
        "type": "t_array(t_uint256)49_storage"
      },
      {
        "astId": 964,
        "contract": "contracts/AtlasMine.sol:AtlasMine",
        "label": "__gap",
        "offset": 0,
        "slot": "201",
        "type": "t_array(t_uint256)50_storage"
      },
      {
        "astId": 905,
        "contract": "contracts/AtlasMine.sol:AtlasMine",
        "label": "__gap",
        "offset": 0,
        "slot": "251",
        "type": "t_array(t_uint256)50_storage"
      },
      {
        "astId": 3022,
        "contract": "contracts/AtlasMine.sol:AtlasMine",
        "label": "magic",
        "offset": 0,
        "slot": "301",
        "type": "t_contract(IERC20Upgradeable)1043"
      },
      {
        "astId": 3025,
        "contract": "contracts/AtlasMine.sol:AtlasMine",
        "label": "masterOfCoin",
        "offset": 0,
        "slot": "302",
        "type": "t_contract(IMasterOfCoin)6793"
      },
      {
        "astId": 3027,
        "contract": "contracts/AtlasMine.sol:AtlasMine",
        "label": "unlockAll",
        "offset": 20,
        "slot": "302",
        "type": "t_bool"
      },
      {
        "astId": 3029,
        "contract": "contracts/AtlasMine.sol:AtlasMine",
        "label": "totalRewardsEarned",
        "offset": 0,
        "slot": "303",
        "type": "t_uint256"
      },
      {
        "astId": 3031,
        "contract": "contracts/AtlasMine.sol:AtlasMine",
        "label": "totalUndistributedRewards",
        "offset": 0,
        "slot": "304",
        "type": "t_uint256"
      },
      {
        "astId": 3033,
        "contract": "contracts/AtlasMine.sol:AtlasMine",
        "label": "accMagicPerShare",
        "offset": 0,
        "slot": "305",
        "type": "t_uint256"
      },
      {
        "astId": 3035,
        "contract": "contracts/AtlasMine.sol:AtlasMine",
        "label": "totalLpToken",
        "offset": 0,
        "slot": "306",
        "type": "t_uint256"
      },
      {
        "astId": 3037,
        "contract": "contracts/AtlasMine.sol:AtlasMine",
        "label": "magicTotalDeposits",
        "offset": 0,
        "slot": "307",
        "type": "t_uint256"
      },
      {
        "astId": 3039,
        "contract": "contracts/AtlasMine.sol:AtlasMine",
        "label": "utilizationOverride",
        "offset": 0,
        "slot": "308",
        "type": "t_uint256"
      },
      {
        "astId": 3042,
        "contract": "contracts/AtlasMine.sol:AtlasMine",
        "label": "excludedAddresses",
        "offset": 0,
        "slot": "309",
        "type": "t_struct(AddressSet)2638_storage"
      },
      {
        "astId": 3044,
        "contract": "contracts/AtlasMine.sol:AtlasMine",
        "label": "legionMetadataStore",
        "offset": 0,
        "slot": "311",
        "type": "t_address"
      },
      {
        "astId": 3046,
        "contract": "contracts/AtlasMine.sol:AtlasMine",
        "label": "treasure",
        "offset": 0,
        "slot": "312",
        "type": "t_address"
      },
      {
        "astId": 3048,
        "contract": "contracts/AtlasMine.sol:AtlasMine",
        "label": "legion",
        "offset": 0,
        "slot": "313",
        "type": "t_address"
      },
      {
        "astId": 3052,
        "contract": "contracts/AtlasMine.sol:AtlasMine",
        "label": "isLegion1_1Staked",
        "offset": 0,
        "slot": "314",
        "type": "t_mapping(t_address,t_bool)"
      },
      {
        "astId": 3056,
        "contract": "contracts/AtlasMine.sol:AtlasMine",
        "label": "legionBoostMatrix",
        "offset": 0,
        "slot": "315",
        "type": "t_array(t_array(t_uint256)dyn_storage)dyn_storage"
      },
      {
        "astId": 3064,
        "contract": "contracts/AtlasMine.sol:AtlasMine",
        "label": "userInfo",
        "offset": 0,
        "slot": "316",
        "type": "t_mapping(t_address,t_mapping(t_uint256,t_struct(UserInfo)2984_storage))"
      },
      {
        "astId": 3070,
        "contract": "contracts/AtlasMine.sol:AtlasMine",
        "label": "allUserDepositIds",
        "offset": 0,
        "slot": "317",
        "type": "t_mapping(t_address,t_struct(UintSet)2795_storage)"
      },
      {
        "astId": 3075,
        "contract": "contracts/AtlasMine.sol:AtlasMine",
        "label": "currentId",
        "offset": 0,
        "slot": "318",
        "type": "t_mapping(t_address,t_uint256)"
      },
      {
        "astId": 3080,
        "contract": "contracts/AtlasMine.sol:AtlasMine",
        "label": "legionStaked",
        "offset": 0,
        "slot": "319",
        "type": "t_mapping(t_address,t_struct(UintSet)2795_storage)"
      },
      {
        "astId": 3086,
        "contract": "contracts/AtlasMine.sol:AtlasMine",
        "label": "treasureStaked",
        "offset": 0,
        "slot": "320",
        "type": "t_mapping(t_address,t_mapping(t_uint256,t_uint256))"
      },
      {
        "astId": 3090,
        "contract": "contracts/AtlasMine.sol:AtlasMine",
        "label": "treasureStakedAmount",
        "offset": 0,
        "slot": "321",
        "type": "t_mapping(t_address,t_uint256)"
      },
      {
        "astId": 3094,
        "contract": "contracts/AtlasMine.sol:AtlasMine",
        "label": "boosts",
        "offset": 0,
        "slot": "322",
        "type": "t_mapping(t_address,t_uint256)"
      }
    ],
    "types": {
      "t_address": {
        "encoding": "inplace",
        "label": "address",
        "numberOfBytes": "20"
      },
      "t_array(t_array(t_uint256)dyn_storage)dyn_storage": {
        "base": "t_array(t_uint256)dyn_storage",
        "encoding": "dynamic_array",
        "label": "uint256[][]",
        "numberOfBytes": "32"
      },
      "t_array(t_bytes32)dyn_storage": {
        "base": "t_bytes32",
        "encoding": "dynamic_array",
        "label": "bytes32[]",
        "numberOfBytes": "32"
      },
      "t_array(t_uint256)49_storage": {
        "base": "t_uint256",
        "encoding": "inplace",
        "label": "uint256[49]",
        "numberOfBytes": "1568"
      },
      "t_array(t_uint256)50_storage": {
        "base": "t_uint256",
        "encoding": "inplace",
        "label": "uint256[50]",
        "numberOfBytes": "1600"
      },
      "t_array(t_uint256)dyn_storage": {
        "base": "t_uint256",
        "encoding": "dynamic_array",
        "label": "uint256[]",
        "numberOfBytes": "32"
      },
      "t_bool": {
        "encoding": "inplace",
        "label": "bool",
        "numberOfBytes": "1"
      },
      "t_bytes32": {
        "encoding": "inplace",
        "label": "bytes32",
        "numberOfBytes": "32"
      },
      "t_contract(IERC20Upgradeable)1043": {
        "encoding": "inplace",
        "label": "contract IERC20Upgradeable",
        "numberOfBytes": "20"
      },
      "t_contract(IMasterOfCoin)6793": {
        "encoding": "inplace",
        "label": "contract IMasterOfCoin",
        "numberOfBytes": "20"
      },
      "t_enum(Lock)2968": {
        "encoding": "inplace",
        "label": "enum AtlasMine.Lock",
        "numberOfBytes": "1"
      },
      "t_int256": {
        "encoding": "inplace",
        "label": "int256",
        "numberOfBytes": "32"
      },
      "t_mapping(t_address,t_bool)": {
        "encoding": "mapping",
        "key": "t_address",
        "label": "mapping(address => bool)",
        "numberOfBytes": "32",
        "value": "t_bool"
      },
      "t_mapping(t_address,t_mapping(t_uint256,t_struct(UserInfo)2984_storage))": {
        "encoding": "mapping",
        "key": "t_address",
        "label": "mapping(address => mapping(uint256 => struct AtlasMine.UserInfo))",
        "numberOfBytes": "32",
        "value": "t_mapping(t_uint256,t_struct(UserInfo)2984_storage)"
      },
      "t_mapping(t_address,t_mapping(t_uint256,t_uint256))": {
        "encoding": "mapping",
        "key": "t_address",
        "label": "mapping(address => mapping(uint256 => uint256))",
        "numberOfBytes": "32",
        "value": "t_mapping(t_uint256,t_uint256)"
      },
      "t_mapping(t_address,t_struct(UintSet)2795_storage)": {
        "encoding": "mapping",
        "key": "t_address",
        "label": "mapping(address => struct EnumerableSetUpgradeable.UintSet)",
        "numberOfBytes": "32",
        "value": "t_struct(UintSet)2795_storage"
      },
      "t_mapping(t_address,t_uint256)": {
        "encoding": "mapping",
        "key": "t_address",
        "label": "mapping(address => uint256)",
        "numberOfBytes": "32",
        "value": "t_uint256"
      },
      "t_mapping(t_bytes32,t_struct(AddressSet)2638_storage)": {
        "encoding": "mapping",
        "key": "t_bytes32",
        "label": "mapping(bytes32 => struct EnumerableSetUpgradeable.AddressSet)",
        "numberOfBytes": "32",
        "value": "t_struct(AddressSet)2638_storage"
      },
      "t_mapping(t_bytes32,t_struct(RoleData)199_storage)": {
        "encoding": "mapping",
        "key": "t_bytes32",
        "label": "mapping(bytes32 => struct AccessControlUpgradeable.RoleData)",
        "numberOfBytes": "32",
        "value": "t_struct(RoleData)199_storage"
      },
      "t_mapping(t_bytes32,t_uint256)": {
        "encoding": "mapping",
        "key": "t_bytes32",
        "label": "mapping(bytes32 => uint256)",
        "numberOfBytes": "32",
        "value": "t_uint256"
      },
      "t_mapping(t_uint256,t_struct(UserInfo)2984_storage)": {
        "encoding": "mapping",
        "key": "t_uint256",
        "label": "mapping(uint256 => struct AtlasMine.UserInfo)",
        "numberOfBytes": "32",
        "value": "t_struct(UserInfo)2984_storage"
      },
      "t_mapping(t_uint256,t_uint256)": {
        "encoding": "mapping",
        "key": "t_uint256",
        "label": "mapping(uint256 => uint256)",
        "numberOfBytes": "32",
        "value": "t_uint256"
      },
      "t_struct(AddressSet)2638_storage": {
        "encoding": "inplace",
        "label": "struct EnumerableSetUpgradeable.AddressSet",
        "members": [
          {
            "astId": 2637,
            "contract": "contracts/AtlasMine.sol:AtlasMine",
            "label": "_inner",
            "offset": 0,
            "slot": "0",
            "type": "t_struct(Set)2337_storage"
          }
        ],
        "numberOfBytes": "64"
      },
      "t_struct(RoleData)199_storage": {
        "encoding": "inplace",
        "label": "struct AccessControlUpgradeable.RoleData",
        "members": [
          {
            "astId": 196,
            "contract": "contracts/AtlasMine.sol:AtlasMine",
            "label": "members",
            "offset": 0,
            "slot": "0",
            "type": "t_mapping(t_address,t_bool)"
          },
          {
            "astId": 198,
            "contract": "contracts/AtlasMine.sol:AtlasMine",
            "label": "adminRole",
            "offset": 0,
            "slot": "1",
            "type": "t_bytes32"
          }
        ],
        "numberOfBytes": "64"
      },
      "t_struct(Set)2337_storage": {
        "encoding": "inplace",
        "label": "struct EnumerableSetUpgradeable.Set",
        "members": [
          {
            "astId": 2332,
            "contract": "contracts/AtlasMine.sol:AtlasMine",
            "label": "_values",
            "offset": 0,
            "slot": "0",
            "type": "t_array(t_bytes32)dyn_storage"
          },
          {
            "astId": 2336,
            "contract": "contracts/AtlasMine.sol:AtlasMine",
            "label": "_indexes",
            "offset": 0,
            "slot": "1",
            "type": "t_mapping(t_bytes32,t_uint256)"
          }
        ],
        "numberOfBytes": "64"
      },
      "t_struct(UintSet)2795_storage": {
        "encoding": "inplace",
        "label": "struct EnumerableSetUpgradeable.UintSet",
        "members": [
          {
            "astId": 2794,
            "contract": "contracts/AtlasMine.sol:AtlasMine",
            "label": "_inner",
            "offset": 0,
            "slot": "0",
            "type": "t_struct(Set)2337_storage"
          }
        ],
        "numberOfBytes": "64"
      },
      "t_struct(UserInfo)2984_storage": {
        "encoding": "inplace",
        "label": "struct AtlasMine.UserInfo",
        "members": [
          {
            "astId": 2970,
            "contract": "contracts/AtlasMine.sol:AtlasMine",
            "label": "originalDepositAmount",
            "offset": 0,
            "slot": "0",
            "type": "t_uint256"
          },
          {
            "astId": 2972,
            "contract": "contracts/AtlasMine.sol:AtlasMine",
            "label": "depositAmount",
            "offset": 0,
            "slot": "1",
            "type": "t_uint256"
          },
          {
            "astId": 2974,
            "contract": "contracts/AtlasMine.sol:AtlasMine",
            "label": "lpAmount",
            "offset": 0,
            "slot": "2",
            "type": "t_uint256"
          },
          {
            "astId": 2976,
            "contract": "contracts/AtlasMine.sol:AtlasMine",
            "label": "lockedUntil",
            "offset": 0,
            "slot": "3",
            "type": "t_uint256"
          },
          {
            "astId": 2978,
            "contract": "contracts/AtlasMine.sol:AtlasMine",
            "label": "vestingLastUpdate",
            "offset": 0,
            "slot": "4",
            "type": "t_uint256"
          },
          {
            "astId": 2980,
            "contract": "contracts/AtlasMine.sol:AtlasMine",
            "label": "rewardDebt",
            "offset": 0,
            "slot": "5",
            "type": "t_int256"
          },
          {
            "astId": 2983,
            "contract": "contracts/AtlasMine.sol:AtlasMine",
            "label": "lock",
            "offset": 0,
            "slot": "6",
            "type": "t_enum(Lock)2968"
          }
        ],
        "numberOfBytes": "224"
      },
      "t_uint256": {
        "encoding": "inplace",
        "label": "uint256",
        "numberOfBytes": "32"
      }
    }
  }
}