{
  "address": "0xb40BC8bF5f4dF00B0b32C56E8d3Ecd802656cCe4",
  "abi": [
    {
      "anonymous": false,
      "inputs": [
        {
          "indexed": false,
          "internalType": "address",
          "name": "stream",
          "type": "address"
        },
        {
          "indexed": false,
          "internalType": "bool",
          "name": "value",
          "type": "bool"
        }
      ],
      "name": "CallbackSet",
      "type": "event"
    },
    {
      "anonymous": false,
      "inputs": [
        {
          "indexed": true,
          "internalType": "address",
          "name": "stream",
          "type": "address"
        },
        {
          "indexed": false,
          "internalType": "uint256",
          "name": "rewardsPaid",
          "type": "uint256"
        },
        {
          "indexed": false,
          "internalType": "uint256",
          "name": "rewardsPaidInTotal",
          "type": "uint256"
        }
      ],
      "name": "RewardsPaid",
      "type": "event"
    },
    {
      "anonymous": false,
      "inputs": [
        {
          "indexed": true,
          "internalType": "bytes32",
          "name": "role",
          "type": "bytes32"
        },
        {
          "indexed": true,
          "internalType": "bytes32",
          "name": "previousAdminRole",
          "type": "bytes32"
        },
        {
          "indexed": true,
          "internalType": "bytes32",
          "name": "newAdminRole",
          "type": "bytes32"
        }
      ],
      "name": "RoleAdminChanged",
      "type": "event"
    },
    {
      "anonymous": false,
      "inputs": [
        {
          "indexed": true,
          "internalType": "bytes32",
          "name": "role",
          "type": "bytes32"
        },
        {
          "indexed": true,
          "internalType": "address",
          "name": "account",
          "type": "address"
        },
        {
          "indexed": true,
          "internalType": "address",
          "name": "sender",
          "type": "address"
        }
      ],
      "name": "RoleGranted",
      "type": "event"
    },
    {
      "anonymous": false,
      "inputs": [
        {
          "indexed": true,
          "internalType": "bytes32",
          "name": "role",
          "type": "bytes32"
        },
        {
          "indexed": true,
          "internalType": "address",
          "name": "account",
          "type": "address"
        },
        {
          "indexed": true,
          "internalType": "address",
          "name": "sender",
          "type": "address"
        }
      ],
      "name": "RoleRevoked",
      "type": "event"
    },
    {
      "anonymous": false,
      "inputs": [
        {
          "indexed": true,
          "internalType": "address",
          "name": "stream",
          "type": "address"
        },
        {
          "indexed": false,
          "internalType": "uint256",
          "name": "amount",
          "type": "uint256"
        },
        {
          "indexed": false,
          "internalType": "uint256",
          "name": "startTimestamp",
          "type": "uint256"
        },
        {
          "indexed": false,
          "internalType": "uint256",
          "name": "endTimestamp",
          "type": "uint256"
        }
      ],
      "name": "StreamAdded",
      "type": "event"
    },
    {
      "anonymous": false,
      "inputs": [
        {
          "indexed": true,
          "internalType": "address",
          "name": "stream",
          "type": "address"
        },
        {
          "indexed": false,
          "internalType": "uint256",
          "name": "amount",
          "type": "uint256"
        }
      ],
      "name": "StreamDefunded",
      "type": "event"
    },
    {
      "anonymous": false,
      "inputs": [
        {
          "indexed": true,
          "internalType": "address",
          "name": "stream",
          "type": "address"
        },
        {
          "indexed": false,
          "internalType": "uint256",
          "name": "amount",
          "type": "uint256"
        }
      ],
      "name": "StreamFunded",
      "type": "event"
    },
    {
      "anonymous": false,
      "inputs": [
        {
          "indexed": true,
          "internalType": "address",
          "name": "stream",
          "type": "address"
        },
        {
          "indexed": false,
          "internalType": "address",
          "name": "from",
          "type": "address"
        },
        {
          "indexed": false,
          "internalType": "uint256",
          "name": "amount",
          "type": "uint256"
        }
      ],
      "name": "StreamGrant",
      "type": "event"
    },
    {
      "anonymous": false,
      "inputs": [
        {
          "indexed": true,
          "internalType": "address",
          "name": "stream",
          "type": "address"
        }
      ],
      "name": "StreamRemoved",
      "type": "event"
    },
    {
      "anonymous": false,
      "inputs": [
        {
          "indexed": true,
          "internalType": "address",
          "name": "stream",
          "type": "address"
        },
        {
          "indexed": false,
          "internalType": "uint256",
          "name": "startTimestamp",
          "type": "uint256"
        },
        {
          "indexed": false,
          "internalType": "uint256",
          "name": "endTimestamp",
          "type": "uint256"
        }
      ],
      "name": "StreamTimeUpdated",
      "type": "event"
    },
    {
      "anonymous": false,
      "inputs": [
        {
          "indexed": false,
          "internalType": "address",
          "name": "to",
          "type": "address"
        },
        {
          "indexed": false,
          "internalType": "uint256",
          "name": "amount",
          "type": "uint256"
        }
      ],
      "name": "Withdraw",
      "type": "event"
    },
    {
      "inputs": [],
      "name": "DEFAULT_ADMIN_ROLE",
      "outputs": [
        {
          "internalType": "bytes32",
          "name": "",
          "type": "bytes32"
        }
      ],
      "stateMutability": "view",
      "type": "function"
    },
    {
      "inputs": [],
      "name": "MASTER_OF_COIN_ADMIN_ROLE",
      "outputs": [
        {
          "internalType": "bytes32",
          "name": "",
          "type": "bytes32"
        }
      ],
      "stateMutability": "view",
      "type": "function"
    },
    {
      "inputs": [
        {
          "internalType": "address",
          "name": "_stream",
          "type": "address"
        },
        {
          "internalType": "uint256",
          "name": "_totalRewards",
          "type": "uint256"
        },
        {
          "internalType": "uint256",
          "name": "_startTimestamp",
          "type": "uint256"
        },
        {
          "internalType": "uint256",
          "name": "_endTimestamp",
          "type": "uint256"
        },
        {
          "internalType": "bool",
          "name": "_callback",
          "type": "bool"
        }
      ],
      "name": "addStream",
      "outputs": [],
      "stateMutability": "nonpayable",
      "type": "function"
    },
    {
      "inputs": [
        {
          "internalType": "address",
          "name": "",
          "type": "address"
        }
      ],
      "name": "callbackRegistry",
      "outputs": [
        {
          "internalType": "bool",
          "name": "",
          "type": "bool"
        }
      ],
      "stateMutability": "view",
      "type": "function"
    },
    {
      "inputs": [
        {
          "internalType": "address",
          "name": "_stream",
          "type": "address"
        },
        {
          "internalType": "uint256",
          "name": "_amount",
          "type": "uint256"
        }
      ],
      "name": "defundStream",
      "outputs": [],
      "stateMutability": "nonpayable",
      "type": "function"
    },
    {
      "inputs": [
        {
          "internalType": "address",
          "name": "_stream",
          "type": "address"
        },
        {
          "internalType": "uint256",
          "name": "_amount",
          "type": "uint256"
        }
      ],
      "name": "fundStream",
      "outputs": [],
      "stateMutability": "nonpayable",
      "type": "function"
    },
    {
      "inputs": [],
      "name": "getGlobalRatePerSecond",
      "outputs": [
        {
          "internalType": "uint256",
          "name": "globalRatePerSecond",
          "type": "uint256"
        }
      ],
      "stateMutability": "view",
      "type": "function"
    },
    {
      "inputs": [
        {
          "internalType": "address",
          "name": "_stream",
          "type": "address"
        }
      ],
      "name": "getPendingRewards",
      "outputs": [
        {
          "internalType": "uint256",
          "name": "pendingRewards",
          "type": "uint256"
        }
      ],
      "stateMutability": "view",
      "type": "function"
    },
    {
      "inputs": [
        {
          "internalType": "address",
          "name": "_stream",
          "type": "address"
        }
      ],
      "name": "getRatePerSecond",
      "outputs": [
        {
          "internalType": "uint256",
          "name": "ratePerSecond",
          "type": "uint256"
        }
      ],
      "stateMutability": "view",
      "type": "function"
    },
    {
      "inputs": [
        {
          "internalType": "bytes32",
          "name": "role",
          "type": "bytes32"
        }
      ],
      "name": "getRoleAdmin",
      "outputs": [
        {
          "internalType": "bytes32",
          "name": "",
          "type": "bytes32"
        }
      ],
      "stateMutability": "view",
      "type": "function"
    },
    {
      "inputs": [
        {
          "internalType": "bytes32",
          "name": "role",
          "type": "bytes32"
        },
        {
          "internalType": "uint256",
          "name": "index",
          "type": "uint256"
        }
      ],
      "name": "getRoleMember",
      "outputs": [
        {
          "internalType": "address",
          "name": "",
          "type": "address"
        }
      ],
      "stateMutability": "view",
      "type": "function"
    },
    {
      "inputs": [
        {
          "internalType": "bytes32",
          "name": "role",
          "type": "bytes32"
        }
      ],
      "name": "getRoleMemberCount",
      "outputs": [
        {
          "internalType": "uint256",
          "name": "",
          "type": "uint256"
        }
      ],
      "stateMutability": "view",
      "type": "function"
    },
    {
      "inputs": [
        {
          "internalType": "address",
          "name": "_stream",
          "type": "address"
        }
      ],
      "name": "getStreamConfig",
      "outputs": [
        {
          "components": [
            {
              "internalType": "uint256",
              "name": "totalRewards",
              "type": "uint256"
            },
            {
              "internalType": "uint256",
              "name": "startTimestamp",
              "type": "uint256"
            },
            {
              "internalType": "uint256",
              "name": "endTimestamp",
              "type": "uint256"
            },
            {
              "internalType": "uint256",
              "name": "lastRewardTimestamp",
              "type": "uint256"
            },
            {
              "internalType": "uint256",
              "name": "ratePerSecond",
              "type": "uint256"
            },
            {
              "internalType": "uint256",
              "name": "paid",
              "type": "uint256"
            }
          ],
          "internalType": "struct IMasterOfCoin.CoinStream",
          "name": "",
          "type": "tuple"
        }
      ],
      "stateMutability": "view",
      "type": "function"
    },
    {
      "inputs": [],
      "name": "getStreams",
      "outputs": [
        {
          "internalType": "address[]",
          "name": "",
          "type": "address[]"
        }
      ],
      "stateMutability": "view",
      "type": "function"
    },
    {
      "inputs": [
        {
          "internalType": "bytes32",
          "name": "role",
          "type": "bytes32"
        },
        {
          "internalType": "address",
          "name": "account",
          "type": "address"
        }
      ],
      "name": "grantRole",
      "outputs": [],
      "stateMutability": "nonpayable",
      "type": "function"
    },
    {
      "inputs": [
        {
          "internalType": "address",
          "name": "_stream",
          "type": "address"
        },
        {
          "internalType": "uint256",
          "name": "_amount",
          "type": "uint256"
        }
      ],
      "name": "grantTokenToStream",
      "outputs": [],
      "stateMutability": "nonpayable",
      "type": "function"
    },
    {
      "inputs": [
        {
          "internalType": "bytes32",
          "name": "role",
          "type": "bytes32"
        },
        {
          "internalType": "address",
          "name": "account",
          "type": "address"
        }
      ],
      "name": "hasRole",
      "outputs": [
        {
          "internalType": "bool",
          "name": "",
          "type": "bool"
        }
      ],
      "stateMutability": "view",
      "type": "function"
    },
    {
      "inputs": [
        {
          "internalType": "address",
          "name": "_magic",
          "type": "address"
        }
      ],
      "name": "init",
      "outputs": [],
      "stateMutability": "nonpayable",
      "type": "function"
    },
    {
      "inputs": [],
      "name": "magic",
      "outputs": [
        {
          "internalType": "contract IERC20Upgradeable",
          "name": "",
          "type": "address"
        }
      ],
      "stateMutability": "view",
      "type": "function"
    },
    {
      "inputs": [
        {
          "internalType": "address",
          "name": "_stream",
          "type": "address"
        }
      ],
      "name": "removeStream",
      "outputs": [],
      "stateMutability": "nonpayable",
      "type": "function"
    },
    {
      "inputs": [
        {
          "internalType": "bytes32",
          "name": "role",
          "type": "bytes32"
        },
        {
          "internalType": "address",
          "name": "account",
          "type": "address"
        }
      ],
      "name": "renounceRole",
      "outputs": [],
      "stateMutability": "nonpayable",
      "type": "function"
    },
    {
      "inputs": [],
      "name": "requestRewards",
      "outputs": [
        {
          "internalType": "uint256",
          "name": "rewardsPaid",
          "type": "uint256"
        }
      ],
      "stateMutability": "nonpayable",
      "type": "function"
    },
    {
      "inputs": [
        {
          "internalType": "bytes32",
          "name": "role",
          "type": "bytes32"
        },
        {
          "internalType": "address",
          "name": "account",
          "type": "address"
        }
      ],
      "name": "revokeRole",
      "outputs": [],
      "stateMutability": "nonpayable",
      "type": "function"
    },
    {
      "inputs": [
        {
          "internalType": "address",
          "name": "_stream",
          "type": "address"
        },
        {
          "internalType": "bool",
          "name": "_value",
          "type": "bool"
        }
      ],
      "name": "setCallback",
      "outputs": [],
      "stateMutability": "nonpayable",
      "type": "function"
    },
    {
      "inputs": [
        {
          "internalType": "address",
          "name": "_magic",
          "type": "address"
        }
      ],
      "name": "setMagicToken",
      "outputs": [],
      "stateMutability": "nonpayable",
      "type": "function"
    },
    {
      "inputs": [
        {
          "internalType": "address",
          "name": "",
          "type": "address"
        }
      ],
      "name": "streamConfig",
      "outputs": [
        {
          "internalType": "uint256",
          "name": "totalRewards",
          "type": "uint256"
        },
        {
          "internalType": "uint256",
          "name": "startTimestamp",
          "type": "uint256"
        },
        {
          "internalType": "uint256",
          "name": "endTimestamp",
          "type": "uint256"
        },
        {
          "internalType": "uint256",
          "name": "lastRewardTimestamp",
          "type": "uint256"
        },
        {
          "internalType": "uint256",
          "name": "ratePerSecond",
          "type": "uint256"
        },
        {
          "internalType": "uint256",
          "name": "paid",
          "type": "uint256"
        }
      ],
      "stateMutability": "view",
      "type": "function"
    },
    {
      "inputs": [
        {
          "internalType": "bytes4",
          "name": "interfaceId",
          "type": "bytes4"
        }
      ],
      "name": "supportsInterface",
      "outputs": [
        {
          "internalType": "bool",
          "name": "",
          "type": "bool"
        }
      ],
      "stateMutability": "view",
      "type": "function"
    },
    {
      "inputs": [
        {
          "internalType": "address",
          "name": "_stream",
          "type": "address"
        },
        {
          "internalType": "uint256",
          "name": "_startTimestamp",
          "type": "uint256"
        },
        {
          "internalType": "uint256",
          "name": "_endTimestamp",
          "type": "uint256"
        }
      ],
      "name": "updateStreamTime",
      "outputs": [],
      "stateMutability": "nonpayable",
      "type": "function"
    },
    {
      "inputs": [
        {
          "internalType": "address",
          "name": "_to",
          "type": "address"
        },
        {
          "internalType": "uint256",
          "name": "_amount",
          "type": "uint256"
        }
      ],
      "name": "withdrawMagic",
      "outputs": [],
      "stateMutability": "nonpayable",
      "type": "function"
    }
  ],
  "transactionHash": "0x5b66b0467509700f972734d809dad7f05e7e95f7bcc7ecaf6c14d23298c7638f",
  "args": [],
  "solcInputHash": "c6cc0ed35ae36ffe84c2a887b77b1e61",
  "bytecode": "0x608060405234801561001057600080fd5b506126e0806100206000396000f3fe608060405234801561001057600080fd5b50600436106101cf5760003560e01c80639010d07c11610104578063ca15c873116100a2578063df6564d411610071578063df6564d414610496578063e53c0ce8146104a9578063e92dcfbd146104be578063f6ed2017146104d157600080fd5b8063ca15c87314610448578063d04fed631461045b578063d3e6721114610470578063d547741f1461048357600080fd5b8063a217fddf116100de578063a217fddf146103b6578063ae5c9357146103be578063b2eb853f146103c6578063c95f0e92146103e957600080fd5b80639010d07c1461038857806391a2024d1461039b57806391d14854146103a357600080fd5b80632f2ff15d1161017157806359c2bb291161014b57806359c2bb291461033c5780637e11ee0d1461034f5780637fa33cbc14610362578063808a75591461037557600080fd5b80632f2ff15d1461030357806336568abe146103165780634744d1661461032957600080fd5b80630ebc4fdc116101ad5780630ebc4fdc1461029757806310af21af146102ac57806319ab453c146102bf578063248a9ca3146102d257600080fd5b806301ffc9a7146101d45780630847bf8a146101fc5780630d8546461461026c575b600080fd5b6101e76101e23660046121bc565b6104e4565b60405190151581526020015b60405180910390f35b61023f61020a366004612202565b60ca60205260009081526040902080546001820154600283015460038401546004850154600590950154939492939192909186565b604080519687526020870195909552938501929092526060840152608083015260a082015260c0016101f3565b60c95461027f906001600160a01b031681565b6040516001600160a01b0390911681526020016101f3565b6102aa6102a5366004612202565b61050f565b005b6102aa6102ba36600461222e565b6106bf565b6102aa6102cd366004612202565b610877565b6102f56102e0366004612282565b60009081526065602052604090206001015490565b6040519081526020016101f3565b6102aa61031136600461229b565b610984565b6102aa61032436600461229b565b6109af565b6102f5610337366004612202565b610a29565b6102aa61034a3660046122c7565b610a6a565b6102aa61035d3660046122f1565b610cf9565b6102aa6103703660046122c7565b610e8c565b6102aa6103833660046122c7565b610f5c565b61027f610396366004612328565b610fd3565b6102f5610ff2565b6101e76103b136600461229b565b61103d565b6102f5600081565b6102f5611068565b6101e76103d4366004612202565b60cd6020526000908152604090205460ff1681565b6103fc6103f7366004612202565b6111cf565b6040516101f39190600060c082019050825182526020830151602083015260408301516040830152606083015160608301526080830151608083015260a083015160a083015292915050565b6102f5610456366004612282565b61126a565b610463611281565b6040516101f3919061234a565b6102aa61047e366004612397565b611292565b6102aa61049136600461229b565b61154f565b6102aa6104a4366004612202565b611575565b6102f560008051602061268b83398151915281565b6102aa6104cc3660046122c7565b6115b1565b6102f56104df366004612202565b611682565b60006001600160e01b03198216635a05180f60e01b1480610509575061050982611713565b92915050565b60008051602061268b8339815191526105288133611748565b8161053460cb826117ac565b6105595760405162461bcd60e51b8152600401610550906123ca565b60405180910390fd5b6001600160a01b038316600090815260cd6020526040902054839060ff16156105d057806001600160a01b031663bc1f03286040518163ffffffff1660e01b8152600401600060405180830381600087803b1580156105b757600080fd5b505af11580156105cb573d6000803e3d6000fd5b505050505b6105db60cb856117ce565b15610644576001600160a01b038416600081815260ca602052604080822082815560018101839055600281018390556003810183905560048101839055600501829055517f254bcf11eab3bff9d2632cae78df40253dd1675b019ead4d56b342124e8ed5f89190a25b6001600160a01b038116600090815260cd602052604090205460ff16156106b957806001600160a01b0316634f9845196040518163ffffffff1660e01b8152600401600060405180830381600087803b1580156106a057600080fd5b505af11580156106b4573d6000803e3d6000fd5b505050505b50505050565b60008051602061268b8339815191526106d88133611748565b8383116107235760405162461bcd60e51b815260206004820152601960248201527852657761726473206d757374206c617374203e20312073656360381b6044820152606401610550565b61072e60cb876117ac565b156107855760405162461bcd60e51b815260206004820152602160248201527f53747265616d20666f72206164647265737320616c72656164792065786973746044820152607360f81b6064820152608401610550565b61079060cb876117e3565b1561086f576040518060c0016040528086815260200185815260200184815260200185815260200185856107c4919061240f565b6107ce9088612426565b8152600060209182018190526001600160a01b03891680825260ca83526040918290208451815584840151600182015584830151600282015560608086015160038301556080860151600483015560a0909501516005909101558151898152928301889052908201869052917f484da220470cb56a2f9c4192f61d124f2d69b205218c75f701b267e4da852bbc910160405180910390a261086f8683610cf9565b505050505050565b600054610100900460ff166108925760005460ff1615610896565b303b155b6108f95760405162461bcd60e51b815260206004820152602e60248201527f496e697469616c697a61626c653a20636f6e747261637420697320616c72656160448201526d191e481a5b9a5d1a585b1a5e995960921b6064820152608401610550565b600054610100900460ff1615801561091b576000805461ffff19166101011790555b60c980546001600160a01b0319166001600160a01b03841617905561094e60008051602061268b833981519152806117f8565b61096660008051602061268b83398151915233611843565b61096e611865565b8015610980576000805461ff00191690555b5050565b6000828152606560205260409020600101546109a08133611748565b6109aa8383611843565b505050565b6001600160a01b0381163314610a1f5760405162461bcd60e51b815260206004820152602f60248201527f416363657373436f6e74726f6c3a2063616e206f6e6c792072656e6f756e636560448201526e103937b632b9903337b91039b2b63360891b6064820152608401610550565b61098082826118ae565b6001600160a01b038116600090815260ca60205260408120600181015442118015610a575750806002015442105b15610a6457806004015491505b50919050565b60008051602061268b833981519152610a838133611748565b82610a8f60cb826117ac565b610aab5760405162461bcd60e51b8152600401610550906123ca565b6001600160a01b038416600090815260ca602052604090206002015484904210610ae75760405162461bcd60e51b815260040161055090612448565b6001600160a01b038516600090815260cd6020526040902054859060ff1615610b5e57806001600160a01b031663bc1f03286040518163ffffffff1660e01b8152600401600060405180830381600087803b158015610b4557600080fd5b505af1158015610b59573d6000803e3d6000fd5b505050505b6001600160a01b038616600090815260ca6020526040812060038101546002820154919291610b8d919061240f565b90506000826004015482610ba1919061246e565b905080881115610c095760405162461bcd60e51b815260206004820152602d60248201527f52656475636520616d6f756e7420746f6f206c617267652c207265776172647360448201526c08185b1c9958591e481c185a59609a1b6064820152608401610550565b81610c14898361240f565b610c1e9190612426565b6004840155825488908490600090610c3790849061240f565b90915550506040518881526001600160a01b038a16907fb66d4375eb1b962d0f2d8c3b761817076de66e3a4707e2dc664b3d0e1c16cbc29060200160405180910390a25050506001600160a01b038116600090815260cd602052604090205460ff161561086f57806001600160a01b0316634f9845196040518163ffffffff1660e01b8152600401600060405180830381600087803b158015610cd957600080fd5b505af1158015610ced573d6000803e3d6000fd5b50505050505050505050565b60008051602061268b833981519152610d128133611748565b82610d1e60cb826117ac565b610d3a5760405162461bcd60e51b8152600401610550906123ca565b6001600160a01b038416600090815260cd6020526040902054849060ff1615610db157806001600160a01b031663bc1f03286040518163ffffffff1660e01b8152600401600060405180830381600087803b158015610d9857600080fd5b505af1158015610dac573d6000803e3d6000fd5b505050505b6001600160a01b038516600081815260cd6020908152604091829020805460ff19168815159081179091558251938452908301527fb5541a615b23b714aea0fdeb7ca01ff9286be2c990ab585f7dc8f094701ff50f910160405180910390a16001600160a01b038116600090815260cd602052604090205460ff1615610e8557806001600160a01b0316634f9845196040518163ffffffff1660e01b8152600401600060405180830381600087803b158015610e6c57600080fd5b505af1158015610e80573d6000803e3d6000fd5b505050505b5050505050565b81610e9860cb826117ac565b610eb45760405162461bcd60e51b8152600401610550906123ca565b6001600160a01b038316600090815260ca602052604090206002015483904210610ef05760405162461bcd60e51b815260040161055090612448565b610efa84846118d0565b60c954610f12906001600160a01b0316333086611a3c565b60408051338152602081018590526001600160a01b038616917ff48b992127d9bf4383e884ca74bfce7005bb2bca01b7233463e2279f46033e1e910160405180910390a250505050565b60008051602061268b833981519152610f758133611748565b60c954610f8c906001600160a01b03168484611aa7565b604080516001600160a01b0385168152602081018490527f884edad9ce6fa2440d8a54cc123490eb96d2768479d49ff9c7366125a9424364910160405180910390a1505050565b6000828152609760205260408120610feb9083611ad7565b9392505050565b600080610fff60cb611ae3565b905060005b818110156110385761101a61033760cb83611ad7565b611024908461248d565b925080611030816124a5565b915050611004565b505090565b60009182526065602090815260408084206001600160a01b0393909316845291905290205460ff1690565b33600081815260ca60205260408120909161108290611682565b91508115806110fa575060c9546040516370a0823160e01b815230600482015283916001600160a01b0316906370a0823190602401602060405180830381865afa1580156110d4573d6000803e3d6000fd5b505050506040513d601f19601f820116820180604052508101906110f891906124c0565b105b1561110757600091505090565b8181600501600082825461111b919061248d565b909155505042600382015580546005820154111561116e5760405162461bcd60e51b815260206004820152601060248201526f52657761726473206f766572666c6f7760801b6044820152606401610550565b60c954611185906001600160a01b03163384611aa7565b600581015460405133917f53195aae24c76f608fd5b9b6ee2da62eb3a6f4e5279d15a8ddfef43199a4b38e916111c391868252602082015260400190565b60405180910390a25090565b6112086040518060c001604052806000815260200160008152602001600081526020016000815260200160008152602001600081525090565b506001600160a01b0316600090815260ca6020908152604091829020825160c08101845281548152600182015492810192909252600281015492820192909252600382015460608201526004820154608082015260059091015460a082015290565b600081815260976020526040812061050990611ae3565b606061128d60cb611aed565b905090565b60008051602061268b8339815191526112ab8133611748565b836112b760cb826117ac565b6112d35760405162461bcd60e51b8152600401610550906123ca565b6001600160a01b038516600090815260cd6020526040902054859060ff161561134a57806001600160a01b031663bc1f03286040518163ffffffff1660e01b8152600401600060405180830381600087803b15801561133157600080fd5b505af1158015611345573d6000803e3d6000fd5b505050505b6001600160a01b038616600090815260ca6020526040902085156113d2574286116113c35760405162461bcd60e51b8152602060048201526024808201527f737461727454696d657374616d702063616e6e6f7420626520696e20746865206044820152631c185cdd60e21b6064820152608401610550565b60018101869055600381018690555b841561147a578585116114235760405162461bcd60e51b815260206004820152601960248201527852657761726473206d757374206c617374203e20312073656360381b6044820152606401610550565b4285116114725760405162461bcd60e51b815260206004820152601e60248201527f43616e6e6f7420656e64207265776172647320696e20746865207061737400006044820152606401610550565b600281018590555b8060030154816002015461148e919061240f565b6005820154825461149f919061240f565b6114a99190612426565b600482015560408051878152602081018790526001600160a01b038916917f1fd81367da382670a175c21794f60c2d5c54ccdc0352f188e456f211639cd4b4910160405180910390a2506001600160a01b038116600090815260cd602052604090205460ff161561086f57806001600160a01b0316634f9845196040518163ffffffff1660e01b8152600401600060405180830381600087803b158015610cd957600080fd5b60008281526065602052604090206001015461156b8133611748565b6109aa83836118ae565b60008051602061268b83398151915261158e8133611748565b5060c980546001600160a01b0319166001600160a01b0392909216919091179055565b60008051602061268b8339815191526115ca8133611748565b826115d660cb826117ac565b6115f25760405162461bcd60e51b8152600401610550906123ca565b6001600160a01b038416600090815260ca60205260409020600201548490421061162e5760405162461bcd60e51b815260040161055090612448565b61163885856118d0565b846001600160a01b03167f3cc66965316d63dfc547ebbc450bf2deef36b96d3436c5a3874fff04e07c54a58560405161167391815260200190565b60405180910390a25050505050565b6001600160a01b038116600090815260ca60205260408120600581015481546003830154600284015442106116c2576116bb838361240f565b945061170a565b8042111561170a5760006116d6824261240f565b90508460040154816116e8919061246e565b9550826116f5878661248d565b111561170857611705848461240f565b95505b505b50505050919050565b60006001600160e01b03198216637965db0b60e01b148061050957506301ffc9a760e01b6001600160e01b0319831614610509565b611752828261103d565b6109805761176a816001600160a01b03166014611afa565b611775836020611afa565b604051602001611786929190612505565b60408051601f198184030181529082905262461bcd60e51b82526105509160040161257a565b6001600160a01b03811660009081526001830160205260408120541515610feb565b6000610feb836001600160a01b038416611c96565b6000610feb836001600160a01b038416611d89565b600082815260656020526040808220600101805490849055905190918391839186917fbd79b86ffe0ab8e8776151514217cd7cacd52c909f66475c3af44e129f0b00ff9190a4505050565b61184d8282611dd8565b60008281526097602052604090206109aa90826117e3565b600054610100900460ff1661188c5760405162461bcd60e51b8152600401610550906125ad565b611894611e5e565b61189c611e5e565b6118a4611e5e565b6118ac611e5e565b565b6118b88282611e85565b60008281526097602052604090206109aa90826117ce565b6001600160a01b038216600090815260cd6020526040902054829060ff161561194757806001600160a01b031663bc1f03286040518163ffffffff1660e01b8152600401600060405180830381600087803b15801561192e57600080fd5b505af1158015611942573d6000803e3d6000fd5b505050505b6001600160a01b038316600090815260ca6020526040812060038101546002820154919291611976919061240f565b9050600082600401548261198a919061246e565b905081611997868361248d565b6119a19190612426565b60048401558254859084906000906119ba90849061248d565b909155505050506001600160a01b038216600090815260cd602052604090205460ff161590506109aa57806001600160a01b0316634f9845196040518163ffffffff1660e01b8152600401600060405180830381600087803b158015611a1f57600080fd5b505af1158015611a33573d6000803e3d6000fd5b50505050505050565b6040516001600160a01b03808516602483015283166044820152606481018290526106b99085906323b872dd60e01b906084015b60408051601f198184030181529190526020810180516001600160e01b03166001600160e01b031990931692909217909152611eec565b6040516001600160a01b0383166024820152604481018290526109aa90849063a9059cbb60e01b90606401611a70565b6000610feb8383611fbe565b6000610509825490565b60606000610feb83611fe8565b60606000611b0983600261246e565b611b1490600261248d565b67ffffffffffffffff811115611b2c57611b2c6125f8565b6040519080825280601f01601f191660200182016040528015611b56576020820181803683370190505b509050600360fc1b81600081518110611b7157611b7161260e565b60200101906001600160f81b031916908160001a905350600f60fb1b81600181518110611ba057611ba061260e565b60200101906001600160f81b031916908160001a9053506000611bc484600261246e565b611bcf90600161248d565b90505b6001811115611c47576f181899199a1a9b1b9c1cb0b131b232b360811b85600f1660108110611c0357611c0361260e565b1a60f81b828281518110611c1957611c1961260e565b60200101906001600160f81b031916908160001a90535060049490941c93611c4081612624565b9050611bd2565b508315610feb5760405162461bcd60e51b815260206004820181905260248201527f537472696e67733a20686578206c656e67746820696e73756666696369656e746044820152606401610550565b60008181526001830160205260408120548015611d7f576000611cba60018361240f565b8554909150600090611cce9060019061240f565b9050818114611d33576000866000018281548110611cee57611cee61260e565b9060005260206000200154905080876000018481548110611d1157611d1161260e565b6000918252602080832090910192909255918252600188019052604090208390555b8554869080611d4457611d4461263b565b600190038181906000526020600020016000905590558560010160008681526020019081526020016000206000905560019350505050610509565b6000915050610509565b6000818152600183016020526040812054611dd057508154600181810184556000848152602080822090930184905584548482528286019093526040902091909155610509565b506000610509565b611de2828261103d565b6109805760008281526065602090815260408083206001600160a01b03851684529091529020805460ff19166001179055611e1a3390565b6001600160a01b0316816001600160a01b0316837f2f8788117e7eff1d82e926ec794901d17c78024a50270940304540a733656f0d60405160405180910390a45050565b600054610100900460ff166118ac5760405162461bcd60e51b8152600401610550906125ad565b611e8f828261103d565b156109805760008281526065602090815260408083206001600160a01b0385168085529252808320805460ff1916905551339285917ff6391f5c32d9c69d2a47ea670b442974b53935d1edc7fd64eb21e047a839171b9190a45050565b6000611f41826040518060400160405280602081526020017f5361666545524332303a206c6f772d6c6576656c2063616c6c206661696c6564815250856001600160a01b03166120449092919063ffffffff16565b8051909150156109aa5780806020019051810190611f5f9190612651565b6109aa5760405162461bcd60e51b815260206004820152602a60248201527f5361666545524332303a204552433230206f7065726174696f6e20646964206e6044820152691bdd081cdd58d8d9595960b21b6064820152608401610550565b6000826000018281548110611fd557611fd561260e565b9060005260206000200154905092915050565b60608160000180548060200260200160405190810160405280929190818152602001828054801561203857602002820191906000526020600020905b815481526020019060010190808311612024575b50505050509050919050565b6060612053848460008561205b565b949350505050565b6060824710156120bc5760405162461bcd60e51b815260206004820152602660248201527f416464726573733a20696e73756666696369656e742062616c616e636520666f6044820152651c8818d85b1b60d21b6064820152608401610550565b843b61210a5760405162461bcd60e51b815260206004820152601d60248201527f416464726573733a2063616c6c20746f206e6f6e2d636f6e74726163740000006044820152606401610550565b600080866001600160a01b03168587604051612126919061266e565b60006040518083038185875af1925050503d8060008114612163576040519150601f19603f3d011682016040523d82523d6000602084013e612168565b606091505b5091509150612178828286612183565b979650505050505050565b60608315612192575081610feb565b8251156121a25782518084602001fd5b8160405162461bcd60e51b8152600401610550919061257a565b6000602082840312156121ce57600080fd5b81356001600160e01b031981168114610feb57600080fd5b80356001600160a01b03811681146121fd57600080fd5b919050565b60006020828403121561221457600080fd5b610feb826121e6565b801515811461222b57600080fd5b50565b600080600080600060a0868803121561224657600080fd5b61224f866121e6565b945060208601359350604086013592506060860135915060808601356122748161221d565b809150509295509295909350565b60006020828403121561229457600080fd5b5035919050565b600080604083850312156122ae57600080fd5b823591506122be602084016121e6565b90509250929050565b600080604083850312156122da57600080fd5b6122e3836121e6565b946020939093013593505050565b6000806040838503121561230457600080fd5b61230d836121e6565b9150602083013561231d8161221d565b809150509250929050565b6000806040838503121561233b57600080fd5b50508035926020909101359150565b6020808252825182820181905260009190848201906040850190845b8181101561238b5783516001600160a01b031683529284019291840191600101612366565b50909695505050505050565b6000806000606084860312156123ac57600080fd5b6123b5846121e6565b95602085013595506040909401359392505050565b60208082526015908201527414dd1c99585b48191bd95cc81b9bdd08195e1a5cdd605a1b604082015260600190565b634e487b7160e01b600052601160045260246000fd5b600082821015612421576124216123f9565b500390565b60008261244357634e487b7160e01b600052601260045260246000fd5b500490565b6020808252600c908201526b14dd1c99585b48195b99195960a21b604082015260600190565b6000816000190483118215151615612488576124886123f9565b500290565b600082198211156124a0576124a06123f9565b500190565b60006000198214156124b9576124b96123f9565b5060010190565b6000602082840312156124d257600080fd5b5051919050565b60005b838110156124f45781810151838201526020016124dc565b838111156106b95750506000910152565b7f416363657373436f6e74726f6c3a206163636f756e742000000000000000000081526000835161253d8160178501602088016124d9565b7001034b99036b4b9b9b4b733903937b6329607d1b601791840191820152835161256e8160288401602088016124d9565b01602801949350505050565b60208152600082518060208401526125998160408501602087016124d9565b601f01601f19169190910160400192915050565b6020808252602b908201527f496e697469616c697a61626c653a20636f6e7472616374206973206e6f74206960408201526a6e697469616c697a696e6760a81b606082015260800190565b634e487b7160e01b600052604160045260246000fd5b634e487b7160e01b600052603260045260246000fd5b600081612633576126336123f9565b506000190190565b634e487b7160e01b600052603160045260246000fd5b60006020828403121561266357600080fd5b8151610feb8161221d565b600082516126808184602087016124d9565b919091019291505056fe275f12656528ceae7cba2736a15cb4ce098fc404b67e9825ec13a82aaf8fabeca26469706673582212201a197f83a5d205feb2f2eda582e9d383e8e8675e223589a9d3594bfdfff4d80e64736f6c634300080b0033",
  "devdoc": {
    "kind": "dev",
    "methods": {
      "addStream(address,uint256,uint256,uint256,bool)": {
        "params": {
          "_callback": "should callback be used (if you don't know, set false)",
          "_endTimestamp": "when MAGIC stream should end",
          "_startTimestamp": "when MAGIC stream should start",
          "_stream": "address of the contract that gets rewards",
          "_totalRewards": "amount of MAGIC that should be distributed in total"
        }
      },
      "getRoleAdmin(bytes32)": {
        "details": "Returns the admin role that controls `role`. See {grantRole} and {revokeRole}. To change a role's admin, use {_setRoleAdmin}."
      },
      "getRoleMember(bytes32,uint256)": {
        "details": "Returns one of the accounts that have `role`. `index` must be a value between 0 and {getRoleMemberCount}, non-inclusive. Role bearers are not sorted in any particular way, and their ordering may change at any point. WARNING: When using {getRoleMember} and {getRoleMemberCount}, make sure you perform all queries on the same block. See the following https://forum.openzeppelin.com/t/iterating-over-elements-on-enumerableset-in-openzeppelin-contracts/2296[forum post] for more information."
      },
      "getRoleMemberCount(bytes32)": {
        "details": "Returns the number of accounts that have `role`. Can be used together with {getRoleMember} to enumerate all bearers of a role."
      },
      "grantRole(bytes32,address)": {
        "details": "Grants `role` to `account`. If `account` had not been already granted `role`, emits a {RoleGranted} event. Requirements: - the caller must have ``role``'s admin role."
      },
      "hasRole(bytes32,address)": {
        "details": "Returns `true` if `account` has been granted `role`."
      },
      "renounceRole(bytes32,address)": {
        "details": "Revokes `role` from the calling account. Roles are often managed via {grantRole} and {revokeRole}: this function's purpose is to provide a mechanism for accounts to lose their privileges if they are compromised (such as when a trusted device is misplaced). If the calling account had been revoked `role`, emits a {RoleRevoked} event. Requirements: - the caller must be `account`."
      },
      "revokeRole(bytes32,address)": {
        "details": "Revokes `role` from `account`. If `account` had been granted `role`, emits a {RoleRevoked} event. Requirements: - the caller must have ``role``'s admin role."
      },
      "supportsInterface(bytes4)": {
        "details": "See {IERC165-supportsInterface}."
      }
    },
    "version": 1
  },
  "userdoc": {
    "kind": "user",
    "methods": {
      "callbackRegistry(address)": {
        "notice": "stream address => bool"
      },
      "streamConfig(address)": {
        "notice": "stream address => CoinStream"
      }
    },
    "version": 1
  },
  "storageLayout": {
    "storage": [
      {
        "astId": 597,
        "contract": "contracts/MasterOfCoin.sol:MasterOfCoin",
        "label": "_initialized",
        "offset": 0,
        "slot": "0",
        "type": "t_bool"
      },
      {
        "astId": 600,
        "contract": "contracts/MasterOfCoin.sol:MasterOfCoin",
        "label": "_initializing",
        "offset": 1,
        "slot": "0",
        "type": "t_bool"
      },
      {
        "astId": 1671,
        "contract": "contracts/MasterOfCoin.sol:MasterOfCoin",
        "label": "__gap",
        "offset": 0,
        "slot": "1",
        "type": "t_array(t_uint256)50_storage"
      },
      {
        "astId": 1920,
        "contract": "contracts/MasterOfCoin.sol:MasterOfCoin",
        "label": "__gap",
        "offset": 0,
        "slot": "51",
        "type": "t_array(t_uint256)50_storage"
      },
      {
        "astId": 204,
        "contract": "contracts/MasterOfCoin.sol:MasterOfCoin",
        "label": "_roles",
        "offset": 0,
        "slot": "101",
        "type": "t_mapping(t_bytes32,t_struct(RoleData)199_storage)"
      },
      {
        "astId": 491,
        "contract": "contracts/MasterOfCoin.sol:MasterOfCoin",
        "label": "__gap",
        "offset": 0,
        "slot": "102",
        "type": "t_array(t_uint256)49_storage"
      },
      {
        "astId": 45,
        "contract": "contracts/MasterOfCoin.sol:MasterOfCoin",
        "label": "_roleMembers",
        "offset": 0,
        "slot": "151",
        "type": "t_mapping(t_bytes32,t_struct(AddressSet)2638_storage)"
      },
      {
        "astId": 154,
        "contract": "contracts/MasterOfCoin.sol:MasterOfCoin",
        "label": "__gap",
        "offset": 0,
        "slot": "152",
        "type": "t_array(t_uint256)49_storage"
      },
      {
        "astId": 5780,
        "contract": "contracts/MasterOfCoin.sol:MasterOfCoin",
        "label": "magic",
        "offset": 0,
        "slot": "201",
        "type": "t_contract(IERC20Upgradeable)1043"
      },
      {
        "astId": 5786,
        "contract": "contracts/MasterOfCoin.sol:MasterOfCoin",
        "label": "streamConfig",
        "offset": 0,
        "slot": "202",
        "type": "t_mapping(t_address,t_struct(CoinStream)6747_storage)"
      },
      {
        "astId": 5790,
        "contract": "contracts/MasterOfCoin.sol:MasterOfCoin",
        "label": "streams",
        "offset": 0,
        "slot": "203",
        "type": "t_struct(AddressSet)2638_storage"
      },
      {
        "astId": 5795,
        "contract": "contracts/MasterOfCoin.sol:MasterOfCoin",
        "label": "callbackRegistry",
        "offset": 0,
        "slot": "205",
        "type": "t_mapping(t_address,t_bool)"
      }
    ],
    "types": {
      "t_address": {
        "encoding": "inplace",
        "label": "address",
        "numberOfBytes": "20"
      },
      "t_array(t_bytes32)dyn_storage": {
        "base": "t_bytes32",
        "encoding": "dynamic_array",
        "label": "bytes32[]",
        "numberOfBytes": "32"
      },
      "t_array(t_uint256)49_storage": {
        "base": "t_uint256",
        "encoding": "inplace",
        "label": "uint256[49]",
        "numberOfBytes": "1568"
      },
      "t_array(t_uint256)50_storage": {
        "base": "t_uint256",
        "encoding": "inplace",
        "label": "uint256[50]",
        "numberOfBytes": "1600"
      },
      "t_bool": {
        "encoding": "inplace",
        "label": "bool",
        "numberOfBytes": "1"
      },
      "t_bytes32": {
        "encoding": "inplace",
        "label": "bytes32",
        "numberOfBytes": "32"
      },
      "t_contract(IERC20Upgradeable)1043": {
        "encoding": "inplace",
        "label": "contract IERC20Upgradeable",
        "numberOfBytes": "20"
      },
      "t_mapping(t_address,t_bool)": {
        "encoding": "mapping",
        "key": "t_address",
        "label": "mapping(address => bool)",
        "numberOfBytes": "32",
        "value": "t_bool"
      },
      "t_mapping(t_address,t_struct(CoinStream)6747_storage)": {
        "encoding": "mapping",
        "key": "t_address",
        "label": "mapping(address => struct IMasterOfCoin.CoinStream)",
        "numberOfBytes": "32",
        "value": "t_struct(CoinStream)6747_storage"
      },
      "t_mapping(t_bytes32,t_struct(AddressSet)2638_storage)": {
        "encoding": "mapping",
        "key": "t_bytes32",
        "label": "mapping(bytes32 => struct EnumerableSetUpgradeable.AddressSet)",
        "numberOfBytes": "32",
        "value": "t_struct(AddressSet)2638_storage"
      },
      "t_mapping(t_bytes32,t_struct(RoleData)199_storage)": {
        "encoding": "mapping",
        "key": "t_bytes32",
        "label": "mapping(bytes32 => struct AccessControlUpgradeable.RoleData)",
        "numberOfBytes": "32",
        "value": "t_struct(RoleData)199_storage"
      },
      "t_mapping(t_bytes32,t_uint256)": {
        "encoding": "mapping",
        "key": "t_bytes32",
        "label": "mapping(bytes32 => uint256)",
        "numberOfBytes": "32",
        "value": "t_uint256"
      },
      "t_struct(AddressSet)2638_storage": {
        "encoding": "inplace",
        "label": "struct EnumerableSetUpgradeable.AddressSet",
        "members": [
          {
            "astId": 2637,
            "contract": "contracts/MasterOfCoin.sol:MasterOfCoin",
            "label": "_inner",
            "offset": 0,
            "slot": "0",
            "type": "t_struct(Set)2337_storage"
          }
        ],
        "numberOfBytes": "64"
      },
      "t_struct(CoinStream)6747_storage": {
        "encoding": "inplace",
        "label": "struct IMasterOfCoin.CoinStream",
        "members": [
          {
            "astId": 6736,
            "contract": "contracts/MasterOfCoin.sol:MasterOfCoin",
            "label": "totalRewards",
            "offset": 0,
            "slot": "0",
            "type": "t_uint256"
          },
          {
            "astId": 6738,
            "contract": "contracts/MasterOfCoin.sol:MasterOfCoin",
            "label": "startTimestamp",
            "offset": 0,
            "slot": "1",
            "type": "t_uint256"
          },
          {
            "astId": 6740,
            "contract": "contracts/MasterOfCoin.sol:MasterOfCoin",
            "label": "endTimestamp",
            "offset": 0,
            "slot": "2",
            "type": "t_uint256"
          },
          {
            "astId": 6742,
            "contract": "contracts/MasterOfCoin.sol:MasterOfCoin",
            "label": "lastRewardTimestamp",
            "offset": 0,
            "slot": "3",
            "type": "t_uint256"
          },
          {
            "astId": 6744,
            "contract": "contracts/MasterOfCoin.sol:MasterOfCoin",
            "label": "ratePerSecond",
            "offset": 0,
            "slot": "4",
            "type": "t_uint256"
          },
          {
            "astId": 6746,
            "contract": "contracts/MasterOfCoin.sol:MasterOfCoin",
            "label": "paid",
            "offset": 0,
            "slot": "5",
            "type": "t_uint256"
          }
        ],
        "numberOfBytes": "192"
      },
      "t_struct(RoleData)199_storage": {
        "encoding": "inplace",
        "label": "struct AccessControlUpgradeable.RoleData",
        "members": [
          {
            "astId": 196,
            "contract": "contracts/MasterOfCoin.sol:MasterOfCoin",
            "label": "members",
            "offset": 0,
            "slot": "0",
            "type": "t_mapping(t_address,t_bool)"
          },
          {
            "astId": 198,
            "contract": "contracts/MasterOfCoin.sol:MasterOfCoin",
            "label": "adminRole",
            "offset": 0,
            "slot": "1",
            "type": "t_bytes32"
          }
        ],
        "numberOfBytes": "64"
      },
      "t_struct(Set)2337_storage": {
        "encoding": "inplace",
        "label": "struct EnumerableSetUpgradeable.Set",
        "members": [
          {
            "astId": 2332,
            "contract": "contracts/MasterOfCoin.sol:MasterOfCoin",
            "label": "_values",
            "offset": 0,
            "slot": "0",
            "type": "t_array(t_bytes32)dyn_storage"
          },
          {
            "astId": 2336,
            "contract": "contracts/MasterOfCoin.sol:MasterOfCoin",
            "label": "_indexes",
            "offset": 0,
            "slot": "1",
            "type": "t_mapping(t_bytes32,t_uint256)"
          }
        ],
        "numberOfBytes": "64"
      },
      "t_uint256": {
        "encoding": "inplace",
        "label": "uint256",
        "numberOfBytes": "32"
      }
    }
  }
}